{"contracts/bettingMarket.sol":{"bettingMarket":{"abi":[{"inputs":[],"stateMutability":"nonpayable","type":"constructor"},{"anonymous":false,"inputs":[{"indexed":true,"internalType":"address","name":"player","type":"address"},{"indexed":false,"internalType":"uint256","name":"betAmount","type":"uint256"},{"indexed":false,"internalType":"uint256","name":"buyPrice","type":"uint256"}],"name":"BetBought","type":"event"},{"anonymous":false,"inputs":[{"indexed":true,"internalType":"address","name":"player","type":"address"},{"indexed":false,"internalType":"uint256","name":"betAmount","type":"uint256"},{"indexed":false,"internalType":"uint256","name":"betTimeStamp","type":"uint256"}],"name":"BetMade","type":"event"},{"anonymous":false,"inputs":[{"indexed":true,"internalType":"address","name":"player","type":"address"},{"indexed":false,"internalType":"uint256","name":"betAmount","type":"uint256"},{"indexed":false,"internalType":"uint256","name":"sellPrice","type":"uint256"}],"name":"BetSold","type":"event"},{"anonymous":false,"inputs":[{"indexed":false,"internalType":"address","name":"withdrawer","type":"address"},{"indexed":false,"internalType":"address","name":"to","type":"address"},{"indexed":false,"internalType":"uint256","name":"amount","type":"uint256"}],"name":"ManagementFeeWithdrawn","type":"event"},{"anonymous":false,"inputs":[{"indexed":true,"internalType":"address","name":"previousOwner","type":"address"},{"indexed":true,"internalType":"address","name":"newOwner","type":"address"}],"name":"OwnershipTransferred","type":"event"},{"anonymous":false,"inputs":[{"indexed":false,"internalType":"uint256","name":"totalBetsonLosers","type":"uint256"}],"name":"PrizePoolDistributed","type":"event"},{"anonymous":false,"inputs":[{"indexed":false,"internalType":"uint256","name":"seasonEndTimestamp","type":"uint256"}],"name":"SeasonEnded","type":"event"},{"anonymous":false,"inputs":[{"indexed":false,"internalType":"uint256","name":"seasonStartTimestamp","type":"uint256"}],"name":"SeasonStarted","type":"event"},{"inputs":[{"internalType":"address payable[]","name":"winnerPlayers","type":"address[]"}],"name":"distributeRewards","outputs":[],"stateMutability":"nonpayable","type":"function"},{"inputs":[],"name":"endSeason","outputs":[],"stateMutability":"nonpayable","type":"function"},{"inputs":[],"name":"getTotalBets","outputs":[{"internalType":"uint256","name":"","type":"uint256"}],"stateMutability":"view","type":"function"},{"inputs":[{"internalType":"address","name":"player","type":"address"}],"name":"getTotalBetsforPlayer","outputs":[{"internalType":"uint256","name":"","type":"uint256"}],"stateMutability":"view","type":"function"},{"inputs":[],"name":"getTotalFees","outputs":[{"internalType":"uint256","name":"","type":"uint256"}],"stateMutability":"view","type":"function"},{"inputs":[],"name":"getseasonEndTimestamp","outputs":[{"internalType":"uint256","name":"","type":"uint256"}],"stateMutability":"view","type":"function"},{"inputs":[],"name":"getseasonStartTimestamp","outputs":[{"internalType":"uint256","name":"","type":"uint256"}],"stateMutability":"view","type":"function"},{"inputs":[{"internalType":"uint256","name":"amount","type":"uint256"},{"internalType":"address","name":"player","type":"address"},{"internalType":"bytes32[]","name":"proof","type":"bytes32[]"}],"name":"makeBets","outputs":[],"stateMutability":"payable","type":"function"},{"inputs":[],"name":"owner","outputs":[{"internalType":"address","name":"","type":"address"}],"stateMutability":"view","type":"function"},{"inputs":[],"name":"renounceOwnership","outputs":[],"stateMutability":"nonpayable","type":"function"},{"inputs":[{"internalType":"uint256","name":"_entryFee","type":"uint256"}],"name":"resetEntryFee","outputs":[],"stateMutability":"nonpayable","type":"function"},{"inputs":[{"internalType":"uint256","name":"_maxBetAmount","type":"uint256"}],"name":"resetMaxiumBetAmount","outputs":[],"stateMutability":"nonpayable","type":"function"},{"inputs":[{"internalType":"uint256","name":"_minBetAmount","type":"uint256"}],"name":"resetMinimumBetAmount","outputs":[],"stateMutability":"nonpayable","type":"function"},{"inputs":[{"internalType":"uint256","name":"_seasonEndTimestamp","type":"uint256"}],"name":"startSeason","outputs":[],"stateMutability":"nonpayable","type":"function"},{"inputs":[{"internalType":"address","name":"newOwner","type":"address"}],"name":"transferOwnership","outputs":[],"stateMutability":"nonpayable","type":"function"},{"inputs":[{"internalType":"address payable","name":"to_","type":"address"}],"name":"withdrawManagementFee","outputs":[],"stateMutability":"nonpayable","type":"function"},{"stateMutability":"payable","type":"receive"}],"evm":{"bytecode":{"linkReferences":{},"object":"608060405234801561001057600080fd5b5061001a33610072565b60006005819055600655678ac7230489e8000060075567016345785d8a0000600855662386f26fc10000600955600280546001600160a01b03191673f5dca59461adfff5089be5068364ec10b86c2a881790556100c2565b600080546001600160a01b038381166001600160a01b0319831681178455604051919092169283917f8be0079c531659141344cd1fd0a4f28419497f9722a3daafe3b4186f6b6457e09190a35050565b611697806100d16000396000f3fe6080604052600436106100f75760003560e01c80638da5cb5b1161008a578063c5a5515211610059578063c5a5515214610265578063c65b1fb014610285578063e4a2add514610298578063f2fde38b146102ad57600080fd5b80638da5cb5b146101f35780639c239aad1461021b578063a3cb679d1461023b578063a70f7fc41461025057600080fd5b806366bb9d43116100c657806366bb9d431461017e57806367fd81e71461019e578063703dbfe4146101be578063715018a6146101de57600080fd5b80630dc81e07146101035780633dcdb67214610125578063626e1ae71461013a57806365b94d4c1461015e57600080fd5b366100fe57005b600080fd5b34801561010f57600080fd5b5061012361011e36600461130f565b6102cd565b005b34801561013157600080fd5b506101236102da565b34801561014657600080fd5b506004545b6040519081526020015b60405180910390f35b34801561016a57600080fd5b5061012361017936600461130f565b6103c4565b34801561018a57600080fd5b5061012361019936600461130f565b6103d1565b3480156101aa57600080fd5b5061014b6101b936600461133d565b6103de565b3480156101ca57600080fd5b506101236101d936600461130f565b610465565b3480156101ea57600080fd5b50610123610558565b3480156101ff57600080fd5b506000546040516001600160a01b039091168152602001610155565b34801561022757600080fd5b5061012361023636600461133d565b61056c565b34801561024757600080fd5b5060035461014b565b34801561025c57600080fd5b5060065461014b565b34801561027157600080fd5b5061012361028036600461135a565b6105f6565b6101236102933660046113e5565b610b23565b3480156102a457600080fd5b5060055461014b565b3480156102b957600080fd5b506101236102c836600461133d565b61112b565b6102d56111a4565b600855565b6102e26111a4565b6102ea6111fe565b6103345760405162461bcd60e51b815260206004820152601660248201527514d9585cdbdb881b9bdd081e595d081cdd185c9d195960521b60448201526064015b60405180910390fd5b60065442101561037d5760405162461bcd60e51b815260206004820152601460248201527314d9585cdbdb881b9bdd081e595d08195b99195960621b604482015260640161032b565b7f71b1ed1af5dc112f73a5ec9d0960e84a848b781220620ccc8fb91814ab3047be6006546040516103b091815260200190565b60405180910390a160006005819055600655565b6103cc6111a4565b600755565b6103d96111a4565b600955565b600080805b6001600160a01b03841660009081526001602052604090205481101561045e576001600160a01b038416600090815260016020526040902080548290811061042d5761042d6114c1565b9060005260206000209060030201600001548261044a91906114ed565b91508061045681611505565b9150506103e3565b5092915050565b61046d6111a4565b6104756111fe565b156104bb5760405162461bcd60e51b815260206004820152601660248201527514d9585cdbdb88185b1c9958591e481cdd185c9d195960521b604482015260640161032b565b4281116105165760405162461bcd60e51b815260206004820152602360248201527f456e642074696d657374616d70206d75737420626520696e207468652066757460448201526275726560e81b606482015260840161032b565b42600581905560068290556040519081527fe2046d333900871694b2fb421975b907ac5d93052201a0e259fa0664d9dbdf1d906020015b60405180910390a150565b6105606111a4565b61056a600061121a565b565b6105746111a4565b6004546040516001600160a01b0383169180156108fc02916000818181858888f193505050501580156105ab573d6000803e3d6000fd5b50600454604080513381526001600160a01b0384166020820152908101919091527f22f297e564c18c704898a0ed9e6e38f717d9b035aeb502b5855a5204d102faf29060600161054d565b6105fe6111a4565b61060661126a565b15156001146106575760405162461bcd60e51b815260206004820152601860248201527f536561736f6e20686173206e6f7420656e646564207965740000000000000000604482015260640161032b565b806106915760405162461bcd60e51b815260206004820152600a6024820152694e6f2077696e6e65727360b01b604482015260640161032b565b60008060005b838110156108b45760005b600160008787858181106106b8576106b86114c1565b90506020020160208101906106cd919061133d565b6001600160a01b031681526020810191909152604001600020548110156108a157600060016000888886818110610706576107066114c1565b905060200201602081019061071b919061133d565b6001600160a01b03166001600160a01b03168152602001908152602001600020828154811061074c5761074c6114c1565b6000918252602091829020604080516060810182526003909302909101805480845260018201546001600160a01b03169484018590526002909101549183019190915290925061079c90876114ed565b825160408401519197506107b09190611283565b6107ba90866114ed565b94506107f36040518060400160405280601081526020016f53656e64696e6720257320746f20257360801b815250836000015183611296565b81516040516000916001600160a01b038416918381818185875af1925050503d806000811461083e576040519150601f19603f3d011682016040523d82523d6000602084013e610843565b606091505b505090508061088b5760405162461bcd60e51b81526020600482015260146024820152732330b4b632b2103a379039b2b7321022ba3432b960611b604482015260640161032b565b505050808061089990611505565b9150506106a2565b50806108ac81611505565b915050610697565b506000826003546108c5919061151e565b905060005b84811015610ae85760005b600160008888858181106108eb576108eb6114c1565b9050602002016020810190610900919061133d565b6001600160a01b03168152602081019190915260400160002054811015610ad557600060016000898986818110610939576109396114c1565b905060200201602081019061094e919061133d565b6001600160a01b03166001600160a01b03168152602001908152602001600020828154811061097f5761097f6114c1565b60009182526020808320604080516060810182526003909402909101805480855260018201546001600160a01b03169385018490526002909101549184018290529294509092916109db9189916109d591611283565b906112e2565b9050610a146040518060400160405280601081526020016f53656e64696e6720257320746f20257360801b815250846000015184611296565b60006001600160a01b038316610a35610a2e896001611535565b8490611283565b604051600081818185875af1925050503d8060008114610a71576040519150601f19603f3d011682016040523d82523d6000602084013e610a76565b606091505b5050905080610abe5760405162461bcd60e51b81526020600482015260146024820152732330b4b632b2103a379039b2b7321022ba3432b960611b604482015260640161032b565b505050508080610acd90611505565b9150506108d5565b5080610ae081611505565b9150506108ca565b506040518181527f159263e546a27ed7150662ad6422a52f7d9c8402c444a8e660367e46e1d719989060200160405180910390a15050505050565b600954831015610b815760405162461bcd60e51b815260206004820152602360248201527f42657420616d6f756e74206c6f776572207468616e2074686520656e7472792060448201526266656560e81b606482015260840161032b565b600854600954610b91908561151e565b1015610c055760405162461bcd60e51b815260206004820152603e60248201527f42657420616d6f756e7420286d696e757320656e7472792066656529206c6f7760448201527f6572207468616e20746865206d696e696d756d2062657420616d6f756e740000606482015260840161032b565b600754600954610c15908561151e565b1115610c895760405162461bcd60e51b815260206004820152603f60248201527f42657420616d6f756e7420286d696e757320656e74727920666565292068696760448201527f686572207468616e20746865206d6178696d756d2062657420616d6f756e7400606482015260840161032b565b610c916111fe565b610cdd5760405162461bcd60e51b815260206004820152601a60248201527f536561736f6e20686173206e6f74207374617274656420796574000000000000604482015260640161032b565b610ce561126a565b15610d255760405162461bcd60e51b815260206004820152601060248201526f14d9585cdbdb881a185cc8195b99195960821b604482015260640161032b565b6002546040516001600160a01b0390911690638c346a5d90610d4b908490602001611554565b6040516020818303038152906040526040518263ffffffff1660e01b8152600401610d7691906115d7565b602060405180830381865afa158015610d93573d6000803e3d6000fd5b505050506040513d601f19601f82011682018060405250810190610db791906115ea565b610dc057600080fd5b600954610dcd908461151e565b925060095460046000828254610de391906114ed565b9250508190555060004290506000610e1263240c84006109d5600360055486610e0c919061151e565b90611283565b610e1d9060016114ed565b9050806000805b6001600160a01b03871660009081526001602052604090205481101561104a576001600160a01b0387166000908152600160205260409020805433919083908110610e7157610e716114c1565b60009182526020909120600160039092020101546001600160a01b031603611038576000610e9f848a611283565b6001600160a01b03891660009081526001602052604090208054610f29919085908110610ece57610ece6114c1565b600091825260208083206003909202909101546001600160a01b038d16835260019091526040909120805486908110610f0957610f096114c1565b90600052602060002090600302016002015461128390919063ffffffff16565b610f3391906114ed565b9050610f9289600160008b6001600160a01b03166001600160a01b031681526020019081526020016000208481548110610f6f57610f6f6114c1565b906000526020600020906003020160000154610f8b91906114ed565b82906112e2565b6001600160a01b0389166000908152600160205260409020805484908110610fbc57610fbc6114c1565b90600052602060002090600302016002018190555088600160008a6001600160a01b03166001600160a01b031681526020019081526020016000208381548110611008576110086114c1565b9060005260206000209060030201600001600082825461102891906114ed565b909155506001935061104a915050565b8061104281611505565b915050610e24565b508015156000036110c757604080516060810182528881523360208083019182528284018681526001600160a01b038b8116600090815260018085529681208054808901825590825293902094516003909302909401918255915193810180546001600160a01b0319169490931693909317909155516002909101555b86600360008282546110d991906114ed565b909155505060408051888152602081018690526001600160a01b038816917faef4e091ec4a3800e3135934210edcf6949b208c449c51fe586e99d1700ba2c0910160405180910390a250505050505050565b6111336111a4565b6001600160a01b0381166111985760405162461bcd60e51b815260206004820152602660248201527f4f776e61626c653a206e6577206f776e657220697320746865207a65726f206160448201526564647265737360d01b606482015260840161032b565b6111a18161121a565b50565b6000546001600160a01b0316331461056a5760405162461bcd60e51b815260206004820181905260248201527f4f776e61626c653a2063616c6c6572206973206e6f7420746865206f776e6572604482015260640161032b565b600060055460001415801561121557506005544210155b905090565b600080546001600160a01b038381166001600160a01b0319831681178455604051919092169283917f8be0079c531659141344cd1fd0a4f28419497f9722a3daafe3b4186f6b6457e09190a35050565b6000600654600014801561121557505060065442101590565b600061128f8284611535565b9392505050565b6112dd8383836040516024016112ae9392919061160c565b60408051601f198184030181529190526020810180516001600160e01b031663038fd88960e31b1790526112ee565b505050565b600061128f828461163f565b80516a636f6e736f6c652e6c6f67602083016000808483855afa5050505050565b60006020828403121561132157600080fd5b5035919050565b6001600160a01b03811681146111a157600080fd5b60006020828403121561134f57600080fd5b813561128f81611328565b6000806020838503121561136d57600080fd5b823567ffffffffffffffff8082111561138557600080fd5b818501915085601f83011261139957600080fd5b8135818111156113a857600080fd5b8660208260051b85010111156113bd57600080fd5b60209290920196919550909350505050565b634e487b7160e01b600052604160045260246000fd5b6000806000606084860312156113fa57600080fd5b8335925060208085013561140d81611328565b9250604085013567ffffffffffffffff8082111561142a57600080fd5b818701915087601f83011261143e57600080fd5b813581811115611450576114506113cf565b8060051b604051601f19603f83011681018181108582111715611475576114756113cf565b60405291825284820192508381018501918a83111561149357600080fd5b938501935b828510156114b157843584529385019392850192611498565b8096505050505050509250925092565b634e487b7160e01b600052603260045260246000fd5b634e487b7160e01b600052601160045260246000fd5b60008219821115611500576115006114d7565b500190565b600060018201611517576115176114d7565b5060010190565b600082821015611530576115306114d7565b500390565b600081600019048311821515161561154f5761154f6114d7565b500290565b815160009082906020808601845b8381101561157e57815185529382019390820190600101611562565b50929695505050505050565b6000815180845260005b818110156115b057602081850181015186830182015201611594565b818111156115c2576000602083870101525b50601f01601f19169290920160200192915050565b60208152600061128f602083018461158a565b6000602082840312156115fc57600080fd5b8151801515811461128f57600080fd5b60608152600061161f606083018661158a565b6020830194909452506001600160a01b0391909116604090910152919050565b60008261165c57634e487b7160e01b600052601260045260246000fd5b50049056fea264697066735822122057f133db590bce31183b5ca749eb55397ec9b5f529d11a08e2dc3e49ab83999264736f6c634300080d0033","opcodes":"PUSH1 0x80 PUSH1 0x40 MSTORE CALLVALUE DUP1 ISZERO PUSH2 0x10 JUMPI PUSH1 0x0 DUP1 REVERT JUMPDEST POP PUSH2 0x1A CALLER PUSH2 0x72 JUMP JUMPDEST PUSH1 0x0 PUSH1 0x5 DUP2 SWAP1 SSTORE PUSH1 0x6 SSTORE PUSH8 0x8AC7230489E80000 PUSH1 0x7 SSTORE PUSH8 0x16345785D8A0000 PUSH1 0x8 SSTORE PUSH7 0x2386F26FC10000 PUSH1 0x9 SSTORE PUSH1 0x2 DUP1 SLOAD PUSH1 0x1 PUSH1 0x1 PUSH1 0xA0 SHL SUB NOT AND PUSH20 0xF5DCA59461ADFFF5089BE5068364EC10B86C2A88 OR SWAP1 SSTORE PUSH2 0xC2 JUMP JUMPDEST PUSH1 0x0 DUP1 SLOAD PUSH1 0x1 PUSH1 0x1 PUSH1 0xA0 SHL SUB DUP4 DUP2 AND PUSH1 0x1 PUSH1 0x1 PUSH1 0xA0 SHL SUB NOT DUP4 AND DUP2 OR DUP5 SSTORE PUSH1 0x40 MLOAD SWAP2 SWAP1 SWAP3 AND SWAP3 DUP4 SWAP2 PUSH32 0x8BE0079C531659141344CD1FD0A4F28419497F9722A3DAAFE3B4186F6B6457E0 SWAP2 SWAP1 LOG3 POP POP JUMP JUMPDEST PUSH2 0x1697 DUP1 PUSH2 0xD1 PUSH1 0x0 CODECOPY PUSH1 0x0 RETURN INVALID PUSH1 0x80 PUSH1 0x40 MSTORE PUSH1 0x4 CALLDATASIZE LT PUSH2 0xF7 JUMPI PUSH1 0x0 CALLDATALOAD PUSH1 0xE0 SHR DUP1 PUSH4 0x8DA5CB5B GT PUSH2 0x8A JUMPI DUP1 PUSH4 0xC5A55152 GT PUSH2 0x59 JUMPI DUP1 PUSH4 0xC5A55152 EQ PUSH2 0x265 JUMPI DUP1 PUSH4 0xC65B1FB0 EQ PUSH2 0x285 JUMPI DUP1 PUSH4 0xE4A2ADD5 EQ PUSH2 0x298 JUMPI DUP1 PUSH4 0xF2FDE38B EQ PUSH2 0x2AD JUMPI PUSH1 0x0 DUP1 REVERT JUMPDEST DUP1 PUSH4 0x8DA5CB5B EQ PUSH2 0x1F3 JUMPI DUP1 PUSH4 0x9C239AAD EQ PUSH2 0x21B JUMPI DUP1 PUSH4 0xA3CB679D EQ PUSH2 0x23B JUMPI DUP1 PUSH4 0xA70F7FC4 EQ PUSH2 0x250 JUMPI PUSH1 0x0 DUP1 REVERT JUMPDEST DUP1 PUSH4 0x66BB9D43 GT PUSH2 0xC6 JUMPI DUP1 PUSH4 0x66BB9D43 EQ PUSH2 0x17E JUMPI DUP1 PUSH4 0x67FD81E7 EQ PUSH2 0x19E JUMPI DUP1 PUSH4 0x703DBFE4 EQ PUSH2 0x1BE JUMPI DUP1 PUSH4 0x715018A6 EQ PUSH2 0x1DE JUMPI PUSH1 0x0 DUP1 REVERT JUMPDEST DUP1 PUSH4 0xDC81E07 EQ PUSH2 0x103 JUMPI DUP1 PUSH4 0x3DCDB672 EQ PUSH2 0x125 JUMPI DUP1 PUSH4 0x626E1AE7 EQ PUSH2 0x13A JUMPI DUP1 PUSH4 0x65B94D4C EQ PUSH2 0x15E JUMPI PUSH1 0x0 DUP1 REVERT JUMPDEST CALLDATASIZE PUSH2 0xFE JUMPI STOP JUMPDEST PUSH1 0x0 DUP1 REVERT JUMPDEST CALLVALUE DUP1 ISZERO PUSH2 0x10F JUMPI PUSH1 0x0 DUP1 REVERT JUMPDEST POP PUSH2 0x123 PUSH2 0x11E CALLDATASIZE PUSH1 0x4 PUSH2 0x130F JUMP JUMPDEST PUSH2 0x2CD JUMP JUMPDEST STOP JUMPDEST CALLVALUE DUP1 ISZERO PUSH2 0x131 JUMPI PUSH1 0x0 DUP1 REVERT JUMPDEST POP PUSH2 0x123 PUSH2 0x2DA JUMP JUMPDEST CALLVALUE DUP1 ISZERO PUSH2 0x146 JUMPI PUSH1 0x0 DUP1 REVERT JUMPDEST POP PUSH1 0x4 SLOAD JUMPDEST PUSH1 0x40 MLOAD SWAP1 DUP2 MSTORE PUSH1 0x20 ADD JUMPDEST PUSH1 0x40 MLOAD DUP1 SWAP2 SUB SWAP1 RETURN JUMPDEST CALLVALUE DUP1 ISZERO PUSH2 0x16A JUMPI PUSH1 0x0 DUP1 REVERT JUMPDEST POP PUSH2 0x123 PUSH2 0x179 CALLDATASIZE PUSH1 0x4 PUSH2 0x130F JUMP JUMPDEST PUSH2 0x3C4 JUMP JUMPDEST CALLVALUE DUP1 ISZERO PUSH2 0x18A JUMPI PUSH1 0x0 DUP1 REVERT JUMPDEST POP PUSH2 0x123 PUSH2 0x199 CALLDATASIZE PUSH1 0x4 PUSH2 0x130F JUMP JUMPDEST PUSH2 0x3D1 JUMP JUMPDEST CALLVALUE DUP1 ISZERO PUSH2 0x1AA JUMPI PUSH1 0x0 DUP1 REVERT JUMPDEST POP PUSH2 0x14B PUSH2 0x1B9 CALLDATASIZE PUSH1 0x4 PUSH2 0x133D JUMP JUMPDEST PUSH2 0x3DE JUMP JUMPDEST CALLVALUE DUP1 ISZERO PUSH2 0x1CA JUMPI PUSH1 0x0 DUP1 REVERT JUMPDEST POP PUSH2 0x123 PUSH2 0x1D9 CALLDATASIZE PUSH1 0x4 PUSH2 0x130F JUMP JUMPDEST PUSH2 0x465 JUMP JUMPDEST CALLVALUE DUP1 ISZERO PUSH2 0x1EA JUMPI PUSH1 0x0 DUP1 REVERT JUMPDEST POP PUSH2 0x123 PUSH2 0x558 JUMP JUMPDEST CALLVALUE DUP1 ISZERO PUSH2 0x1FF JUMPI PUSH1 0x0 DUP1 REVERT JUMPDEST POP PUSH1 0x0 SLOAD PUSH1 0x40 MLOAD PUSH1 0x1 PUSH1 0x1 PUSH1 0xA0 SHL SUB SWAP1 SWAP2 AND DUP2 MSTORE PUSH1 0x20 ADD PUSH2 0x155 JUMP JUMPDEST CALLVALUE DUP1 ISZERO PUSH2 0x227 JUMPI PUSH1 0x0 DUP1 REVERT JUMPDEST POP PUSH2 0x123 PUSH2 0x236 CALLDATASIZE PUSH1 0x4 PUSH2 0x133D JUMP JUMPDEST PUSH2 0x56C JUMP JUMPDEST CALLVALUE DUP1 ISZERO PUSH2 0x247 JUMPI PUSH1 0x0 DUP1 REVERT JUMPDEST POP PUSH1 0x3 SLOAD PUSH2 0x14B JUMP JUMPDEST CALLVALUE DUP1 ISZERO PUSH2 0x25C JUMPI PUSH1 0x0 DUP1 REVERT JUMPDEST POP PUSH1 0x6 SLOAD PUSH2 0x14B JUMP JUMPDEST CALLVALUE DUP1 ISZERO PUSH2 0x271 JUMPI PUSH1 0x0 DUP1 REVERT JUMPDEST POP PUSH2 0x123 PUSH2 0x280 CALLDATASIZE PUSH1 0x4 PUSH2 0x135A JUMP JUMPDEST PUSH2 0x5F6 JUMP JUMPDEST PUSH2 0x123 PUSH2 0x293 CALLDATASIZE PUSH1 0x4 PUSH2 0x13E5 JUMP JUMPDEST PUSH2 0xB23 JUMP JUMPDEST CALLVALUE DUP1 ISZERO PUSH2 0x2A4 JUMPI PUSH1 0x0 DUP1 REVERT JUMPDEST POP PUSH1 0x5 SLOAD PUSH2 0x14B JUMP JUMPDEST CALLVALUE DUP1 ISZERO PUSH2 0x2B9 JUMPI PUSH1 0x0 DUP1 REVERT JUMPDEST POP PUSH2 0x123 PUSH2 0x2C8 CALLDATASIZE PUSH1 0x4 PUSH2 0x133D JUMP JUMPDEST PUSH2 0x112B JUMP JUMPDEST PUSH2 0x2D5 PUSH2 0x11A4 JUMP JUMPDEST PUSH1 0x8 SSTORE JUMP JUMPDEST PUSH2 0x2E2 PUSH2 0x11A4 JUMP JUMPDEST PUSH2 0x2EA PUSH2 0x11FE JUMP JUMPDEST PUSH2 0x334 JUMPI PUSH1 0x40 MLOAD PUSH3 0x461BCD PUSH1 0xE5 SHL DUP2 MSTORE PUSH1 0x20 PUSH1 0x4 DUP3 ADD MSTORE PUSH1 0x16 PUSH1 0x24 DUP3 ADD MSTORE PUSH22 0x14D9585CDBDB881B9BDD081E595D081CDD185C9D1959 PUSH1 0x52 SHL PUSH1 0x44 DUP3 ADD MSTORE PUSH1 0x64 ADD JUMPDEST PUSH1 0x40 MLOAD DUP1 SWAP2 SUB SWAP1 REVERT JUMPDEST PUSH1 0x6 SLOAD TIMESTAMP LT ISZERO PUSH2 0x37D JUMPI PUSH1 0x40 MLOAD PUSH3 0x461BCD PUSH1 0xE5 SHL DUP2 MSTORE PUSH1 0x20 PUSH1 0x4 DUP3 ADD MSTORE PUSH1 0x14 PUSH1 0x24 DUP3 ADD MSTORE PUSH20 0x14D9585CDBDB881B9BDD081E595D08195B991959 PUSH1 0x62 SHL PUSH1 0x44 DUP3 ADD MSTORE PUSH1 0x64 ADD PUSH2 0x32B JUMP JUMPDEST PUSH32 0x71B1ED1AF5DC112F73A5EC9D0960E84A848B781220620CCC8FB91814AB3047BE PUSH1 0x6 SLOAD PUSH1 0x40 MLOAD PUSH2 0x3B0 SWAP2 DUP2 MSTORE PUSH1 0x20 ADD SWAP1 JUMP JUMPDEST PUSH1 0x40 MLOAD DUP1 SWAP2 SUB SWAP1 LOG1 PUSH1 0x0 PUSH1 0x5 DUP2 SWAP1 SSTORE PUSH1 0x6 SSTORE JUMP JUMPDEST PUSH2 0x3CC PUSH2 0x11A4 JUMP JUMPDEST PUSH1 0x7 SSTORE JUMP JUMPDEST PUSH2 0x3D9 PUSH2 0x11A4 JUMP JUMPDEST PUSH1 0x9 SSTORE JUMP JUMPDEST PUSH1 0x0 DUP1 DUP1 JUMPDEST PUSH1 0x1 PUSH1 0x1 PUSH1 0xA0 SHL SUB DUP5 AND PUSH1 0x0 SWAP1 DUP2 MSTORE PUSH1 0x1 PUSH1 0x20 MSTORE PUSH1 0x40 SWAP1 KECCAK256 SLOAD DUP2 LT ISZERO PUSH2 0x45E JUMPI PUSH1 0x1 PUSH1 0x1 PUSH1 0xA0 SHL SUB DUP5 AND PUSH1 0x0 SWAP1 DUP2 MSTORE PUSH1 0x1 PUSH1 0x20 MSTORE PUSH1 0x40 SWAP1 KECCAK256 DUP1 SLOAD DUP3 SWAP1 DUP2 LT PUSH2 0x42D JUMPI PUSH2 0x42D PUSH2 0x14C1 JUMP JUMPDEST SWAP1 PUSH1 0x0 MSTORE PUSH1 0x20 PUSH1 0x0 KECCAK256 SWAP1 PUSH1 0x3 MUL ADD PUSH1 0x0 ADD SLOAD DUP3 PUSH2 0x44A SWAP2 SWAP1 PUSH2 0x14ED JUMP JUMPDEST SWAP2 POP DUP1 PUSH2 0x456 DUP2 PUSH2 0x1505 JUMP JUMPDEST SWAP2 POP POP PUSH2 0x3E3 JUMP JUMPDEST POP SWAP3 SWAP2 POP POP JUMP JUMPDEST PUSH2 0x46D PUSH2 0x11A4 JUMP JUMPDEST PUSH2 0x475 PUSH2 0x11FE JUMP JUMPDEST ISZERO PUSH2 0x4BB JUMPI PUSH1 0x40 MLOAD PUSH3 0x461BCD PUSH1 0xE5 SHL DUP2 MSTORE PUSH1 0x20 PUSH1 0x4 DUP3 ADD MSTORE PUSH1 0x16 PUSH1 0x24 DUP3 ADD MSTORE PUSH22 0x14D9585CDBDB88185B1C9958591E481CDD185C9D1959 PUSH1 0x52 SHL PUSH1 0x44 DUP3 ADD MSTORE PUSH1 0x64 ADD PUSH2 0x32B JUMP JUMPDEST TIMESTAMP DUP2 GT PUSH2 0x516 JUMPI PUSH1 0x40 MLOAD PUSH3 0x461BCD PUSH1 0xE5 SHL DUP2 MSTORE PUSH1 0x20 PUSH1 0x4 DUP3 ADD MSTORE PUSH1 0x23 PUSH1 0x24 DUP3 ADD MSTORE PUSH32 0x456E642074696D657374616D70206D75737420626520696E2074686520667574 PUSH1 0x44 DUP3 ADD MSTORE PUSH3 0x757265 PUSH1 0xE8 SHL PUSH1 0x64 DUP3 ADD MSTORE PUSH1 0x84 ADD PUSH2 0x32B JUMP JUMPDEST TIMESTAMP PUSH1 0x5 DUP2 SWAP1 SSTORE PUSH1 0x6 DUP3 SWAP1 SSTORE PUSH1 0x40 MLOAD SWAP1 DUP2 MSTORE PUSH32 0xE2046D333900871694B2FB421975B907AC5D93052201A0E259FA0664D9DBDF1D SWAP1 PUSH1 0x20 ADD JUMPDEST PUSH1 0x40 MLOAD DUP1 SWAP2 SUB SWAP1 LOG1 POP JUMP JUMPDEST PUSH2 0x560 PUSH2 0x11A4 JUMP JUMPDEST PUSH2 0x56A PUSH1 0x0 PUSH2 0x121A JUMP JUMPDEST JUMP JUMPDEST PUSH2 0x574 PUSH2 0x11A4 JUMP JUMPDEST PUSH1 0x4 SLOAD PUSH1 0x40 MLOAD PUSH1 0x1 PUSH1 0x1 PUSH1 0xA0 SHL SUB DUP4 AND SWAP2 DUP1 ISZERO PUSH2 0x8FC MUL SWAP2 PUSH1 0x0 DUP2 DUP2 DUP2 DUP6 DUP9 DUP9 CALL SWAP4 POP POP POP POP ISZERO DUP1 ISZERO PUSH2 0x5AB JUMPI RETURNDATASIZE PUSH1 0x0 DUP1 RETURNDATACOPY RETURNDATASIZE PUSH1 0x0 REVERT JUMPDEST POP PUSH1 0x4 SLOAD PUSH1 0x40 DUP1 MLOAD CALLER DUP2 MSTORE PUSH1 0x1 PUSH1 0x1 PUSH1 0xA0 SHL SUB DUP5 AND PUSH1 0x20 DUP3 ADD MSTORE SWAP1 DUP2 ADD SWAP2 SWAP1 SWAP2 MSTORE PUSH32 0x22F297E564C18C704898A0ED9E6E38F717D9B035AEB502B5855A5204D102FAF2 SWAP1 PUSH1 0x60 ADD PUSH2 0x54D JUMP JUMPDEST PUSH2 0x5FE PUSH2 0x11A4 JUMP JUMPDEST PUSH2 0x606 PUSH2 0x126A JUMP JUMPDEST ISZERO ISZERO PUSH1 0x1 EQ PUSH2 0x657 JUMPI PUSH1 0x40 MLOAD PUSH3 0x461BCD PUSH1 0xE5 SHL DUP2 MSTORE PUSH1 0x20 PUSH1 0x4 DUP3 ADD MSTORE PUSH1 0x18 PUSH1 0x24 DUP3 ADD MSTORE PUSH32 0x536561736F6E20686173206E6F7420656E646564207965740000000000000000 PUSH1 0x44 DUP3 ADD MSTORE PUSH1 0x64 ADD PUSH2 0x32B JUMP JUMPDEST DUP1 PUSH2 0x691 JUMPI PUSH1 0x40 MLOAD PUSH3 0x461BCD PUSH1 0xE5 SHL DUP2 MSTORE PUSH1 0x20 PUSH1 0x4 DUP3 ADD MSTORE PUSH1 0xA PUSH1 0x24 DUP3 ADD MSTORE PUSH10 0x4E6F2077696E6E657273 PUSH1 0xB0 SHL PUSH1 0x44 DUP3 ADD MSTORE PUSH1 0x64 ADD PUSH2 0x32B JUMP JUMPDEST PUSH1 0x0 DUP1 PUSH1 0x0 JUMPDEST DUP4 DUP2 LT ISZERO PUSH2 0x8B4 JUMPI PUSH1 0x0 JUMPDEST PUSH1 0x1 PUSH1 0x0 DUP8 DUP8 DUP6 DUP2 DUP2 LT PUSH2 0x6B8 JUMPI PUSH2 0x6B8 PUSH2 0x14C1 JUMP JUMPDEST SWAP1 POP PUSH1 0x20 MUL ADD PUSH1 0x20 DUP2 ADD SWAP1 PUSH2 0x6CD SWAP2 SWAP1 PUSH2 0x133D JUMP JUMPDEST PUSH1 0x1 PUSH1 0x1 PUSH1 0xA0 SHL SUB AND DUP2 MSTORE PUSH1 0x20 DUP2 ADD SWAP2 SWAP1 SWAP2 MSTORE PUSH1 0x40 ADD PUSH1 0x0 KECCAK256 SLOAD DUP2 LT ISZERO PUSH2 0x8A1 JUMPI PUSH1 0x0 PUSH1 0x1 PUSH1 0x0 DUP9 DUP9 DUP7 DUP2 DUP2 LT PUSH2 0x706 JUMPI PUSH2 0x706 PUSH2 0x14C1 JUMP JUMPDEST SWAP1 POP PUSH1 0x20 MUL ADD PUSH1 0x20 DUP2 ADD SWAP1 PUSH2 0x71B SWAP2 SWAP1 PUSH2 0x133D JUMP JUMPDEST PUSH1 0x1 PUSH1 0x1 PUSH1 0xA0 SHL SUB AND PUSH1 0x1 PUSH1 0x1 PUSH1 0xA0 SHL SUB AND DUP2 MSTORE PUSH1 0x20 ADD SWAP1 DUP2 MSTORE PUSH1 0x20 ADD PUSH1 0x0 KECCAK256 DUP3 DUP2 SLOAD DUP2 LT PUSH2 0x74C JUMPI PUSH2 0x74C PUSH2 0x14C1 JUMP JUMPDEST PUSH1 0x0 SWAP2 DUP3 MSTORE PUSH1 0x20 SWAP2 DUP3 SWAP1 KECCAK256 PUSH1 0x40 DUP1 MLOAD PUSH1 0x60 DUP2 ADD DUP3 MSTORE PUSH1 0x3 SWAP1 SWAP4 MUL SWAP1 SWAP2 ADD DUP1 SLOAD DUP1 DUP5 MSTORE PUSH1 0x1 DUP3 ADD SLOAD PUSH1 0x1 PUSH1 0x1 PUSH1 0xA0 SHL SUB AND SWAP5 DUP5 ADD DUP6 SWAP1 MSTORE PUSH1 0x2 SWAP1 SWAP2 ADD SLOAD SWAP2 DUP4 ADD SWAP2 SWAP1 SWAP2 MSTORE SWAP1 SWAP3 POP PUSH2 0x79C SWAP1 DUP8 PUSH2 0x14ED JUMP JUMPDEST DUP3 MLOAD PUSH1 0x40 DUP5 ADD MLOAD SWAP2 SWAP8 POP PUSH2 0x7B0 SWAP2 SWAP1 PUSH2 0x1283 JUMP JUMPDEST PUSH2 0x7BA SWAP1 DUP7 PUSH2 0x14ED JUMP JUMPDEST SWAP5 POP PUSH2 0x7F3 PUSH1 0x40 MLOAD DUP1 PUSH1 0x40 ADD PUSH1 0x40 MSTORE DUP1 PUSH1 0x10 DUP2 MSTORE PUSH1 0x20 ADD PUSH16 0x53656E64696E6720257320746F202573 PUSH1 0x80 SHL DUP2 MSTORE POP DUP4 PUSH1 0x0 ADD MLOAD DUP4 PUSH2 0x1296 JUMP JUMPDEST DUP2 MLOAD PUSH1 0x40 MLOAD PUSH1 0x0 SWAP2 PUSH1 0x1 PUSH1 0x1 PUSH1 0xA0 SHL SUB DUP5 AND SWAP2 DUP4 DUP2 DUP2 DUP2 DUP6 DUP8 GAS CALL SWAP3 POP POP POP RETURNDATASIZE DUP1 PUSH1 0x0 DUP2 EQ PUSH2 0x83E JUMPI PUSH1 0x40 MLOAD SWAP2 POP PUSH1 0x1F NOT PUSH1 0x3F RETURNDATASIZE ADD AND DUP3 ADD PUSH1 0x40 MSTORE RETURNDATASIZE DUP3 MSTORE RETURNDATASIZE PUSH1 0x0 PUSH1 0x20 DUP5 ADD RETURNDATACOPY PUSH2 0x843 JUMP JUMPDEST PUSH1 0x60 SWAP2 POP JUMPDEST POP POP SWAP1 POP DUP1 PUSH2 0x88B JUMPI PUSH1 0x40 MLOAD PUSH3 0x461BCD PUSH1 0xE5 SHL DUP2 MSTORE PUSH1 0x20 PUSH1 0x4 DUP3 ADD MSTORE PUSH1 0x14 PUSH1 0x24 DUP3 ADD MSTORE PUSH20 0x2330B4B632B2103A379039B2B7321022BA3432B9 PUSH1 0x61 SHL PUSH1 0x44 DUP3 ADD MSTORE PUSH1 0x64 ADD PUSH2 0x32B JUMP JUMPDEST POP POP POP DUP1 DUP1 PUSH2 0x899 SWAP1 PUSH2 0x1505 JUMP JUMPDEST SWAP2 POP POP PUSH2 0x6A2 JUMP JUMPDEST POP DUP1 PUSH2 0x8AC DUP2 PUSH2 0x1505 JUMP JUMPDEST SWAP2 POP POP PUSH2 0x697 JUMP JUMPDEST POP PUSH1 0x0 DUP3 PUSH1 0x3 SLOAD PUSH2 0x8C5 SWAP2 SWAP1 PUSH2 0x151E JUMP JUMPDEST SWAP1 POP PUSH1 0x0 JUMPDEST DUP5 DUP2 LT ISZERO PUSH2 0xAE8 JUMPI PUSH1 0x0 JUMPDEST PUSH1 0x1 PUSH1 0x0 DUP9 DUP9 DUP6 DUP2 DUP2 LT PUSH2 0x8EB JUMPI PUSH2 0x8EB PUSH2 0x14C1 JUMP JUMPDEST SWAP1 POP PUSH1 0x20 MUL ADD PUSH1 0x20 DUP2 ADD SWAP1 PUSH2 0x900 SWAP2 SWAP1 PUSH2 0x133D JUMP JUMPDEST PUSH1 0x1 PUSH1 0x1 PUSH1 0xA0 SHL SUB AND DUP2 MSTORE PUSH1 0x20 DUP2 ADD SWAP2 SWAP1 SWAP2 MSTORE PUSH1 0x40 ADD PUSH1 0x0 KECCAK256 SLOAD DUP2 LT ISZERO PUSH2 0xAD5 JUMPI PUSH1 0x0 PUSH1 0x1 PUSH1 0x0 DUP10 DUP10 DUP7 DUP2 DUP2 LT PUSH2 0x939 JUMPI PUSH2 0x939 PUSH2 0x14C1 JUMP JUMPDEST SWAP1 POP PUSH1 0x20 MUL ADD PUSH1 0x20 DUP2 ADD SWAP1 PUSH2 0x94E SWAP2 SWAP1 PUSH2 0x133D JUMP JUMPDEST PUSH1 0x1 PUSH1 0x1 PUSH1 0xA0 SHL SUB AND PUSH1 0x1 PUSH1 0x1 PUSH1 0xA0 SHL SUB AND DUP2 MSTORE PUSH1 0x20 ADD SWAP1 DUP2 MSTORE PUSH1 0x20 ADD PUSH1 0x0 KECCAK256 DUP3 DUP2 SLOAD DUP2 LT PUSH2 0x97F JUMPI PUSH2 0x97F PUSH2 0x14C1 JUMP JUMPDEST PUSH1 0x0 SWAP2 DUP3 MSTORE PUSH1 0x20 DUP1 DUP4 KECCAK256 PUSH1 0x40 DUP1 MLOAD PUSH1 0x60 DUP2 ADD DUP3 MSTORE PUSH1 0x3 SWAP1 SWAP5 MUL SWAP1 SWAP2 ADD DUP1 SLOAD DUP1 DUP6 MSTORE PUSH1 0x1 DUP3 ADD SLOAD PUSH1 0x1 PUSH1 0x1 PUSH1 0xA0 SHL SUB AND SWAP4 DUP6 ADD DUP5 SWAP1 MSTORE PUSH1 0x2 SWAP1 SWAP2 ADD SLOAD SWAP2 DUP5 ADD DUP3 SWAP1 MSTORE SWAP3 SWAP5 POP SWAP1 SWAP3 SWAP2 PUSH2 0x9DB SWAP2 DUP10 SWAP2 PUSH2 0x9D5 SWAP2 PUSH2 0x1283 JUMP JUMPDEST SWAP1 PUSH2 0x12E2 JUMP JUMPDEST SWAP1 POP PUSH2 0xA14 PUSH1 0x40 MLOAD DUP1 PUSH1 0x40 ADD PUSH1 0x40 MSTORE DUP1 PUSH1 0x10 DUP2 MSTORE PUSH1 0x20 ADD PUSH16 0x53656E64696E6720257320746F202573 PUSH1 0x80 SHL DUP2 MSTORE POP DUP5 PUSH1 0x0 ADD MLOAD DUP5 PUSH2 0x1296 JUMP JUMPDEST PUSH1 0x0 PUSH1 0x1 PUSH1 0x1 PUSH1 0xA0 SHL SUB DUP4 AND PUSH2 0xA35 PUSH2 0xA2E DUP10 PUSH1 0x1 PUSH2 0x1535 JUMP JUMPDEST DUP5 SWAP1 PUSH2 0x1283 JUMP JUMPDEST PUSH1 0x40 MLOAD PUSH1 0x0 DUP2 DUP2 DUP2 DUP6 DUP8 GAS CALL SWAP3 POP POP POP RETURNDATASIZE DUP1 PUSH1 0x0 DUP2 EQ PUSH2 0xA71 JUMPI PUSH1 0x40 MLOAD SWAP2 POP PUSH1 0x1F NOT PUSH1 0x3F RETURNDATASIZE ADD AND DUP3 ADD PUSH1 0x40 MSTORE RETURNDATASIZE DUP3 MSTORE RETURNDATASIZE PUSH1 0x0 PUSH1 0x20 DUP5 ADD RETURNDATACOPY PUSH2 0xA76 JUMP JUMPDEST PUSH1 0x60 SWAP2 POP JUMPDEST POP POP SWAP1 POP DUP1 PUSH2 0xABE JUMPI PUSH1 0x40 MLOAD PUSH3 0x461BCD PUSH1 0xE5 SHL DUP2 MSTORE PUSH1 0x20 PUSH1 0x4 DUP3 ADD MSTORE PUSH1 0x14 PUSH1 0x24 DUP3 ADD MSTORE PUSH20 0x2330B4B632B2103A379039B2B7321022BA3432B9 PUSH1 0x61 SHL PUSH1 0x44 DUP3 ADD MSTORE PUSH1 0x64 ADD PUSH2 0x32B JUMP JUMPDEST POP POP POP POP DUP1 DUP1 PUSH2 0xACD SWAP1 PUSH2 0x1505 JUMP JUMPDEST SWAP2 POP POP PUSH2 0x8D5 JUMP JUMPDEST POP DUP1 PUSH2 0xAE0 DUP2 PUSH2 0x1505 JUMP JUMPDEST SWAP2 POP POP PUSH2 0x8CA JUMP JUMPDEST POP PUSH1 0x40 MLOAD DUP2 DUP2 MSTORE PUSH32 0x159263E546A27ED7150662AD6422A52F7D9C8402C444A8E660367E46E1D71998 SWAP1 PUSH1 0x20 ADD PUSH1 0x40 MLOAD DUP1 SWAP2 SUB SWAP1 LOG1 POP POP POP POP POP JUMP JUMPDEST PUSH1 0x9 SLOAD DUP4 LT ISZERO PUSH2 0xB81 JUMPI PUSH1 0x40 MLOAD PUSH3 0x461BCD PUSH1 0xE5 SHL DUP2 MSTORE PUSH1 0x20 PUSH1 0x4 DUP3 ADD MSTORE PUSH1 0x23 PUSH1 0x24 DUP3 ADD MSTORE PUSH32 0x42657420616D6F756E74206C6F776572207468616E2074686520656E74727920 PUSH1 0x44 DUP3 ADD MSTORE PUSH3 0x666565 PUSH1 0xE8 SHL PUSH1 0x64 DUP3 ADD MSTORE PUSH1 0x84 ADD PUSH2 0x32B JUMP JUMPDEST PUSH1 0x8 SLOAD PUSH1 0x9 SLOAD PUSH2 0xB91 SWAP1 DUP6 PUSH2 0x151E JUMP JUMPDEST LT ISZERO PUSH2 0xC05 JUMPI PUSH1 0x40 MLOAD PUSH3 0x461BCD PUSH1 0xE5 SHL DUP2 MSTORE PUSH1 0x20 PUSH1 0x4 DUP3 ADD MSTORE PUSH1 0x3E PUSH1 0x24 DUP3 ADD MSTORE PUSH32 0x42657420616D6F756E7420286D696E757320656E7472792066656529206C6F77 PUSH1 0x44 DUP3 ADD MSTORE PUSH32 0x6572207468616E20746865206D696E696D756D2062657420616D6F756E740000 PUSH1 0x64 DUP3 ADD MSTORE PUSH1 0x84 ADD PUSH2 0x32B JUMP JUMPDEST PUSH1 0x7 SLOAD PUSH1 0x9 SLOAD PUSH2 0xC15 SWAP1 DUP6 PUSH2 0x151E JUMP JUMPDEST GT ISZERO PUSH2 0xC89 JUMPI PUSH1 0x40 MLOAD PUSH3 0x461BCD PUSH1 0xE5 SHL DUP2 MSTORE PUSH1 0x20 PUSH1 0x4 DUP3 ADD MSTORE PUSH1 0x3F PUSH1 0x24 DUP3 ADD MSTORE PUSH32 0x42657420616D6F756E7420286D696E757320656E747279206665652920686967 PUSH1 0x44 DUP3 ADD MSTORE PUSH32 0x686572207468616E20746865206D6178696D756D2062657420616D6F756E7400 PUSH1 0x64 DUP3 ADD MSTORE PUSH1 0x84 ADD PUSH2 0x32B JUMP JUMPDEST PUSH2 0xC91 PUSH2 0x11FE JUMP JUMPDEST PUSH2 0xCDD JUMPI PUSH1 0x40 MLOAD PUSH3 0x461BCD PUSH1 0xE5 SHL DUP2 MSTORE PUSH1 0x20 PUSH1 0x4 DUP3 ADD MSTORE PUSH1 0x1A PUSH1 0x24 DUP3 ADD MSTORE PUSH32 0x536561736F6E20686173206E6F74207374617274656420796574000000000000 PUSH1 0x44 DUP3 ADD MSTORE PUSH1 0x64 ADD PUSH2 0x32B JUMP JUMPDEST PUSH2 0xCE5 PUSH2 0x126A JUMP JUMPDEST ISZERO PUSH2 0xD25 JUMPI PUSH1 0x40 MLOAD PUSH3 0x461BCD PUSH1 0xE5 SHL DUP2 MSTORE PUSH1 0x20 PUSH1 0x4 DUP3 ADD MSTORE PUSH1 0x10 PUSH1 0x24 DUP3 ADD MSTORE PUSH16 0x14D9585CDBDB881A185CC8195B991959 PUSH1 0x82 SHL PUSH1 0x44 DUP3 ADD MSTORE PUSH1 0x64 ADD PUSH2 0x32B JUMP JUMPDEST PUSH1 0x2 SLOAD PUSH1 0x40 MLOAD PUSH1 0x1 PUSH1 0x1 PUSH1 0xA0 SHL SUB SWAP1 SWAP2 AND SWAP1 PUSH4 0x8C346A5D SWAP1 PUSH2 0xD4B SWAP1 DUP5 SWAP1 PUSH1 0x20 ADD PUSH2 0x1554 JUMP JUMPDEST PUSH1 0x40 MLOAD PUSH1 0x20 DUP2 DUP4 SUB SUB DUP2 MSTORE SWAP1 PUSH1 0x40 MSTORE PUSH1 0x40 MLOAD DUP3 PUSH4 0xFFFFFFFF AND PUSH1 0xE0 SHL DUP2 MSTORE PUSH1 0x4 ADD PUSH2 0xD76 SWAP2 SWAP1 PUSH2 0x15D7 JUMP JUMPDEST PUSH1 0x20 PUSH1 0x40 MLOAD DUP1 DUP4 SUB DUP2 DUP7 GAS STATICCALL ISZERO DUP1 ISZERO PUSH2 0xD93 JUMPI RETURNDATASIZE PUSH1 0x0 DUP1 RETURNDATACOPY RETURNDATASIZE PUSH1 0x0 REVERT JUMPDEST POP POP POP POP PUSH1 0x40 MLOAD RETURNDATASIZE PUSH1 0x1F NOT PUSH1 0x1F DUP3 ADD AND DUP3 ADD DUP1 PUSH1 0x40 MSTORE POP DUP2 ADD SWAP1 PUSH2 0xDB7 SWAP2 SWAP1 PUSH2 0x15EA JUMP JUMPDEST PUSH2 0xDC0 JUMPI PUSH1 0x0 DUP1 REVERT JUMPDEST PUSH1 0x9 SLOAD PUSH2 0xDCD SWAP1 DUP5 PUSH2 0x151E JUMP JUMPDEST SWAP3 POP PUSH1 0x9 SLOAD PUSH1 0x4 PUSH1 0x0 DUP3 DUP3 SLOAD PUSH2 0xDE3 SWAP2 SWAP1 PUSH2 0x14ED JUMP JUMPDEST SWAP3 POP POP DUP2 SWAP1 SSTORE POP PUSH1 0x0 TIMESTAMP SWAP1 POP PUSH1 0x0 PUSH2 0xE12 PUSH4 0x240C8400 PUSH2 0x9D5 PUSH1 0x3 PUSH1 0x5 SLOAD DUP7 PUSH2 0xE0C SWAP2 SWAP1 PUSH2 0x151E JUMP JUMPDEST SWAP1 PUSH2 0x1283 JUMP JUMPDEST PUSH2 0xE1D SWAP1 PUSH1 0x1 PUSH2 0x14ED JUMP JUMPDEST SWAP1 POP DUP1 PUSH1 0x0 DUP1 JUMPDEST PUSH1 0x1 PUSH1 0x1 PUSH1 0xA0 SHL SUB DUP8 AND PUSH1 0x0 SWAP1 DUP2 MSTORE PUSH1 0x1 PUSH1 0x20 MSTORE PUSH1 0x40 SWAP1 KECCAK256 SLOAD DUP2 LT ISZERO PUSH2 0x104A JUMPI PUSH1 0x1 PUSH1 0x1 PUSH1 0xA0 SHL SUB DUP8 AND PUSH1 0x0 SWAP1 DUP2 MSTORE PUSH1 0x1 PUSH1 0x20 MSTORE PUSH1 0x40 SWAP1 KECCAK256 DUP1 SLOAD CALLER SWAP2 SWAP1 DUP4 SWAP1 DUP2 LT PUSH2 0xE71 JUMPI PUSH2 0xE71 PUSH2 0x14C1 JUMP JUMPDEST PUSH1 0x0 SWAP2 DUP3 MSTORE PUSH1 0x20 SWAP1 SWAP2 KECCAK256 PUSH1 0x1 PUSH1 0x3 SWAP1 SWAP3 MUL ADD ADD SLOAD PUSH1 0x1 PUSH1 0x1 PUSH1 0xA0 SHL SUB AND SUB PUSH2 0x1038 JUMPI PUSH1 0x0 PUSH2 0xE9F DUP5 DUP11 PUSH2 0x1283 JUMP JUMPDEST PUSH1 0x1 PUSH1 0x1 PUSH1 0xA0 SHL SUB DUP10 AND PUSH1 0x0 SWAP1 DUP2 MSTORE PUSH1 0x1 PUSH1 0x20 MSTORE PUSH1 0x40 SWAP1 KECCAK256 DUP1 SLOAD PUSH2 0xF29 SWAP2 SWAP1 DUP6 SWAP1 DUP2 LT PUSH2 0xECE JUMPI PUSH2 0xECE PUSH2 0x14C1 JUMP JUMPDEST PUSH1 0x0 SWAP2 DUP3 MSTORE PUSH1 0x20 DUP1 DUP4 KECCAK256 PUSH1 0x3 SWAP1 SWAP3 MUL SWAP1 SWAP2 ADD SLOAD PUSH1 0x1 PUSH1 0x1 PUSH1 0xA0 SHL SUB DUP14 AND DUP4 MSTORE PUSH1 0x1 SWAP1 SWAP2 MSTORE PUSH1 0x40 SWAP1 SWAP2 KECCAK256 DUP1 SLOAD DUP7 SWAP1 DUP2 LT PUSH2 0xF09 JUMPI PUSH2 0xF09 PUSH2 0x14C1 JUMP JUMPDEST SWAP1 PUSH1 0x0 MSTORE PUSH1 0x20 PUSH1 0x0 KECCAK256 SWAP1 PUSH1 0x3 MUL ADD PUSH1 0x2 ADD SLOAD PUSH2 0x1283 SWAP1 SWAP2 SWAP1 PUSH4 0xFFFFFFFF AND JUMP JUMPDEST PUSH2 0xF33 SWAP2 SWAP1 PUSH2 0x14ED JUMP JUMPDEST SWAP1 POP PUSH2 0xF92 DUP10 PUSH1 0x1 PUSH1 0x0 DUP12 PUSH1 0x1 PUSH1 0x1 PUSH1 0xA0 SHL SUB AND PUSH1 0x1 PUSH1 0x1 PUSH1 0xA0 SHL SUB AND DUP2 MSTORE PUSH1 0x20 ADD SWAP1 DUP2 MSTORE PUSH1 0x20 ADD PUSH1 0x0 KECCAK256 DUP5 DUP2 SLOAD DUP2 LT PUSH2 0xF6F JUMPI PUSH2 0xF6F PUSH2 0x14C1 JUMP JUMPDEST SWAP1 PUSH1 0x0 MSTORE PUSH1 0x20 PUSH1 0x0 KECCAK256 SWAP1 PUSH1 0x3 MUL ADD PUSH1 0x0 ADD SLOAD PUSH2 0xF8B SWAP2 SWAP1 PUSH2 0x14ED JUMP JUMPDEST DUP3 SWAP1 PUSH2 0x12E2 JUMP JUMPDEST PUSH1 0x1 PUSH1 0x1 PUSH1 0xA0 SHL SUB DUP10 AND PUSH1 0x0 SWAP1 DUP2 MSTORE PUSH1 0x1 PUSH1 0x20 MSTORE PUSH1 0x40 SWAP1 KECCAK256 DUP1 SLOAD DUP5 SWAP1 DUP2 LT PUSH2 0xFBC JUMPI PUSH2 0xFBC PUSH2 0x14C1 JUMP JUMPDEST SWAP1 PUSH1 0x0 MSTORE PUSH1 0x20 PUSH1 0x0 KECCAK256 SWAP1 PUSH1 0x3 MUL ADD PUSH1 0x2 ADD DUP2 SWAP1 SSTORE POP DUP9 PUSH1 0x1 PUSH1 0x0 DUP11 PUSH1 0x1 PUSH1 0x1 PUSH1 0xA0 SHL SUB AND PUSH1 0x1 PUSH1 0x1 PUSH1 0xA0 SHL SUB AND DUP2 MSTORE PUSH1 0x20 ADD SWAP1 DUP2 MSTORE PUSH1 0x20 ADD PUSH1 0x0 KECCAK256 DUP4 DUP2 SLOAD DUP2 LT PUSH2 0x1008 JUMPI PUSH2 0x1008 PUSH2 0x14C1 JUMP JUMPDEST SWAP1 PUSH1 0x0 MSTORE PUSH1 0x20 PUSH1 0x0 KECCAK256 SWAP1 PUSH1 0x3 MUL ADD PUSH1 0x0 ADD PUSH1 0x0 DUP3 DUP3 SLOAD PUSH2 0x1028 SWAP2 SWAP1 PUSH2 0x14ED JUMP JUMPDEST SWAP1 SWAP2 SSTORE POP PUSH1 0x1 SWAP4 POP PUSH2 0x104A SWAP2 POP POP JUMP JUMPDEST DUP1 PUSH2 0x1042 DUP2 PUSH2 0x1505 JUMP JUMPDEST SWAP2 POP POP PUSH2 0xE24 JUMP JUMPDEST POP DUP1 ISZERO ISZERO PUSH1 0x0 SUB PUSH2 0x10C7 JUMPI PUSH1 0x40 DUP1 MLOAD PUSH1 0x60 DUP2 ADD DUP3 MSTORE DUP9 DUP2 MSTORE CALLER PUSH1 0x20 DUP1 DUP4 ADD SWAP2 DUP3 MSTORE DUP3 DUP5 ADD DUP7 DUP2 MSTORE PUSH1 0x1 PUSH1 0x1 PUSH1 0xA0 SHL SUB DUP12 DUP2 AND PUSH1 0x0 SWAP1 DUP2 MSTORE PUSH1 0x1 DUP1 DUP6 MSTORE SWAP7 DUP2 KECCAK256 DUP1 SLOAD DUP1 DUP10 ADD DUP3 SSTORE SWAP1 DUP3 MSTORE SWAP4 SWAP1 KECCAK256 SWAP5 MLOAD PUSH1 0x3 SWAP1 SWAP4 MUL SWAP1 SWAP5 ADD SWAP2 DUP3 SSTORE SWAP2 MLOAD SWAP4 DUP2 ADD DUP1 SLOAD PUSH1 0x1 PUSH1 0x1 PUSH1 0xA0 SHL SUB NOT AND SWAP5 SWAP1 SWAP4 AND SWAP4 SWAP1 SWAP4 OR SWAP1 SWAP2 SSTORE MLOAD PUSH1 0x2 SWAP1 SWAP2 ADD SSTORE JUMPDEST DUP7 PUSH1 0x3 PUSH1 0x0 DUP3 DUP3 SLOAD PUSH2 0x10D9 SWAP2 SWAP1 PUSH2 0x14ED JUMP JUMPDEST SWAP1 SWAP2 SSTORE POP POP PUSH1 0x40 DUP1 MLOAD DUP9 DUP2 MSTORE PUSH1 0x20 DUP2 ADD DUP7 SWAP1 MSTORE PUSH1 0x1 PUSH1 0x1 PUSH1 0xA0 SHL SUB DUP9 AND SWAP2 PUSH32 0xAEF4E091EC4A3800E3135934210EDCF6949B208C449C51FE586E99D1700BA2C0 SWAP2 ADD PUSH1 0x40 MLOAD DUP1 SWAP2 SUB SWAP1 LOG2 POP POP POP POP POP POP POP JUMP JUMPDEST PUSH2 0x1133 PUSH2 0x11A4 JUMP JUMPDEST PUSH1 0x1 PUSH1 0x1 PUSH1 0xA0 SHL SUB DUP2 AND PUSH2 0x1198 JUMPI PUSH1 0x40 MLOAD PUSH3 0x461BCD PUSH1 0xE5 SHL DUP2 MSTORE PUSH1 0x20 PUSH1 0x4 DUP3 ADD MSTORE PUSH1 0x26 PUSH1 0x24 DUP3 ADD MSTORE PUSH32 0x4F776E61626C653A206E6577206F776E657220697320746865207A65726F2061 PUSH1 0x44 DUP3 ADD MSTORE PUSH6 0x646472657373 PUSH1 0xD0 SHL PUSH1 0x64 DUP3 ADD MSTORE PUSH1 0x84 ADD PUSH2 0x32B JUMP JUMPDEST PUSH2 0x11A1 DUP2 PUSH2 0x121A JUMP JUMPDEST POP JUMP JUMPDEST PUSH1 0x0 SLOAD PUSH1 0x1 PUSH1 0x1 PUSH1 0xA0 SHL SUB AND CALLER EQ PUSH2 0x56A JUMPI PUSH1 0x40 MLOAD PUSH3 0x461BCD PUSH1 0xE5 SHL DUP2 MSTORE PUSH1 0x20 PUSH1 0x4 DUP3 ADD DUP2 SWAP1 MSTORE PUSH1 0x24 DUP3 ADD MSTORE PUSH32 0x4F776E61626C653A2063616C6C6572206973206E6F7420746865206F776E6572 PUSH1 0x44 DUP3 ADD MSTORE PUSH1 0x64 ADD PUSH2 0x32B JUMP JUMPDEST PUSH1 0x0 PUSH1 0x5 SLOAD PUSH1 0x0 EQ ISZERO DUP1 ISZERO PUSH2 0x1215 JUMPI POP PUSH1 0x5 SLOAD TIMESTAMP LT ISZERO JUMPDEST SWAP1 POP SWAP1 JUMP JUMPDEST PUSH1 0x0 DUP1 SLOAD PUSH1 0x1 PUSH1 0x1 PUSH1 0xA0 SHL SUB DUP4 DUP2 AND PUSH1 0x1 PUSH1 0x1 PUSH1 0xA0 SHL SUB NOT DUP4 AND DUP2 OR DUP5 SSTORE PUSH1 0x40 MLOAD SWAP2 SWAP1 SWAP3 AND SWAP3 DUP4 SWAP2 PUSH32 0x8BE0079C531659141344CD1FD0A4F28419497F9722A3DAAFE3B4186F6B6457E0 SWAP2 SWAP1 LOG3 POP POP JUMP JUMPDEST PUSH1 0x0 PUSH1 0x6 SLOAD PUSH1 0x0 EQ DUP1 ISZERO PUSH2 0x1215 JUMPI POP POP PUSH1 0x6 SLOAD TIMESTAMP LT ISZERO SWAP1 JUMP JUMPDEST PUSH1 0x0 PUSH2 0x128F DUP3 DUP5 PUSH2 0x1535 JUMP JUMPDEST SWAP4 SWAP3 POP POP POP JUMP JUMPDEST PUSH2 0x12DD DUP4 DUP4 DUP4 PUSH1 0x40 MLOAD PUSH1 0x24 ADD PUSH2 0x12AE SWAP4 SWAP3 SWAP2 SWAP1 PUSH2 0x160C JUMP JUMPDEST PUSH1 0x40 DUP1 MLOAD PUSH1 0x1F NOT DUP2 DUP5 SUB ADD DUP2 MSTORE SWAP2 SWAP1 MSTORE PUSH1 0x20 DUP2 ADD DUP1 MLOAD PUSH1 0x1 PUSH1 0x1 PUSH1 0xE0 SHL SUB AND PUSH4 0x38FD889 PUSH1 0xE3 SHL OR SWAP1 MSTORE PUSH2 0x12EE JUMP JUMPDEST POP POP POP JUMP JUMPDEST PUSH1 0x0 PUSH2 0x128F DUP3 DUP5 PUSH2 0x163F JUMP JUMPDEST DUP1 MLOAD PUSH11 0x636F6E736F6C652E6C6F67 PUSH1 0x20 DUP4 ADD PUSH1 0x0 DUP1 DUP5 DUP4 DUP6 GAS STATICCALL POP POP POP POP POP JUMP JUMPDEST PUSH1 0x0 PUSH1 0x20 DUP3 DUP5 SUB SLT ISZERO PUSH2 0x1321 JUMPI PUSH1 0x0 DUP1 REVERT JUMPDEST POP CALLDATALOAD SWAP2 SWAP1 POP JUMP JUMPDEST PUSH1 0x1 PUSH1 0x1 PUSH1 0xA0 SHL SUB DUP2 AND DUP2 EQ PUSH2 0x11A1 JUMPI PUSH1 0x0 DUP1 REVERT JUMPDEST PUSH1 0x0 PUSH1 0x20 DUP3 DUP5 SUB SLT ISZERO PUSH2 0x134F JUMPI PUSH1 0x0 DUP1 REVERT JUMPDEST DUP2 CALLDATALOAD PUSH2 0x128F DUP2 PUSH2 0x1328 JUMP JUMPDEST PUSH1 0x0 DUP1 PUSH1 0x20 DUP4 DUP6 SUB SLT ISZERO PUSH2 0x136D JUMPI PUSH1 0x0 DUP1 REVERT JUMPDEST DUP3 CALLDATALOAD PUSH8 0xFFFFFFFFFFFFFFFF DUP1 DUP3 GT ISZERO PUSH2 0x1385 JUMPI PUSH1 0x0 DUP1 REVERT JUMPDEST DUP2 DUP6 ADD SWAP2 POP DUP6 PUSH1 0x1F DUP4 ADD SLT PUSH2 0x1399 JUMPI PUSH1 0x0 DUP1 REVERT JUMPDEST DUP2 CALLDATALOAD DUP2 DUP2 GT ISZERO PUSH2 0x13A8 JUMPI PUSH1 0x0 DUP1 REVERT JUMPDEST DUP7 PUSH1 0x20 DUP3 PUSH1 0x5 SHL DUP6 ADD ADD GT ISZERO PUSH2 0x13BD JUMPI PUSH1 0x0 DUP1 REVERT JUMPDEST PUSH1 0x20 SWAP3 SWAP1 SWAP3 ADD SWAP7 SWAP2 SWAP6 POP SWAP1 SWAP4 POP POP POP POP JUMP JUMPDEST PUSH4 0x4E487B71 PUSH1 0xE0 SHL PUSH1 0x0 MSTORE PUSH1 0x41 PUSH1 0x4 MSTORE PUSH1 0x24 PUSH1 0x0 REVERT JUMPDEST PUSH1 0x0 DUP1 PUSH1 0x0 PUSH1 0x60 DUP5 DUP7 SUB SLT ISZERO PUSH2 0x13FA JUMPI PUSH1 0x0 DUP1 REVERT JUMPDEST DUP4 CALLDATALOAD SWAP3 POP PUSH1 0x20 DUP1 DUP6 ADD CALLDATALOAD PUSH2 0x140D DUP2 PUSH2 0x1328 JUMP JUMPDEST SWAP3 POP PUSH1 0x40 DUP6 ADD CALLDATALOAD PUSH8 0xFFFFFFFFFFFFFFFF DUP1 DUP3 GT ISZERO PUSH2 0x142A JUMPI PUSH1 0x0 DUP1 REVERT JUMPDEST DUP2 DUP8 ADD SWAP2 POP DUP8 PUSH1 0x1F DUP4 ADD SLT PUSH2 0x143E JUMPI PUSH1 0x0 DUP1 REVERT JUMPDEST DUP2 CALLDATALOAD DUP2 DUP2 GT ISZERO PUSH2 0x1450 JUMPI PUSH2 0x1450 PUSH2 0x13CF JUMP JUMPDEST DUP1 PUSH1 0x5 SHL PUSH1 0x40 MLOAD PUSH1 0x1F NOT PUSH1 0x3F DUP4 ADD AND DUP2 ADD DUP2 DUP2 LT DUP6 DUP3 GT OR ISZERO PUSH2 0x1475 JUMPI PUSH2 0x1475 PUSH2 0x13CF JUMP JUMPDEST PUSH1 0x40 MSTORE SWAP2 DUP3 MSTORE DUP5 DUP3 ADD SWAP3 POP DUP4 DUP2 ADD DUP6 ADD SWAP2 DUP11 DUP4 GT ISZERO PUSH2 0x1493 JUMPI PUSH1 0x0 DUP1 REVERT JUMPDEST SWAP4 DUP6 ADD SWAP4 JUMPDEST DUP3 DUP6 LT ISZERO PUSH2 0x14B1 JUMPI DUP5 CALLDATALOAD DUP5 MSTORE SWAP4 DUP6 ADD SWAP4 SWAP3 DUP6 ADD SWAP3 PUSH2 0x1498 JUMP JUMPDEST DUP1 SWAP7 POP POP POP POP POP POP POP SWAP3 POP SWAP3 POP SWAP3 JUMP JUMPDEST PUSH4 0x4E487B71 PUSH1 0xE0 SHL PUSH1 0x0 MSTORE PUSH1 0x32 PUSH1 0x4 MSTORE PUSH1 0x24 PUSH1 0x0 REVERT JUMPDEST PUSH4 0x4E487B71 PUSH1 0xE0 SHL PUSH1 0x0 MSTORE PUSH1 0x11 PUSH1 0x4 MSTORE PUSH1 0x24 PUSH1 0x0 REVERT JUMPDEST PUSH1 0x0 DUP3 NOT DUP3 GT ISZERO PUSH2 0x1500 JUMPI PUSH2 0x1500 PUSH2 0x14D7 JUMP JUMPDEST POP ADD SWAP1 JUMP JUMPDEST PUSH1 0x0 PUSH1 0x1 DUP3 ADD PUSH2 0x1517 JUMPI PUSH2 0x1517 PUSH2 0x14D7 JUMP JUMPDEST POP PUSH1 0x1 ADD SWAP1 JUMP JUMPDEST PUSH1 0x0 DUP3 DUP3 LT ISZERO PUSH2 0x1530 JUMPI PUSH2 0x1530 PUSH2 0x14D7 JUMP JUMPDEST POP SUB SWAP1 JUMP JUMPDEST PUSH1 0x0 DUP2 PUSH1 0x0 NOT DIV DUP4 GT DUP3 ISZERO ISZERO AND ISZERO PUSH2 0x154F JUMPI PUSH2 0x154F PUSH2 0x14D7 JUMP JUMPDEST POP MUL SWAP1 JUMP JUMPDEST DUP2 MLOAD PUSH1 0x0 SWAP1 DUP3 SWAP1 PUSH1 0x20 DUP1 DUP7 ADD DUP5 JUMPDEST DUP4 DUP2 LT ISZERO PUSH2 0x157E JUMPI DUP2 MLOAD DUP6 MSTORE SWAP4 DUP3 ADD SWAP4 SWAP1 DUP3 ADD SWAP1 PUSH1 0x1 ADD PUSH2 0x1562 JUMP JUMPDEST POP SWAP3 SWAP7 SWAP6 POP POP POP POP POP POP JUMP JUMPDEST PUSH1 0x0 DUP2 MLOAD DUP1 DUP5 MSTORE PUSH1 0x0 JUMPDEST DUP2 DUP2 LT ISZERO PUSH2 0x15B0 JUMPI PUSH1 0x20 DUP2 DUP6 ADD DUP2 ADD MLOAD DUP7 DUP4 ADD DUP3 ADD MSTORE ADD PUSH2 0x1594 JUMP JUMPDEST DUP2 DUP2 GT ISZERO PUSH2 0x15C2 JUMPI PUSH1 0x0 PUSH1 0x20 DUP4 DUP8 ADD ADD MSTORE JUMPDEST POP PUSH1 0x1F ADD PUSH1 0x1F NOT AND SWAP3 SWAP1 SWAP3 ADD PUSH1 0x20 ADD SWAP3 SWAP2 POP POP JUMP JUMPDEST PUSH1 0x20 DUP2 MSTORE PUSH1 0x0 PUSH2 0x128F PUSH1 0x20 DUP4 ADD DUP5 PUSH2 0x158A JUMP JUMPDEST PUSH1 0x0 PUSH1 0x20 DUP3 DUP5 SUB SLT ISZERO PUSH2 0x15FC JUMPI PUSH1 0x0 DUP1 REVERT JUMPDEST DUP2 MLOAD DUP1 ISZERO ISZERO DUP2 EQ PUSH2 0x128F JUMPI PUSH1 0x0 DUP1 REVERT JUMPDEST PUSH1 0x60 DUP2 MSTORE PUSH1 0x0 PUSH2 0x161F PUSH1 0x60 DUP4 ADD DUP7 PUSH2 0x158A JUMP JUMPDEST PUSH1 0x20 DUP4 ADD SWAP5 SWAP1 SWAP5 MSTORE POP PUSH1 0x1 PUSH1 0x1 PUSH1 0xA0 SHL SUB SWAP2 SWAP1 SWAP2 AND PUSH1 0x40 SWAP1 SWAP2 ADD MSTORE SWAP2 SWAP1 POP JUMP JUMPDEST PUSH1 0x0 DUP3 PUSH2 0x165C JUMPI PUSH4 0x4E487B71 PUSH1 0xE0 SHL PUSH1 0x0 MSTORE PUSH1 0x12 PUSH1 0x4 MSTORE PUSH1 0x24 PUSH1 0x0 REVERT JUMPDEST POP DIV SWAP1 JUMP INVALID LOG2 PUSH5 0x6970667358 0x22 SLT KECCAK256 JUMPI CALL CALLER 0xDB MSIZE SIGNEXTEND 0xCE BALANCE XOR EXTCODESIZE 0x5C 0xA7 0x49 0xEB SSTORE CODECOPY PUSH31 0xC9B5F529D11A08E2DC3E49AB83999264736F6C634300080D00330000000000 "},"methodIdentifiers":{"distributeRewards(address[])":"c5a55152","endSeason()":"3dcdb672","getTotalBets()":"a3cb679d","getTotalBetsforPlayer(address)":"67fd81e7","getTotalFees()":"626e1ae7","getseasonEndTimestamp()":"a70f7fc4","getseasonStartTimestamp()":"e4a2add5","makeBets(uint256,address,bytes32[])":"c65b1fb0","owner()":"8da5cb5b","renounceOwnership()":"715018a6","resetEntryFee(uint256)":"66bb9d43","resetMaxiumBetAmount(uint256)":"65b94d4c","resetMinimumBetAmount(uint256)":"0dc81e07","startSeason(uint256)":"703dbfe4","transferOwnership(address)":"f2fde38b","withdrawManagementFee(address)":"9c239aad"}}}}}