{"contracts/bettingMarket.sol":{"bettingMarket":{"abi":[{"inputs":[],"stateMutability":"nonpayable","type":"constructor"},{"anonymous":false,"inputs":[{"indexed":true,"internalType":"address","name":"player","type":"address"},{"indexed":false,"internalType":"uint256","name":"betAmount","type":"uint256"},{"indexed":false,"internalType":"uint256","name":"buyPrice","type":"uint256"}],"name":"BetBought","type":"event"},{"anonymous":false,"inputs":[{"indexed":true,"internalType":"address","name":"player","type":"address"},{"indexed":false,"internalType":"uint256","name":"betAmount","type":"uint256"}],"name":"BetMade","type":"event"},{"anonymous":false,"inputs":[{"indexed":true,"internalType":"address","name":"player","type":"address"},{"indexed":false,"internalType":"uint256","name":"betAmount","type":"uint256"},{"indexed":false,"internalType":"uint256","name":"sellPrice","type":"uint256"}],"name":"BetSold","type":"event"},{"anonymous":false,"inputs":[{"indexed":false,"internalType":"address","name":"withdrawer","type":"address"},{"indexed":false,"internalType":"address","name":"to","type":"address"},{"indexed":false,"internalType":"uint256","name":"amount","type":"uint256"}],"name":"ManagementFeeWithdrawn","type":"event"},{"anonymous":false,"inputs":[{"indexed":true,"internalType":"address","name":"previousOwner","type":"address"},{"indexed":true,"internalType":"address","name":"newOwner","type":"address"}],"name":"OwnershipTransferred","type":"event"},{"anonymous":false,"inputs":[{"indexed":false,"internalType":"uint256","name":"totalBetsonWinners","type":"uint256"},{"indexed":false,"internalType":"uint256","name":"totalBetsonLosers","type":"uint256"}],"name":"PrizePoolDistributed","type":"event"},{"anonymous":false,"inputs":[{"indexed":false,"internalType":"uint256","name":"seasonEndTimestamp","type":"uint256"}],"name":"SeasonEnd","type":"event"},{"anonymous":false,"inputs":[{"indexed":false,"internalType":"uint256","name":"seasonStartTimestamp","type":"uint256"}],"name":"SeasonStart","type":"event"},{"inputs":[{"internalType":"address payable[]","name":"winnerPlayers","type":"address[]"}],"name":"distributeRewards","outputs":[],"stateMutability":"nonpayable","type":"function"},{"inputs":[],"name":"endSeason","outputs":[],"stateMutability":"nonpayable","type":"function"},{"inputs":[{"internalType":"uint256","name":"amount","type":"uint256"},{"internalType":"address","name":"player","type":"address"},{"internalType":"uint256","name":"numPlayer","type":"uint256"},{"internalType":"uint256","name":"numBetter","type":"uint256"}],"name":"makeBets","outputs":[],"stateMutability":"payable","type":"function"},{"inputs":[],"name":"owner","outputs":[{"internalType":"address","name":"","type":"address"}],"stateMutability":"view","type":"function"},{"inputs":[],"name":"renounceOwnership","outputs":[],"stateMutability":"nonpayable","type":"function"},{"inputs":[{"internalType":"uint256","name":"_entryFee","type":"uint256"}],"name":"resetEntryFee","outputs":[],"stateMutability":"nonpayable","type":"function"},{"inputs":[{"internalType":"uint256","name":"_maxBetAmount","type":"uint256"}],"name":"resetMaxiumBetAmount","outputs":[],"stateMutability":"nonpayable","type":"function"},{"inputs":[{"internalType":"uint256","name":"_minBetAmount","type":"uint256"}],"name":"resetMinimumBetAmount","outputs":[],"stateMutability":"nonpayable","type":"function"},{"inputs":[{"internalType":"uint256","name":"_seasonEndTimestamp","type":"uint256"}],"name":"startSeason","outputs":[],"stateMutability":"nonpayable","type":"function"},{"inputs":[],"name":"totalBets","outputs":[{"internalType":"uint256","name":"","type":"uint256"}],"stateMutability":"view","type":"function"},{"inputs":[{"internalType":"address","name":"player","type":"address"}],"name":"totalBetsforPlayer","outputs":[{"internalType":"uint256","name":"","type":"uint256"}],"stateMutability":"view","type":"function"},{"inputs":[{"internalType":"address","name":"newOwner","type":"address"}],"name":"transferOwnership","outputs":[],"stateMutability":"nonpayable","type":"function"},{"inputs":[{"internalType":"address payable","name":"to_","type":"address"}],"name":"withdrawManagementFee","outputs":[],"stateMutability":"nonpayable","type":"function"}],"evm":{"bytecode":{"linkReferences":{},"object":"608060405234801561001057600080fd5b5061001a3361004c565b60006003819055600455671bc16d674ec8000060055567016345785d8a0000600655662386f26fc1000060075561009c565b600080546001600160a01b038381166001600160a01b0319831681178455604051919092169283917f8be0079c531659141344cd1fd0a4f28419497f9722a3daafe3b4186f6b6457e09190a35050565b611503806100ab6000396000f3fe6080604052600436106100c25760003560e01c8063715018a61161007f5780639c239aad116100595780639c239aad146101e1578063befa1e2f14610201578063c5a5515214610216578063f2fde38b1461023657600080fd5b8063715018a614610191578063750b8fb1146101a65780638da5cb5b146101b957600080fd5b806309352f8d146100c75780630dc81e07146100fa5780633dcdb6721461011c57806365b94d4c1461013157806366bb9d4314610151578063703dbfe414610171575b600080fd5b3480156100d357600080fd5b506100e76100e2366004611330565b610256565b6040519081526020015b60405180910390f35b34801561010657600080fd5b5061011a61011536600461134d565b6102dd565b005b34801561012857600080fd5b5061011a6102ea565b34801561013d57600080fd5b5061011a61014c36600461134d565b6103d3565b34801561015d57600080fd5b5061011a61016c36600461134d565b6103e0565b34801561017d57600080fd5b5061011a61018c36600461134d565b6103ed565b34801561019d57600080fd5b5061011a6104e6565b61011a6101b4366004611366565b6104fa565b3480156101c557600080fd5b506000546040516001600160a01b0390911681526020016100f1565b3480156101ed57600080fd5b5061011a6101fc366004611330565b610b13565b34801561020d57600080fd5b506002546100e7565b34801561022257600080fd5b5061011a6102313660046113a3565b610ba1565b34801561024257600080fd5b5061011a610251366004611330565b6111aa565b600080805b6001600160a01b0384166000908152600160205260409020548110156102d6576001600160a01b03841660009081526001602052604090208054829081106102a5576102a5611418565b906000526020600020906003020160000154826102c29190611444565b9150806102ce8161145c565b91505061025b565b5092915050565b6102e5611223565b600655565b6102f2611223565b6102fa61127d565b15156001146103495760405162461bcd60e51b815260206004820152601660248201527514d9585cdbdb881b9bdd081e595d081cdd185c9d195960521b60448201526064015b60405180910390fd5b6004544210156103925760405162461bcd60e51b815260206004820152601460248201527314d9585cdbdb881b9bdd081e595d08195b99195960621b6044820152606401610340565b6000600381905560048190556040519081527f4377b72a052fb49edeba53745961b2c4f5b69e75a5fd5b1a84d0355c9cdf16009060200160405180910390a1565b6103db611223565b600555565b6103e8611223565b600755565b6103f5611223565b6103fd61127d565b15156001146104475760405162461bcd60e51b815260206004820152601660248201527514d9585cdbdb88185b1c9958591e481cdd185c9d195960521b6044820152606401610340565b4281116104a55760405162461bcd60e51b815260206004820152602660248201527f536561736f6e456e642074696d65206c6f776572207468616e2063757272656e604482015265742074696d6560d01b6064820152608401610340565b42600381905560048290556040519081527f95879078a8d79cbb89a0fcb2b2137ff06ef5a50fd62e9475f9ae36877f1008679060200160405180910390a150565b6104ee611223565b6104f86000611299565b565b8334146105405760405162461bcd60e51b8152602060048201526014602482015273125b98dbdc9c9958dd0818995d08185b5bdd5b9d60621b6044820152606401610340565b60075434101561059e5760405162461bcd60e51b815260206004820152602360248201527f42657420616d6f756e74206c6f776572207468616e2074686520656e7472792060448201526266656560e81b6064820152608401610340565b6006546007546105ae9086611475565b10156106225760405162461bcd60e51b815260206004820152603e60248201527f42657420616d6f756e7420286d696e757320656e7472792066656529206c6f7760448201527f6572207468616e20746865206d696e696d756d2062657420616d6f756e7400006064820152608401610340565b6005546007546106329086611475565b11156106a65760405162461bcd60e51b815260206004820152603f60248201527f42657420616d6f756e7420286d696e757320656e74727920666565292068696760448201527f686572207468616e20746865206d6178696d756d2062657420616d6f756e74006064820152608401610340565b6106ae61127d565b15156001146106ff5760405162461bcd60e51b815260206004820152601a60248201527f536561736f6e20686173206e6f742073746172746564207965740000000000006044820152606401610340565b6107076112e9565b156107475760405162461bcd60e51b815260206004820152601060248201526f14d9585cdbdb881a185cc8195b99195960821b6044820152606401610340565b600754604051309180156108fc02916000818181858888f19350505050158015610775573d6000803e3d6000fd5b506007546107839085611475565b9350600063240c84006003544261079a9190611475565b6107a590600361148c565b6107af91906114ab565b90506000836107bf84600361148c565b6107c991906114ab565b6107d4906003611475565b905060006107ec6107e58385611444565b6001611303565b90506000805b6001600160a01b038816600090815260016020526040902054811015610a05576001600160a01b038816600090815260016020526040902080543391908390811061083f5761083f611418565b60009182526020909120600160039092020101546001600160a01b0316036109f357600061086d8a8561148c565b6001600160a01b038a16600090815260016020526040902080548490811061089757610897611418565b600091825260208083206003909202909101546001600160a01b038d168352600190915260409091208054859081106108d2576108d2611418565b9060005260206000209060030201600201546108ee919061148c565b6108f89190611444565b6001600160a01b038a16600090815260016020526040902080549192508b918490811061092757610927611418565b9060005260206000209060030201600001546109439190611444565b61094d90826114ab565b6001600160a01b038a16600090815260016020526040902080548490811061097757610977611418565b90600052602060002090600302016002018190555089600160008b6001600160a01b03166001600160a01b0316815260200190815260200160002083815481106109c3576109c3611418565b906000526020600020906003020160000160008282546109e39190611444565b9091555060019350610a05915050565b806109fd8161145c565b9150506107f2565b50801515600003610a8257604080516060810182528981523360208083019182528284018681526001600160a01b038c8116600090815260018085529681208054808901825590825293902094516003909302909401918255915193810180546001600160a01b0319169490931693909317909155516002909101555b8760026000828254610a949190611444565b909155505060405130903480156108fc02916000818181858888f19350505050158015610ac5573d6000803e3d6000fd5b50866001600160a01b03167f1b84841732b5baa9714dd2d98d4f18d381cb77b0afb57a36de22cbea66b84d8b89604051610b0191815260200190565b60405180910390a25050505050505050565b610b1b611223565b60405147906001600160a01b0383169082156108fc029083906000818181858888f19350505050158015610b53573d6000803e3d6000fd5b50604080513381526001600160a01b03841660208201529081018290527f22f297e564c18c704898a0ed9e6e38f717d9b035aeb502b5855a5204d102faf29060600160405180910390a15050565b610ba9611223565b610bb16112e9565b1515600114610c025760405162461bcd60e51b815260206004820152601860248201527f536561736f6e20686173206e6f7420656e6465642079657400000000000000006044820152606401610340565b80610c3c5760405162461bcd60e51b815260206004820152600a6024820152694e6f2077696e6e65727360b01b6044820152606401610340565b60008060005b83811015610f3b5760005b60016000878785818110610c6357610c63611418565b9050602002016020810190610c789190611330565b6001600160a01b03168152602081019190915260400160002054811015610f285760016000878785818110610caf57610caf611418565b9050602002016020810190610cc49190611330565b6001600160a01b03166001600160a01b031681526020019081526020016000208181548110610cf557610cf5611418565b90600052602060002090600302016000015484610d129190611444565b935060016000878785818110610d2a57610d2a611418565b9050602002016020810190610d3f9190611330565b6001600160a01b03166001600160a01b031681526020019081526020016000208181548110610d7057610d70611418565b90600052602060002090600302016002015460016000888886818110610d9857610d98611418565b9050602002016020810190610dad9190611330565b6001600160a01b03166001600160a01b031681526020019081526020016000208281548110610dde57610dde611418565b906000526020600020906003020160000154610dfa919061148c565b610e049084611444565b925060016000878785818110610e1c57610e1c611418565b9050602002016020810190610e319190611330565b6001600160a01b03166001600160a01b031681526020019081526020016000208181548110610e6257610e62611418565b60009182526020822060016003909202018101546001600160a01b0316916108fc9190898987818110610e9757610e97611418565b9050602002016020810190610eac9190611330565b6001600160a01b03166001600160a01b031681526020019081526020016000208381548110610edd57610edd611418565b600091825260208220600390910201546040518115909302929091818181858888f19350505050158015610f15573d6000803e3d6000fd5b5080610f208161145c565b915050610c4d565b5080610f338161145c565b915050610c42565b50600082600254610f4c9190611475565b905060005b848110156111695760005b60016000888885818110610f7257610f72611418565b9050602002016020810190610f879190611330565b6001600160a01b0316815260208101919091526040016000205481101561115657600084600160008a8a87818110610fc157610fc1611418565b9050602002016020810190610fd69190611330565b6001600160a01b03166001600160a01b03168152602001908152602001600020838154811061100757611007611418565b906000526020600020906003020160020154600160008b8b8881811061102f5761102f611418565b90506020020160208101906110449190611330565b6001600160a01b03166001600160a01b03168152602001908152602001600020848154811061107557611075611418565b906000526020600020906003020160000154611091919061148c565b61109b91906114ab565b9050600160008989868181106110b3576110b3611418565b90506020020160208101906110c89190611330565b6001600160a01b03166001600160a01b0316815260200190815260200160002082815481106110f9576110f9611418565b600091825260208220600160039092020101546040516001600160a01b039091169183156108fc02918491818181858888f19350505050158015611141573d6000803e3d6000fd5b5050808061114e9061145c565b915050610f5c565b50806111618161145c565b915050610f51565b5060408051848152602081018390527faab486d08ba4354bc306d331550b5cc792a6300a36272d36f825c8c4711d015a910160405180910390a15050505050565b6111b2611223565b6001600160a01b0381166112175760405162461bcd60e51b815260206004820152602660248201527f4f776e61626c653a206e6577206f776e657220697320746865207a65726f206160448201526564647265737360d01b6064820152608401610340565b61122081611299565b50565b6000546001600160a01b031633146104f85760405162461bcd60e51b815260206004820181905260248201527f4f776e61626c653a2063616c6c6572206973206e6f7420746865206f776e65726044820152606401610340565b600060035460001415801561129457506003544210155b905090565b600080546001600160a01b038381166001600160a01b0319831681178455604051919092169283917f8be0079c531659141344cd1fd0a4f28419497f9722a3daafe3b4186f6b6457e09190a35050565b600060045460001415801561129457505060045442101590565b60008183106113125781611314565b825b9392505050565b6001600160a01b038116811461122057600080fd5b60006020828403121561134257600080fd5b81356113148161131b565b60006020828403121561135f57600080fd5b5035919050565b6000806000806080858703121561137c57600080fd5b84359350602085013561138e8161131b565b93969395505050506040820135916060013590565b600080602083850312156113b657600080fd5b823567ffffffffffffffff808211156113ce57600080fd5b818501915085601f8301126113e257600080fd5b8135818111156113f157600080fd5b8660208260051b850101111561140657600080fd5b60209290920196919550909350505050565b634e487b7160e01b600052603260045260246000fd5b634e487b7160e01b600052601160045260246000fd5b600082198211156114575761145761142e565b500190565b60006001820161146e5761146e61142e565b5060010190565b6000828210156114875761148761142e565b500390565b60008160001904831182151516156114a6576114a661142e565b500290565b6000826114c857634e487b7160e01b600052601260045260246000fd5b50049056fea26469706673582212207b47194ea8b83f1ef2bf7a680df6f55a7e1cdfb691e1ff4042dbee5d958a84ed64736f6c634300080d0033","opcodes":"PUSH1 0x80 PUSH1 0x40 MSTORE CALLVALUE DUP1 ISZERO PUSH2 0x10 JUMPI PUSH1 0x0 DUP1 REVERT JUMPDEST POP PUSH2 0x1A CALLER PUSH2 0x4C JUMP JUMPDEST PUSH1 0x0 PUSH1 0x3 DUP2 SWAP1 SSTORE PUSH1 0x4 SSTORE PUSH8 0x1BC16D674EC80000 PUSH1 0x5 SSTORE PUSH8 0x16345785D8A0000 PUSH1 0x6 SSTORE PUSH7 0x2386F26FC10000 PUSH1 0x7 SSTORE PUSH2 0x9C JUMP JUMPDEST PUSH1 0x0 DUP1 SLOAD PUSH1 0x1 PUSH1 0x1 PUSH1 0xA0 SHL SUB DUP4 DUP2 AND PUSH1 0x1 PUSH1 0x1 PUSH1 0xA0 SHL SUB NOT DUP4 AND DUP2 OR DUP5 SSTORE PUSH1 0x40 MLOAD SWAP2 SWAP1 SWAP3 AND SWAP3 DUP4 SWAP2 PUSH32 0x8BE0079C531659141344CD1FD0A4F28419497F9722A3DAAFE3B4186F6B6457E0 SWAP2 SWAP1 LOG3 POP POP JUMP JUMPDEST PUSH2 0x1503 DUP1 PUSH2 0xAB PUSH1 0x0 CODECOPY PUSH1 0x0 RETURN INVALID PUSH1 0x80 PUSH1 0x40 MSTORE PUSH1 0x4 CALLDATASIZE LT PUSH2 0xC2 JUMPI PUSH1 0x0 CALLDATALOAD PUSH1 0xE0 SHR DUP1 PUSH4 0x715018A6 GT PUSH2 0x7F JUMPI DUP1 PUSH4 0x9C239AAD GT PUSH2 0x59 JUMPI DUP1 PUSH4 0x9C239AAD EQ PUSH2 0x1E1 JUMPI DUP1 PUSH4 0xBEFA1E2F EQ PUSH2 0x201 JUMPI DUP1 PUSH4 0xC5A55152 EQ PUSH2 0x216 JUMPI DUP1 PUSH4 0xF2FDE38B EQ PUSH2 0x236 JUMPI PUSH1 0x0 DUP1 REVERT JUMPDEST DUP1 PUSH4 0x715018A6 EQ PUSH2 0x191 JUMPI DUP1 PUSH4 0x750B8FB1 EQ PUSH2 0x1A6 JUMPI DUP1 PUSH4 0x8DA5CB5B EQ PUSH2 0x1B9 JUMPI PUSH1 0x0 DUP1 REVERT JUMPDEST DUP1 PUSH4 0x9352F8D EQ PUSH2 0xC7 JUMPI DUP1 PUSH4 0xDC81E07 EQ PUSH2 0xFA JUMPI DUP1 PUSH4 0x3DCDB672 EQ PUSH2 0x11C JUMPI DUP1 PUSH4 0x65B94D4C EQ PUSH2 0x131 JUMPI DUP1 PUSH4 0x66BB9D43 EQ PUSH2 0x151 JUMPI DUP1 PUSH4 0x703DBFE4 EQ PUSH2 0x171 JUMPI JUMPDEST PUSH1 0x0 DUP1 REVERT JUMPDEST CALLVALUE DUP1 ISZERO PUSH2 0xD3 JUMPI PUSH1 0x0 DUP1 REVERT JUMPDEST POP PUSH2 0xE7 PUSH2 0xE2 CALLDATASIZE PUSH1 0x4 PUSH2 0x1330 JUMP JUMPDEST PUSH2 0x256 JUMP JUMPDEST PUSH1 0x40 MLOAD SWAP1 DUP2 MSTORE PUSH1 0x20 ADD JUMPDEST PUSH1 0x40 MLOAD DUP1 SWAP2 SUB SWAP1 RETURN JUMPDEST CALLVALUE DUP1 ISZERO PUSH2 0x106 JUMPI PUSH1 0x0 DUP1 REVERT JUMPDEST POP PUSH2 0x11A PUSH2 0x115 CALLDATASIZE PUSH1 0x4 PUSH2 0x134D JUMP JUMPDEST PUSH2 0x2DD JUMP JUMPDEST STOP JUMPDEST CALLVALUE DUP1 ISZERO PUSH2 0x128 JUMPI PUSH1 0x0 DUP1 REVERT JUMPDEST POP PUSH2 0x11A PUSH2 0x2EA JUMP JUMPDEST CALLVALUE DUP1 ISZERO PUSH2 0x13D JUMPI PUSH1 0x0 DUP1 REVERT JUMPDEST POP PUSH2 0x11A PUSH2 0x14C CALLDATASIZE PUSH1 0x4 PUSH2 0x134D JUMP JUMPDEST PUSH2 0x3D3 JUMP JUMPDEST CALLVALUE DUP1 ISZERO PUSH2 0x15D JUMPI PUSH1 0x0 DUP1 REVERT JUMPDEST POP PUSH2 0x11A PUSH2 0x16C CALLDATASIZE PUSH1 0x4 PUSH2 0x134D JUMP JUMPDEST PUSH2 0x3E0 JUMP JUMPDEST CALLVALUE DUP1 ISZERO PUSH2 0x17D JUMPI PUSH1 0x0 DUP1 REVERT JUMPDEST POP PUSH2 0x11A PUSH2 0x18C CALLDATASIZE PUSH1 0x4 PUSH2 0x134D JUMP JUMPDEST PUSH2 0x3ED JUMP JUMPDEST CALLVALUE DUP1 ISZERO PUSH2 0x19D JUMPI PUSH1 0x0 DUP1 REVERT JUMPDEST POP PUSH2 0x11A PUSH2 0x4E6 JUMP JUMPDEST PUSH2 0x11A PUSH2 0x1B4 CALLDATASIZE PUSH1 0x4 PUSH2 0x1366 JUMP JUMPDEST PUSH2 0x4FA JUMP JUMPDEST CALLVALUE DUP1 ISZERO PUSH2 0x1C5 JUMPI PUSH1 0x0 DUP1 REVERT JUMPDEST POP PUSH1 0x0 SLOAD PUSH1 0x40 MLOAD PUSH1 0x1 PUSH1 0x1 PUSH1 0xA0 SHL SUB SWAP1 SWAP2 AND DUP2 MSTORE PUSH1 0x20 ADD PUSH2 0xF1 JUMP JUMPDEST CALLVALUE DUP1 ISZERO PUSH2 0x1ED JUMPI PUSH1 0x0 DUP1 REVERT JUMPDEST POP PUSH2 0x11A PUSH2 0x1FC CALLDATASIZE PUSH1 0x4 PUSH2 0x1330 JUMP JUMPDEST PUSH2 0xB13 JUMP JUMPDEST CALLVALUE DUP1 ISZERO PUSH2 0x20D JUMPI PUSH1 0x0 DUP1 REVERT JUMPDEST POP PUSH1 0x2 SLOAD PUSH2 0xE7 JUMP JUMPDEST CALLVALUE DUP1 ISZERO PUSH2 0x222 JUMPI PUSH1 0x0 DUP1 REVERT JUMPDEST POP PUSH2 0x11A PUSH2 0x231 CALLDATASIZE PUSH1 0x4 PUSH2 0x13A3 JUMP JUMPDEST PUSH2 0xBA1 JUMP JUMPDEST CALLVALUE DUP1 ISZERO PUSH2 0x242 JUMPI PUSH1 0x0 DUP1 REVERT JUMPDEST POP PUSH2 0x11A PUSH2 0x251 CALLDATASIZE PUSH1 0x4 PUSH2 0x1330 JUMP JUMPDEST PUSH2 0x11AA JUMP JUMPDEST PUSH1 0x0 DUP1 DUP1 JUMPDEST PUSH1 0x1 PUSH1 0x1 PUSH1 0xA0 SHL SUB DUP5 AND PUSH1 0x0 SWAP1 DUP2 MSTORE PUSH1 0x1 PUSH1 0x20 MSTORE PUSH1 0x40 SWAP1 KECCAK256 SLOAD DUP2 LT ISZERO PUSH2 0x2D6 JUMPI PUSH1 0x1 PUSH1 0x1 PUSH1 0xA0 SHL SUB DUP5 AND PUSH1 0x0 SWAP1 DUP2 MSTORE PUSH1 0x1 PUSH1 0x20 MSTORE PUSH1 0x40 SWAP1 KECCAK256 DUP1 SLOAD DUP3 SWAP1 DUP2 LT PUSH2 0x2A5 JUMPI PUSH2 0x2A5 PUSH2 0x1418 JUMP JUMPDEST SWAP1 PUSH1 0x0 MSTORE PUSH1 0x20 PUSH1 0x0 KECCAK256 SWAP1 PUSH1 0x3 MUL ADD PUSH1 0x0 ADD SLOAD DUP3 PUSH2 0x2C2 SWAP2 SWAP1 PUSH2 0x1444 JUMP JUMPDEST SWAP2 POP DUP1 PUSH2 0x2CE DUP2 PUSH2 0x145C JUMP JUMPDEST SWAP2 POP POP PUSH2 0x25B JUMP JUMPDEST POP SWAP3 SWAP2 POP POP JUMP JUMPDEST PUSH2 0x2E5 PUSH2 0x1223 JUMP JUMPDEST PUSH1 0x6 SSTORE JUMP JUMPDEST PUSH2 0x2F2 PUSH2 0x1223 JUMP JUMPDEST PUSH2 0x2FA PUSH2 0x127D JUMP JUMPDEST ISZERO ISZERO PUSH1 0x1 EQ PUSH2 0x349 JUMPI PUSH1 0x40 MLOAD PUSH3 0x461BCD PUSH1 0xE5 SHL DUP2 MSTORE PUSH1 0x20 PUSH1 0x4 DUP3 ADD MSTORE PUSH1 0x16 PUSH1 0x24 DUP3 ADD MSTORE PUSH22 0x14D9585CDBDB881B9BDD081E595D081CDD185C9D1959 PUSH1 0x52 SHL PUSH1 0x44 DUP3 ADD MSTORE PUSH1 0x64 ADD JUMPDEST PUSH1 0x40 MLOAD DUP1 SWAP2 SUB SWAP1 REVERT JUMPDEST PUSH1 0x4 SLOAD TIMESTAMP LT ISZERO PUSH2 0x392 JUMPI PUSH1 0x40 MLOAD PUSH3 0x461BCD PUSH1 0xE5 SHL DUP2 MSTORE PUSH1 0x20 PUSH1 0x4 DUP3 ADD MSTORE PUSH1 0x14 PUSH1 0x24 DUP3 ADD MSTORE PUSH20 0x14D9585CDBDB881B9BDD081E595D08195B991959 PUSH1 0x62 SHL PUSH1 0x44 DUP3 ADD MSTORE PUSH1 0x64 ADD PUSH2 0x340 JUMP JUMPDEST PUSH1 0x0 PUSH1 0x3 DUP2 SWAP1 SSTORE PUSH1 0x4 DUP2 SWAP1 SSTORE PUSH1 0x40 MLOAD SWAP1 DUP2 MSTORE PUSH32 0x4377B72A052FB49EDEBA53745961B2C4F5B69E75A5FD5B1A84D0355C9CDF1600 SWAP1 PUSH1 0x20 ADD PUSH1 0x40 MLOAD DUP1 SWAP2 SUB SWAP1 LOG1 JUMP JUMPDEST PUSH2 0x3DB PUSH2 0x1223 JUMP JUMPDEST PUSH1 0x5 SSTORE JUMP JUMPDEST PUSH2 0x3E8 PUSH2 0x1223 JUMP JUMPDEST PUSH1 0x7 SSTORE JUMP JUMPDEST PUSH2 0x3F5 PUSH2 0x1223 JUMP JUMPDEST PUSH2 0x3FD PUSH2 0x127D JUMP JUMPDEST ISZERO ISZERO PUSH1 0x1 EQ PUSH2 0x447 JUMPI PUSH1 0x40 MLOAD PUSH3 0x461BCD PUSH1 0xE5 SHL DUP2 MSTORE PUSH1 0x20 PUSH1 0x4 DUP3 ADD MSTORE PUSH1 0x16 PUSH1 0x24 DUP3 ADD MSTORE PUSH22 0x14D9585CDBDB88185B1C9958591E481CDD185C9D1959 PUSH1 0x52 SHL PUSH1 0x44 DUP3 ADD MSTORE PUSH1 0x64 ADD PUSH2 0x340 JUMP JUMPDEST TIMESTAMP DUP2 GT PUSH2 0x4A5 JUMPI PUSH1 0x40 MLOAD PUSH3 0x461BCD PUSH1 0xE5 SHL DUP2 MSTORE PUSH1 0x20 PUSH1 0x4 DUP3 ADD MSTORE PUSH1 0x26 PUSH1 0x24 DUP3 ADD MSTORE PUSH32 0x536561736F6E456E642074696D65206C6F776572207468616E2063757272656E PUSH1 0x44 DUP3 ADD MSTORE PUSH6 0x742074696D65 PUSH1 0xD0 SHL PUSH1 0x64 DUP3 ADD MSTORE PUSH1 0x84 ADD PUSH2 0x340 JUMP JUMPDEST TIMESTAMP PUSH1 0x3 DUP2 SWAP1 SSTORE PUSH1 0x4 DUP3 SWAP1 SSTORE PUSH1 0x40 MLOAD SWAP1 DUP2 MSTORE PUSH32 0x95879078A8D79CBB89A0FCB2B2137FF06EF5A50FD62E9475F9AE36877F100867 SWAP1 PUSH1 0x20 ADD PUSH1 0x40 MLOAD DUP1 SWAP2 SUB SWAP1 LOG1 POP JUMP JUMPDEST PUSH2 0x4EE PUSH2 0x1223 JUMP JUMPDEST PUSH2 0x4F8 PUSH1 0x0 PUSH2 0x1299 JUMP JUMPDEST JUMP JUMPDEST DUP4 CALLVALUE EQ PUSH2 0x540 JUMPI PUSH1 0x40 MLOAD PUSH3 0x461BCD PUSH1 0xE5 SHL DUP2 MSTORE PUSH1 0x20 PUSH1 0x4 DUP3 ADD MSTORE PUSH1 0x14 PUSH1 0x24 DUP3 ADD MSTORE PUSH20 0x125B98DBDC9C9958DD0818995D08185B5BDD5B9D PUSH1 0x62 SHL PUSH1 0x44 DUP3 ADD MSTORE PUSH1 0x64 ADD PUSH2 0x340 JUMP JUMPDEST PUSH1 0x7 SLOAD CALLVALUE LT ISZERO PUSH2 0x59E JUMPI PUSH1 0x40 MLOAD PUSH3 0x461BCD PUSH1 0xE5 SHL DUP2 MSTORE PUSH1 0x20 PUSH1 0x4 DUP3 ADD MSTORE PUSH1 0x23 PUSH1 0x24 DUP3 ADD MSTORE PUSH32 0x42657420616D6F756E74206C6F776572207468616E2074686520656E74727920 PUSH1 0x44 DUP3 ADD MSTORE PUSH3 0x666565 PUSH1 0xE8 SHL PUSH1 0x64 DUP3 ADD MSTORE PUSH1 0x84 ADD PUSH2 0x340 JUMP JUMPDEST PUSH1 0x6 SLOAD PUSH1 0x7 SLOAD PUSH2 0x5AE SWAP1 DUP7 PUSH2 0x1475 JUMP JUMPDEST LT ISZERO PUSH2 0x622 JUMPI PUSH1 0x40 MLOAD PUSH3 0x461BCD PUSH1 0xE5 SHL DUP2 MSTORE PUSH1 0x20 PUSH1 0x4 DUP3 ADD MSTORE PUSH1 0x3E PUSH1 0x24 DUP3 ADD MSTORE PUSH32 0x42657420616D6F756E7420286D696E757320656E7472792066656529206C6F77 PUSH1 0x44 DUP3 ADD MSTORE PUSH32 0x6572207468616E20746865206D696E696D756D2062657420616D6F756E740000 PUSH1 0x64 DUP3 ADD MSTORE PUSH1 0x84 ADD PUSH2 0x340 JUMP JUMPDEST PUSH1 0x5 SLOAD PUSH1 0x7 SLOAD PUSH2 0x632 SWAP1 DUP7 PUSH2 0x1475 JUMP JUMPDEST GT ISZERO PUSH2 0x6A6 JUMPI PUSH1 0x40 MLOAD PUSH3 0x461BCD PUSH1 0xE5 SHL DUP2 MSTORE PUSH1 0x20 PUSH1 0x4 DUP3 ADD MSTORE PUSH1 0x3F PUSH1 0x24 DUP3 ADD MSTORE PUSH32 0x42657420616D6F756E7420286D696E757320656E747279206665652920686967 PUSH1 0x44 DUP3 ADD MSTORE PUSH32 0x686572207468616E20746865206D6178696D756D2062657420616D6F756E7400 PUSH1 0x64 DUP3 ADD MSTORE PUSH1 0x84 ADD PUSH2 0x340 JUMP JUMPDEST PUSH2 0x6AE PUSH2 0x127D JUMP JUMPDEST ISZERO ISZERO PUSH1 0x1 EQ PUSH2 0x6FF JUMPI PUSH1 0x40 MLOAD PUSH3 0x461BCD PUSH1 0xE5 SHL DUP2 MSTORE PUSH1 0x20 PUSH1 0x4 DUP3 ADD MSTORE PUSH1 0x1A PUSH1 0x24 DUP3 ADD MSTORE PUSH32 0x536561736F6E20686173206E6F74207374617274656420796574000000000000 PUSH1 0x44 DUP3 ADD MSTORE PUSH1 0x64 ADD PUSH2 0x340 JUMP JUMPDEST PUSH2 0x707 PUSH2 0x12E9 JUMP JUMPDEST ISZERO PUSH2 0x747 JUMPI PUSH1 0x40 MLOAD PUSH3 0x461BCD PUSH1 0xE5 SHL DUP2 MSTORE PUSH1 0x20 PUSH1 0x4 DUP3 ADD MSTORE PUSH1 0x10 PUSH1 0x24 DUP3 ADD MSTORE PUSH16 0x14D9585CDBDB881A185CC8195B991959 PUSH1 0x82 SHL PUSH1 0x44 DUP3 ADD MSTORE PUSH1 0x64 ADD PUSH2 0x340 JUMP JUMPDEST PUSH1 0x7 SLOAD PUSH1 0x40 MLOAD ADDRESS SWAP2 DUP1 ISZERO PUSH2 0x8FC MUL SWAP2 PUSH1 0x0 DUP2 DUP2 DUP2 DUP6 DUP9 DUP9 CALL SWAP4 POP POP POP POP ISZERO DUP1 ISZERO PUSH2 0x775 JUMPI RETURNDATASIZE PUSH1 0x0 DUP1 RETURNDATACOPY RETURNDATASIZE PUSH1 0x0 REVERT JUMPDEST POP PUSH1 0x7 SLOAD PUSH2 0x783 SWAP1 DUP6 PUSH2 0x1475 JUMP JUMPDEST SWAP4 POP PUSH1 0x0 PUSH4 0x240C8400 PUSH1 0x3 SLOAD TIMESTAMP PUSH2 0x79A SWAP2 SWAP1 PUSH2 0x1475 JUMP JUMPDEST PUSH2 0x7A5 SWAP1 PUSH1 0x3 PUSH2 0x148C JUMP JUMPDEST PUSH2 0x7AF SWAP2 SWAP1 PUSH2 0x14AB JUMP JUMPDEST SWAP1 POP PUSH1 0x0 DUP4 PUSH2 0x7BF DUP5 PUSH1 0x3 PUSH2 0x148C JUMP JUMPDEST PUSH2 0x7C9 SWAP2 SWAP1 PUSH2 0x14AB JUMP JUMPDEST PUSH2 0x7D4 SWAP1 PUSH1 0x3 PUSH2 0x1475 JUMP JUMPDEST SWAP1 POP PUSH1 0x0 PUSH2 0x7EC PUSH2 0x7E5 DUP4 DUP6 PUSH2 0x1444 JUMP JUMPDEST PUSH1 0x1 PUSH2 0x1303 JUMP JUMPDEST SWAP1 POP PUSH1 0x0 DUP1 JUMPDEST PUSH1 0x1 PUSH1 0x1 PUSH1 0xA0 SHL SUB DUP9 AND PUSH1 0x0 SWAP1 DUP2 MSTORE PUSH1 0x1 PUSH1 0x20 MSTORE PUSH1 0x40 SWAP1 KECCAK256 SLOAD DUP2 LT ISZERO PUSH2 0xA05 JUMPI PUSH1 0x1 PUSH1 0x1 PUSH1 0xA0 SHL SUB DUP9 AND PUSH1 0x0 SWAP1 DUP2 MSTORE PUSH1 0x1 PUSH1 0x20 MSTORE PUSH1 0x40 SWAP1 KECCAK256 DUP1 SLOAD CALLER SWAP2 SWAP1 DUP4 SWAP1 DUP2 LT PUSH2 0x83F JUMPI PUSH2 0x83F PUSH2 0x1418 JUMP JUMPDEST PUSH1 0x0 SWAP2 DUP3 MSTORE PUSH1 0x20 SWAP1 SWAP2 KECCAK256 PUSH1 0x1 PUSH1 0x3 SWAP1 SWAP3 MUL ADD ADD SLOAD PUSH1 0x1 PUSH1 0x1 PUSH1 0xA0 SHL SUB AND SUB PUSH2 0x9F3 JUMPI PUSH1 0x0 PUSH2 0x86D DUP11 DUP6 PUSH2 0x148C JUMP JUMPDEST PUSH1 0x1 PUSH1 0x1 PUSH1 0xA0 SHL SUB DUP11 AND PUSH1 0x0 SWAP1 DUP2 MSTORE PUSH1 0x1 PUSH1 0x20 MSTORE PUSH1 0x40 SWAP1 KECCAK256 DUP1 SLOAD DUP5 SWAP1 DUP2 LT PUSH2 0x897 JUMPI PUSH2 0x897 PUSH2 0x1418 JUMP JUMPDEST PUSH1 0x0 SWAP2 DUP3 MSTORE PUSH1 0x20 DUP1 DUP4 KECCAK256 PUSH1 0x3 SWAP1 SWAP3 MUL SWAP1 SWAP2 ADD SLOAD PUSH1 0x1 PUSH1 0x1 PUSH1 0xA0 SHL SUB DUP14 AND DUP4 MSTORE PUSH1 0x1 SWAP1 SWAP2 MSTORE PUSH1 0x40 SWAP1 SWAP2 KECCAK256 DUP1 SLOAD DUP6 SWAP1 DUP2 LT PUSH2 0x8D2 JUMPI PUSH2 0x8D2 PUSH2 0x1418 JUMP JUMPDEST SWAP1 PUSH1 0x0 MSTORE PUSH1 0x20 PUSH1 0x0 KECCAK256 SWAP1 PUSH1 0x3 MUL ADD PUSH1 0x2 ADD SLOAD PUSH2 0x8EE SWAP2 SWAP1 PUSH2 0x148C JUMP JUMPDEST PUSH2 0x8F8 SWAP2 SWAP1 PUSH2 0x1444 JUMP JUMPDEST PUSH1 0x1 PUSH1 0x1 PUSH1 0xA0 SHL SUB DUP11 AND PUSH1 0x0 SWAP1 DUP2 MSTORE PUSH1 0x1 PUSH1 0x20 MSTORE PUSH1 0x40 SWAP1 KECCAK256 DUP1 SLOAD SWAP2 SWAP3 POP DUP12 SWAP2 DUP5 SWAP1 DUP2 LT PUSH2 0x927 JUMPI PUSH2 0x927 PUSH2 0x1418 JUMP JUMPDEST SWAP1 PUSH1 0x0 MSTORE PUSH1 0x20 PUSH1 0x0 KECCAK256 SWAP1 PUSH1 0x3 MUL ADD PUSH1 0x0 ADD SLOAD PUSH2 0x943 SWAP2 SWAP1 PUSH2 0x1444 JUMP JUMPDEST PUSH2 0x94D SWAP1 DUP3 PUSH2 0x14AB JUMP JUMPDEST PUSH1 0x1 PUSH1 0x1 PUSH1 0xA0 SHL SUB DUP11 AND PUSH1 0x0 SWAP1 DUP2 MSTORE PUSH1 0x1 PUSH1 0x20 MSTORE PUSH1 0x40 SWAP1 KECCAK256 DUP1 SLOAD DUP5 SWAP1 DUP2 LT PUSH2 0x977 JUMPI PUSH2 0x977 PUSH2 0x1418 JUMP JUMPDEST SWAP1 PUSH1 0x0 MSTORE PUSH1 0x20 PUSH1 0x0 KECCAK256 SWAP1 PUSH1 0x3 MUL ADD PUSH1 0x2 ADD DUP2 SWAP1 SSTORE POP DUP10 PUSH1 0x1 PUSH1 0x0 DUP12 PUSH1 0x1 PUSH1 0x1 PUSH1 0xA0 SHL SUB AND PUSH1 0x1 PUSH1 0x1 PUSH1 0xA0 SHL SUB AND DUP2 MSTORE PUSH1 0x20 ADD SWAP1 DUP2 MSTORE PUSH1 0x20 ADD PUSH1 0x0 KECCAK256 DUP4 DUP2 SLOAD DUP2 LT PUSH2 0x9C3 JUMPI PUSH2 0x9C3 PUSH2 0x1418 JUMP JUMPDEST SWAP1 PUSH1 0x0 MSTORE PUSH1 0x20 PUSH1 0x0 KECCAK256 SWAP1 PUSH1 0x3 MUL ADD PUSH1 0x0 ADD PUSH1 0x0 DUP3 DUP3 SLOAD PUSH2 0x9E3 SWAP2 SWAP1 PUSH2 0x1444 JUMP JUMPDEST SWAP1 SWAP2 SSTORE POP PUSH1 0x1 SWAP4 POP PUSH2 0xA05 SWAP2 POP POP JUMP JUMPDEST DUP1 PUSH2 0x9FD DUP2 PUSH2 0x145C JUMP JUMPDEST SWAP2 POP POP PUSH2 0x7F2 JUMP JUMPDEST POP DUP1 ISZERO ISZERO PUSH1 0x0 SUB PUSH2 0xA82 JUMPI PUSH1 0x40 DUP1 MLOAD PUSH1 0x60 DUP2 ADD DUP3 MSTORE DUP10 DUP2 MSTORE CALLER PUSH1 0x20 DUP1 DUP4 ADD SWAP2 DUP3 MSTORE DUP3 DUP5 ADD DUP7 DUP2 MSTORE PUSH1 0x1 PUSH1 0x1 PUSH1 0xA0 SHL SUB DUP13 DUP2 AND PUSH1 0x0 SWAP1 DUP2 MSTORE PUSH1 0x1 DUP1 DUP6 MSTORE SWAP7 DUP2 KECCAK256 DUP1 SLOAD DUP1 DUP10 ADD DUP3 SSTORE SWAP1 DUP3 MSTORE SWAP4 SWAP1 KECCAK256 SWAP5 MLOAD PUSH1 0x3 SWAP1 SWAP4 MUL SWAP1 SWAP5 ADD SWAP2 DUP3 SSTORE SWAP2 MLOAD SWAP4 DUP2 ADD DUP1 SLOAD PUSH1 0x1 PUSH1 0x1 PUSH1 0xA0 SHL SUB NOT AND SWAP5 SWAP1 SWAP4 AND SWAP4 SWAP1 SWAP4 OR SWAP1 SWAP2 SSTORE MLOAD PUSH1 0x2 SWAP1 SWAP2 ADD SSTORE JUMPDEST DUP8 PUSH1 0x2 PUSH1 0x0 DUP3 DUP3 SLOAD PUSH2 0xA94 SWAP2 SWAP1 PUSH2 0x1444 JUMP JUMPDEST SWAP1 SWAP2 SSTORE POP POP PUSH1 0x40 MLOAD ADDRESS SWAP1 CALLVALUE DUP1 ISZERO PUSH2 0x8FC MUL SWAP2 PUSH1 0x0 DUP2 DUP2 DUP2 DUP6 DUP9 DUP9 CALL SWAP4 POP POP POP POP ISZERO DUP1 ISZERO PUSH2 0xAC5 JUMPI RETURNDATASIZE PUSH1 0x0 DUP1 RETURNDATACOPY RETURNDATASIZE PUSH1 0x0 REVERT JUMPDEST POP DUP7 PUSH1 0x1 PUSH1 0x1 PUSH1 0xA0 SHL SUB AND PUSH32 0x1B84841732B5BAA9714DD2D98D4F18D381CB77B0AFB57A36DE22CBEA66B84D8B DUP10 PUSH1 0x40 MLOAD PUSH2 0xB01 SWAP2 DUP2 MSTORE PUSH1 0x20 ADD SWAP1 JUMP JUMPDEST PUSH1 0x40 MLOAD DUP1 SWAP2 SUB SWAP1 LOG2 POP POP POP POP POP POP POP POP JUMP JUMPDEST PUSH2 0xB1B PUSH2 0x1223 JUMP JUMPDEST PUSH1 0x40 MLOAD SELFBALANCE SWAP1 PUSH1 0x1 PUSH1 0x1 PUSH1 0xA0 SHL SUB DUP4 AND SWAP1 DUP3 ISZERO PUSH2 0x8FC MUL SWAP1 DUP4 SWAP1 PUSH1 0x0 DUP2 DUP2 DUP2 DUP6 DUP9 DUP9 CALL SWAP4 POP POP POP POP ISZERO DUP1 ISZERO PUSH2 0xB53 JUMPI RETURNDATASIZE PUSH1 0x0 DUP1 RETURNDATACOPY RETURNDATASIZE PUSH1 0x0 REVERT JUMPDEST POP PUSH1 0x40 DUP1 MLOAD CALLER DUP2 MSTORE PUSH1 0x1 PUSH1 0x1 PUSH1 0xA0 SHL SUB DUP5 AND PUSH1 0x20 DUP3 ADD MSTORE SWAP1 DUP2 ADD DUP3 SWAP1 MSTORE PUSH32 0x22F297E564C18C704898A0ED9E6E38F717D9B035AEB502B5855A5204D102FAF2 SWAP1 PUSH1 0x60 ADD PUSH1 0x40 MLOAD DUP1 SWAP2 SUB SWAP1 LOG1 POP POP JUMP JUMPDEST PUSH2 0xBA9 PUSH2 0x1223 JUMP JUMPDEST PUSH2 0xBB1 PUSH2 0x12E9 JUMP JUMPDEST ISZERO ISZERO PUSH1 0x1 EQ PUSH2 0xC02 JUMPI PUSH1 0x40 MLOAD PUSH3 0x461BCD PUSH1 0xE5 SHL DUP2 MSTORE PUSH1 0x20 PUSH1 0x4 DUP3 ADD MSTORE PUSH1 0x18 PUSH1 0x24 DUP3 ADD MSTORE PUSH32 0x536561736F6E20686173206E6F7420656E646564207965740000000000000000 PUSH1 0x44 DUP3 ADD MSTORE PUSH1 0x64 ADD PUSH2 0x340 JUMP JUMPDEST DUP1 PUSH2 0xC3C JUMPI PUSH1 0x40 MLOAD PUSH3 0x461BCD PUSH1 0xE5 SHL DUP2 MSTORE PUSH1 0x20 PUSH1 0x4 DUP3 ADD MSTORE PUSH1 0xA PUSH1 0x24 DUP3 ADD MSTORE PUSH10 0x4E6F2077696E6E657273 PUSH1 0xB0 SHL PUSH1 0x44 DUP3 ADD MSTORE PUSH1 0x64 ADD PUSH2 0x340 JUMP JUMPDEST PUSH1 0x0 DUP1 PUSH1 0x0 JUMPDEST DUP4 DUP2 LT ISZERO PUSH2 0xF3B JUMPI PUSH1 0x0 JUMPDEST PUSH1 0x1 PUSH1 0x0 DUP8 DUP8 DUP6 DUP2 DUP2 LT PUSH2 0xC63 JUMPI PUSH2 0xC63 PUSH2 0x1418 JUMP JUMPDEST SWAP1 POP PUSH1 0x20 MUL ADD PUSH1 0x20 DUP2 ADD SWAP1 PUSH2 0xC78 SWAP2 SWAP1 PUSH2 0x1330 JUMP JUMPDEST PUSH1 0x1 PUSH1 0x1 PUSH1 0xA0 SHL SUB AND DUP2 MSTORE PUSH1 0x20 DUP2 ADD SWAP2 SWAP1 SWAP2 MSTORE PUSH1 0x40 ADD PUSH1 0x0 KECCAK256 SLOAD DUP2 LT ISZERO PUSH2 0xF28 JUMPI PUSH1 0x1 PUSH1 0x0 DUP8 DUP8 DUP6 DUP2 DUP2 LT PUSH2 0xCAF JUMPI PUSH2 0xCAF PUSH2 0x1418 JUMP JUMPDEST SWAP1 POP PUSH1 0x20 MUL ADD PUSH1 0x20 DUP2 ADD SWAP1 PUSH2 0xCC4 SWAP2 SWAP1 PUSH2 0x1330 JUMP JUMPDEST PUSH1 0x1 PUSH1 0x1 PUSH1 0xA0 SHL SUB AND PUSH1 0x1 PUSH1 0x1 PUSH1 0xA0 SHL SUB AND DUP2 MSTORE PUSH1 0x20 ADD SWAP1 DUP2 MSTORE PUSH1 0x20 ADD PUSH1 0x0 KECCAK256 DUP2 DUP2 SLOAD DUP2 LT PUSH2 0xCF5 JUMPI PUSH2 0xCF5 PUSH2 0x1418 JUMP JUMPDEST SWAP1 PUSH1 0x0 MSTORE PUSH1 0x20 PUSH1 0x0 KECCAK256 SWAP1 PUSH1 0x3 MUL ADD PUSH1 0x0 ADD SLOAD DUP5 PUSH2 0xD12 SWAP2 SWAP1 PUSH2 0x1444 JUMP JUMPDEST SWAP4 POP PUSH1 0x1 PUSH1 0x0 DUP8 DUP8 DUP6 DUP2 DUP2 LT PUSH2 0xD2A JUMPI PUSH2 0xD2A PUSH2 0x1418 JUMP JUMPDEST SWAP1 POP PUSH1 0x20 MUL ADD PUSH1 0x20 DUP2 ADD SWAP1 PUSH2 0xD3F SWAP2 SWAP1 PUSH2 0x1330 JUMP JUMPDEST PUSH1 0x1 PUSH1 0x1 PUSH1 0xA0 SHL SUB AND PUSH1 0x1 PUSH1 0x1 PUSH1 0xA0 SHL SUB AND DUP2 MSTORE PUSH1 0x20 ADD SWAP1 DUP2 MSTORE PUSH1 0x20 ADD PUSH1 0x0 KECCAK256 DUP2 DUP2 SLOAD DUP2 LT PUSH2 0xD70 JUMPI PUSH2 0xD70 PUSH2 0x1418 JUMP JUMPDEST SWAP1 PUSH1 0x0 MSTORE PUSH1 0x20 PUSH1 0x0 KECCAK256 SWAP1 PUSH1 0x3 MUL ADD PUSH1 0x2 ADD SLOAD PUSH1 0x1 PUSH1 0x0 DUP9 DUP9 DUP7 DUP2 DUP2 LT PUSH2 0xD98 JUMPI PUSH2 0xD98 PUSH2 0x1418 JUMP JUMPDEST SWAP1 POP PUSH1 0x20 MUL ADD PUSH1 0x20 DUP2 ADD SWAP1 PUSH2 0xDAD SWAP2 SWAP1 PUSH2 0x1330 JUMP JUMPDEST PUSH1 0x1 PUSH1 0x1 PUSH1 0xA0 SHL SUB AND PUSH1 0x1 PUSH1 0x1 PUSH1 0xA0 SHL SUB AND DUP2 MSTORE PUSH1 0x20 ADD SWAP1 DUP2 MSTORE PUSH1 0x20 ADD PUSH1 0x0 KECCAK256 DUP3 DUP2 SLOAD DUP2 LT PUSH2 0xDDE JUMPI PUSH2 0xDDE PUSH2 0x1418 JUMP JUMPDEST SWAP1 PUSH1 0x0 MSTORE PUSH1 0x20 PUSH1 0x0 KECCAK256 SWAP1 PUSH1 0x3 MUL ADD PUSH1 0x0 ADD SLOAD PUSH2 0xDFA SWAP2 SWAP1 PUSH2 0x148C JUMP JUMPDEST PUSH2 0xE04 SWAP1 DUP5 PUSH2 0x1444 JUMP JUMPDEST SWAP3 POP PUSH1 0x1 PUSH1 0x0 DUP8 DUP8 DUP6 DUP2 DUP2 LT PUSH2 0xE1C JUMPI PUSH2 0xE1C PUSH2 0x1418 JUMP JUMPDEST SWAP1 POP PUSH1 0x20 MUL ADD PUSH1 0x20 DUP2 ADD SWAP1 PUSH2 0xE31 SWAP2 SWAP1 PUSH2 0x1330 JUMP JUMPDEST PUSH1 0x1 PUSH1 0x1 PUSH1 0xA0 SHL SUB AND PUSH1 0x1 PUSH1 0x1 PUSH1 0xA0 SHL SUB AND DUP2 MSTORE PUSH1 0x20 ADD SWAP1 DUP2 MSTORE PUSH1 0x20 ADD PUSH1 0x0 KECCAK256 DUP2 DUP2 SLOAD DUP2 LT PUSH2 0xE62 JUMPI PUSH2 0xE62 PUSH2 0x1418 JUMP JUMPDEST PUSH1 0x0 SWAP2 DUP3 MSTORE PUSH1 0x20 DUP3 KECCAK256 PUSH1 0x1 PUSH1 0x3 SWAP1 SWAP3 MUL ADD DUP2 ADD SLOAD PUSH1 0x1 PUSH1 0x1 PUSH1 0xA0 SHL SUB AND SWAP2 PUSH2 0x8FC SWAP2 SWAP1 DUP10 DUP10 DUP8 DUP2 DUP2 LT PUSH2 0xE97 JUMPI PUSH2 0xE97 PUSH2 0x1418 JUMP JUMPDEST SWAP1 POP PUSH1 0x20 MUL ADD PUSH1 0x20 DUP2 ADD SWAP1 PUSH2 0xEAC SWAP2 SWAP1 PUSH2 0x1330 JUMP JUMPDEST PUSH1 0x1 PUSH1 0x1 PUSH1 0xA0 SHL SUB AND PUSH1 0x1 PUSH1 0x1 PUSH1 0xA0 SHL SUB AND DUP2 MSTORE PUSH1 0x20 ADD SWAP1 DUP2 MSTORE PUSH1 0x20 ADD PUSH1 0x0 KECCAK256 DUP4 DUP2 SLOAD DUP2 LT PUSH2 0xEDD JUMPI PUSH2 0xEDD PUSH2 0x1418 JUMP JUMPDEST PUSH1 0x0 SWAP2 DUP3 MSTORE PUSH1 0x20 DUP3 KECCAK256 PUSH1 0x3 SWAP1 SWAP2 MUL ADD SLOAD PUSH1 0x40 MLOAD DUP2 ISZERO SWAP1 SWAP4 MUL SWAP3 SWAP1 SWAP2 DUP2 DUP2 DUP2 DUP6 DUP9 DUP9 CALL SWAP4 POP POP POP POP ISZERO DUP1 ISZERO PUSH2 0xF15 JUMPI RETURNDATASIZE PUSH1 0x0 DUP1 RETURNDATACOPY RETURNDATASIZE PUSH1 0x0 REVERT JUMPDEST POP DUP1 PUSH2 0xF20 DUP2 PUSH2 0x145C JUMP JUMPDEST SWAP2 POP POP PUSH2 0xC4D JUMP JUMPDEST POP DUP1 PUSH2 0xF33 DUP2 PUSH2 0x145C JUMP JUMPDEST SWAP2 POP POP PUSH2 0xC42 JUMP JUMPDEST POP PUSH1 0x0 DUP3 PUSH1 0x2 SLOAD PUSH2 0xF4C SWAP2 SWAP1 PUSH2 0x1475 JUMP JUMPDEST SWAP1 POP PUSH1 0x0 JUMPDEST DUP5 DUP2 LT ISZERO PUSH2 0x1169 JUMPI PUSH1 0x0 JUMPDEST PUSH1 0x1 PUSH1 0x0 DUP9 DUP9 DUP6 DUP2 DUP2 LT PUSH2 0xF72 JUMPI PUSH2 0xF72 PUSH2 0x1418 JUMP JUMPDEST SWAP1 POP PUSH1 0x20 MUL ADD PUSH1 0x20 DUP2 ADD SWAP1 PUSH2 0xF87 SWAP2 SWAP1 PUSH2 0x1330 JUMP JUMPDEST PUSH1 0x1 PUSH1 0x1 PUSH1 0xA0 SHL SUB AND DUP2 MSTORE PUSH1 0x20 DUP2 ADD SWAP2 SWAP1 SWAP2 MSTORE PUSH1 0x40 ADD PUSH1 0x0 KECCAK256 SLOAD DUP2 LT ISZERO PUSH2 0x1156 JUMPI PUSH1 0x0 DUP5 PUSH1 0x1 PUSH1 0x0 DUP11 DUP11 DUP8 DUP2 DUP2 LT PUSH2 0xFC1 JUMPI PUSH2 0xFC1 PUSH2 0x1418 JUMP JUMPDEST SWAP1 POP PUSH1 0x20 MUL ADD PUSH1 0x20 DUP2 ADD SWAP1 PUSH2 0xFD6 SWAP2 SWAP1 PUSH2 0x1330 JUMP JUMPDEST PUSH1 0x1 PUSH1 0x1 PUSH1 0xA0 SHL SUB AND PUSH1 0x1 PUSH1 0x1 PUSH1 0xA0 SHL SUB AND DUP2 MSTORE PUSH1 0x20 ADD SWAP1 DUP2 MSTORE PUSH1 0x20 ADD PUSH1 0x0 KECCAK256 DUP4 DUP2 SLOAD DUP2 LT PUSH2 0x1007 JUMPI PUSH2 0x1007 PUSH2 0x1418 JUMP JUMPDEST SWAP1 PUSH1 0x0 MSTORE PUSH1 0x20 PUSH1 0x0 KECCAK256 SWAP1 PUSH1 0x3 MUL ADD PUSH1 0x2 ADD SLOAD PUSH1 0x1 PUSH1 0x0 DUP12 DUP12 DUP9 DUP2 DUP2 LT PUSH2 0x102F JUMPI PUSH2 0x102F PUSH2 0x1418 JUMP JUMPDEST SWAP1 POP PUSH1 0x20 MUL ADD PUSH1 0x20 DUP2 ADD SWAP1 PUSH2 0x1044 SWAP2 SWAP1 PUSH2 0x1330 JUMP JUMPDEST PUSH1 0x1 PUSH1 0x1 PUSH1 0xA0 SHL SUB AND PUSH1 0x1 PUSH1 0x1 PUSH1 0xA0 SHL SUB AND DUP2 MSTORE PUSH1 0x20 ADD SWAP1 DUP2 MSTORE PUSH1 0x20 ADD PUSH1 0x0 KECCAK256 DUP5 DUP2 SLOAD DUP2 LT PUSH2 0x1075 JUMPI PUSH2 0x1075 PUSH2 0x1418 JUMP JUMPDEST SWAP1 PUSH1 0x0 MSTORE PUSH1 0x20 PUSH1 0x0 KECCAK256 SWAP1 PUSH1 0x3 MUL ADD PUSH1 0x0 ADD SLOAD PUSH2 0x1091 SWAP2 SWAP1 PUSH2 0x148C JUMP JUMPDEST PUSH2 0x109B SWAP2 SWAP1 PUSH2 0x14AB JUMP JUMPDEST SWAP1 POP PUSH1 0x1 PUSH1 0x0 DUP10 DUP10 DUP7 DUP2 DUP2 LT PUSH2 0x10B3 JUMPI PUSH2 0x10B3 PUSH2 0x1418 JUMP JUMPDEST SWAP1 POP PUSH1 0x20 MUL ADD PUSH1 0x20 DUP2 ADD SWAP1 PUSH2 0x10C8 SWAP2 SWAP1 PUSH2 0x1330 JUMP JUMPDEST PUSH1 0x1 PUSH1 0x1 PUSH1 0xA0 SHL SUB AND PUSH1 0x1 PUSH1 0x1 PUSH1 0xA0 SHL SUB AND DUP2 MSTORE PUSH1 0x20 ADD SWAP1 DUP2 MSTORE PUSH1 0x20 ADD PUSH1 0x0 KECCAK256 DUP3 DUP2 SLOAD DUP2 LT PUSH2 0x10F9 JUMPI PUSH2 0x10F9 PUSH2 0x1418 JUMP JUMPDEST PUSH1 0x0 SWAP2 DUP3 MSTORE PUSH1 0x20 DUP3 KECCAK256 PUSH1 0x1 PUSH1 0x3 SWAP1 SWAP3 MUL ADD ADD SLOAD PUSH1 0x40 MLOAD PUSH1 0x1 PUSH1 0x1 PUSH1 0xA0 SHL SUB SWAP1 SWAP2 AND SWAP2 DUP4 ISZERO PUSH2 0x8FC MUL SWAP2 DUP5 SWAP2 DUP2 DUP2 DUP2 DUP6 DUP9 DUP9 CALL SWAP4 POP POP POP POP ISZERO DUP1 ISZERO PUSH2 0x1141 JUMPI RETURNDATASIZE PUSH1 0x0 DUP1 RETURNDATACOPY RETURNDATASIZE PUSH1 0x0 REVERT JUMPDEST POP POP DUP1 DUP1 PUSH2 0x114E SWAP1 PUSH2 0x145C JUMP JUMPDEST SWAP2 POP POP PUSH2 0xF5C JUMP JUMPDEST POP DUP1 PUSH2 0x1161 DUP2 PUSH2 0x145C JUMP JUMPDEST SWAP2 POP POP PUSH2 0xF51 JUMP JUMPDEST POP PUSH1 0x40 DUP1 MLOAD DUP5 DUP2 MSTORE PUSH1 0x20 DUP2 ADD DUP4 SWAP1 MSTORE PUSH32 0xAAB486D08BA4354BC306D331550B5CC792A6300A36272D36F825C8C4711D015A SWAP2 ADD PUSH1 0x40 MLOAD DUP1 SWAP2 SUB SWAP1 LOG1 POP POP POP POP POP JUMP JUMPDEST PUSH2 0x11B2 PUSH2 0x1223 JUMP JUMPDEST PUSH1 0x1 PUSH1 0x1 PUSH1 0xA0 SHL SUB DUP2 AND PUSH2 0x1217 JUMPI PUSH1 0x40 MLOAD PUSH3 0x461BCD PUSH1 0xE5 SHL DUP2 MSTORE PUSH1 0x20 PUSH1 0x4 DUP3 ADD MSTORE PUSH1 0x26 PUSH1 0x24 DUP3 ADD MSTORE PUSH32 0x4F776E61626C653A206E6577206F776E657220697320746865207A65726F2061 PUSH1 0x44 DUP3 ADD MSTORE PUSH6 0x646472657373 PUSH1 0xD0 SHL PUSH1 0x64 DUP3 ADD MSTORE PUSH1 0x84 ADD PUSH2 0x340 JUMP JUMPDEST PUSH2 0x1220 DUP2 PUSH2 0x1299 JUMP JUMPDEST POP JUMP JUMPDEST PUSH1 0x0 SLOAD PUSH1 0x1 PUSH1 0x1 PUSH1 0xA0 SHL SUB AND CALLER EQ PUSH2 0x4F8 JUMPI PUSH1 0x40 MLOAD PUSH3 0x461BCD PUSH1 0xE5 SHL DUP2 MSTORE PUSH1 0x20 PUSH1 0x4 DUP3 ADD DUP2 SWAP1 MSTORE PUSH1 0x24 DUP3 ADD MSTORE PUSH32 0x4F776E61626C653A2063616C6C6572206973206E6F7420746865206F776E6572 PUSH1 0x44 DUP3 ADD MSTORE PUSH1 0x64 ADD PUSH2 0x340 JUMP JUMPDEST PUSH1 0x0 PUSH1 0x3 SLOAD PUSH1 0x0 EQ ISZERO DUP1 ISZERO PUSH2 0x1294 JUMPI POP PUSH1 0x3 SLOAD TIMESTAMP LT ISZERO JUMPDEST SWAP1 POP SWAP1 JUMP JUMPDEST PUSH1 0x0 DUP1 SLOAD PUSH1 0x1 PUSH1 0x1 PUSH1 0xA0 SHL SUB DUP4 DUP2 AND PUSH1 0x1 PUSH1 0x1 PUSH1 0xA0 SHL SUB NOT DUP4 AND DUP2 OR DUP5 SSTORE PUSH1 0x40 MLOAD SWAP2 SWAP1 SWAP3 AND SWAP3 DUP4 SWAP2 PUSH32 0x8BE0079C531659141344CD1FD0A4F28419497F9722A3DAAFE3B4186F6B6457E0 SWAP2 SWAP1 LOG3 POP POP JUMP JUMPDEST PUSH1 0x0 PUSH1 0x4 SLOAD PUSH1 0x0 EQ ISZERO DUP1 ISZERO PUSH2 0x1294 JUMPI POP POP PUSH1 0x4 SLOAD TIMESTAMP LT ISZERO SWAP1 JUMP JUMPDEST PUSH1 0x0 DUP2 DUP4 LT PUSH2 0x1312 JUMPI DUP2 PUSH2 0x1314 JUMP JUMPDEST DUP3 JUMPDEST SWAP4 SWAP3 POP POP POP JUMP JUMPDEST PUSH1 0x1 PUSH1 0x1 PUSH1 0xA0 SHL SUB DUP2 AND DUP2 EQ PUSH2 0x1220 JUMPI PUSH1 0x0 DUP1 REVERT JUMPDEST PUSH1 0x0 PUSH1 0x20 DUP3 DUP5 SUB SLT ISZERO PUSH2 0x1342 JUMPI PUSH1 0x0 DUP1 REVERT JUMPDEST DUP2 CALLDATALOAD PUSH2 0x1314 DUP2 PUSH2 0x131B JUMP JUMPDEST PUSH1 0x0 PUSH1 0x20 DUP3 DUP5 SUB SLT ISZERO PUSH2 0x135F JUMPI PUSH1 0x0 DUP1 REVERT JUMPDEST POP CALLDATALOAD SWAP2 SWAP1 POP JUMP JUMPDEST PUSH1 0x0 DUP1 PUSH1 0x0 DUP1 PUSH1 0x80 DUP6 DUP8 SUB SLT ISZERO PUSH2 0x137C JUMPI PUSH1 0x0 DUP1 REVERT JUMPDEST DUP5 CALLDATALOAD SWAP4 POP PUSH1 0x20 DUP6 ADD CALLDATALOAD PUSH2 0x138E DUP2 PUSH2 0x131B JUMP JUMPDEST SWAP4 SWAP7 SWAP4 SWAP6 POP POP POP POP PUSH1 0x40 DUP3 ADD CALLDATALOAD SWAP2 PUSH1 0x60 ADD CALLDATALOAD SWAP1 JUMP JUMPDEST PUSH1 0x0 DUP1 PUSH1 0x20 DUP4 DUP6 SUB SLT ISZERO PUSH2 0x13B6 JUMPI PUSH1 0x0 DUP1 REVERT JUMPDEST DUP3 CALLDATALOAD PUSH8 0xFFFFFFFFFFFFFFFF DUP1 DUP3 GT ISZERO PUSH2 0x13CE JUMPI PUSH1 0x0 DUP1 REVERT JUMPDEST DUP2 DUP6 ADD SWAP2 POP DUP6 PUSH1 0x1F DUP4 ADD SLT PUSH2 0x13E2 JUMPI PUSH1 0x0 DUP1 REVERT JUMPDEST DUP2 CALLDATALOAD DUP2 DUP2 GT ISZERO PUSH2 0x13F1 JUMPI PUSH1 0x0 DUP1 REVERT JUMPDEST DUP7 PUSH1 0x20 DUP3 PUSH1 0x5 SHL DUP6 ADD ADD GT ISZERO PUSH2 0x1406 JUMPI PUSH1 0x0 DUP1 REVERT JUMPDEST PUSH1 0x20 SWAP3 SWAP1 SWAP3 ADD SWAP7 SWAP2 SWAP6 POP SWAP1 SWAP4 POP POP POP POP JUMP JUMPDEST PUSH4 0x4E487B71 PUSH1 0xE0 SHL PUSH1 0x0 MSTORE PUSH1 0x32 PUSH1 0x4 MSTORE PUSH1 0x24 PUSH1 0x0 REVERT JUMPDEST PUSH4 0x4E487B71 PUSH1 0xE0 SHL PUSH1 0x0 MSTORE PUSH1 0x11 PUSH1 0x4 MSTORE PUSH1 0x24 PUSH1 0x0 REVERT JUMPDEST PUSH1 0x0 DUP3 NOT DUP3 GT ISZERO PUSH2 0x1457 JUMPI PUSH2 0x1457 PUSH2 0x142E JUMP JUMPDEST POP ADD SWAP1 JUMP JUMPDEST PUSH1 0x0 PUSH1 0x1 DUP3 ADD PUSH2 0x146E JUMPI PUSH2 0x146E PUSH2 0x142E JUMP JUMPDEST POP PUSH1 0x1 ADD SWAP1 JUMP JUMPDEST PUSH1 0x0 DUP3 DUP3 LT ISZERO PUSH2 0x1487 JUMPI PUSH2 0x1487 PUSH2 0x142E JUMP JUMPDEST POP SUB SWAP1 JUMP JUMPDEST PUSH1 0x0 DUP2 PUSH1 0x0 NOT DIV DUP4 GT DUP3 ISZERO ISZERO AND ISZERO PUSH2 0x14A6 JUMPI PUSH2 0x14A6 PUSH2 0x142E JUMP JUMPDEST POP MUL SWAP1 JUMP JUMPDEST PUSH1 0x0 DUP3 PUSH2 0x14C8 JUMPI PUSH4 0x4E487B71 PUSH1 0xE0 SHL PUSH1 0x0 MSTORE PUSH1 0x12 PUSH1 0x4 MSTORE PUSH1 0x24 PUSH1 0x0 REVERT JUMPDEST POP DIV SWAP1 JUMP INVALID LOG2 PUSH5 0x6970667358 0x22 SLT KECCAK256 PUSH28 0x47194EA8B83F1EF2BF7A680DF6F55A7E1CDFB691E1FF4042DBEE5D95 DUP11 DUP5 0xED PUSH5 0x736F6C6343 STOP ADDMOD 0xD STOP CALLER "},"methodIdentifiers":{"distributeRewards(address[])":"c5a55152","endSeason()":"3dcdb672","makeBets(uint256,address,uint256,uint256)":"750b8fb1","owner()":"8da5cb5b","renounceOwnership()":"715018a6","resetEntryFee(uint256)":"66bb9d43","resetMaxiumBetAmount(uint256)":"65b94d4c","resetMinimumBetAmount(uint256)":"0dc81e07","startSeason(uint256)":"703dbfe4","totalBets()":"befa1e2f","totalBetsforPlayer(address)":"09352f8d","transferOwnership(address)":"f2fde38b","withdrawManagementFee(address)":"9c239aad"}}}}}