{"contracts/bettingMarket.sol":{"bettingMarket":{"abi":[{"inputs":[],"stateMutability":"nonpayable","type":"constructor"},{"anonymous":false,"inputs":[{"indexed":true,"internalType":"address","name":"player","type":"address"},{"indexed":false,"internalType":"uint256","name":"betAmount","type":"uint256"},{"indexed":false,"internalType":"uint256","name":"buyPrice","type":"uint256"}],"name":"BetBought","type":"event"},{"anonymous":false,"inputs":[{"indexed":true,"internalType":"address","name":"player","type":"address"},{"indexed":false,"internalType":"uint256","name":"betAmount","type":"uint256"},{"indexed":false,"internalType":"uint256","name":"betTimeStamp","type":"uint256"}],"name":"BetMade","type":"event"},{"anonymous":false,"inputs":[{"indexed":true,"internalType":"address","name":"player","type":"address"},{"indexed":false,"internalType":"uint256","name":"betAmount","type":"uint256"},{"indexed":false,"internalType":"uint256","name":"sellPrice","type":"uint256"}],"name":"BetSold","type":"event"},{"anonymous":false,"inputs":[{"indexed":false,"internalType":"address","name":"withdrawer","type":"address"},{"indexed":false,"internalType":"address","name":"to","type":"address"},{"indexed":false,"internalType":"uint256","name":"amount","type":"uint256"}],"name":"ManagementFeeWithdrawn","type":"event"},{"anonymous":false,"inputs":[{"indexed":true,"internalType":"address","name":"previousOwner","type":"address"},{"indexed":true,"internalType":"address","name":"newOwner","type":"address"}],"name":"OwnershipTransferred","type":"event"},{"anonymous":false,"inputs":[{"indexed":false,"internalType":"uint256","name":"totalBetsonLosers","type":"uint256"}],"name":"PrizePoolDistributed","type":"event"},{"anonymous":false,"inputs":[{"indexed":false,"internalType":"uint256","name":"seasonEndTimestamp","type":"uint256"}],"name":"SeasonEnded","type":"event"},{"anonymous":false,"inputs":[{"indexed":false,"internalType":"uint256","name":"seasonStartTimestamp","type":"uint256"}],"name":"SeasonStarted","type":"event"},{"inputs":[{"internalType":"address payable[]","name":"winnerPlayers","type":"address[]"}],"name":"distributeRewards","outputs":[],"stateMutability":"nonpayable","type":"function"},{"inputs":[],"name":"endSeason","outputs":[],"stateMutability":"nonpayable","type":"function"},{"inputs":[],"name":"getTotalBets","outputs":[{"internalType":"uint256","name":"","type":"uint256"}],"stateMutability":"view","type":"function"},{"inputs":[{"internalType":"address","name":"player","type":"address"}],"name":"getTotalBetsforPlayer","outputs":[{"internalType":"uint256","name":"","type":"uint256"}],"stateMutability":"view","type":"function"},{"inputs":[],"name":"getTotalFees","outputs":[{"internalType":"uint256","name":"","type":"uint256"}],"stateMutability":"view","type":"function"},{"inputs":[],"name":"getseasonEndTimestamp","outputs":[{"internalType":"uint256","name":"","type":"uint256"}],"stateMutability":"view","type":"function"},{"inputs":[],"name":"getseasonStartTimestamp","outputs":[{"internalType":"uint256","name":"","type":"uint256"}],"stateMutability":"view","type":"function"},{"inputs":[{"internalType":"uint256","name":"amount","type":"uint256"},{"internalType":"address","name":"player","type":"address"}],"name":"makeBets","outputs":[],"stateMutability":"payable","type":"function"},{"inputs":[],"name":"owner","outputs":[{"internalType":"address","name":"","type":"address"}],"stateMutability":"view","type":"function"},{"inputs":[],"name":"renounceOwnership","outputs":[],"stateMutability":"nonpayable","type":"function"},{"inputs":[{"internalType":"uint256","name":"_entryFee","type":"uint256"}],"name":"resetEntryFee","outputs":[],"stateMutability":"nonpayable","type":"function"},{"inputs":[{"internalType":"uint256","name":"_maxBetAmount","type":"uint256"}],"name":"resetMaxiumBetAmount","outputs":[],"stateMutability":"nonpayable","type":"function"},{"inputs":[{"internalType":"uint256","name":"_minBetAmount","type":"uint256"}],"name":"resetMinimumBetAmount","outputs":[],"stateMutability":"nonpayable","type":"function"},{"inputs":[{"internalType":"uint256","name":"_seasonEndTimestamp","type":"uint256"}],"name":"startSeason","outputs":[],"stateMutability":"nonpayable","type":"function"},{"inputs":[{"internalType":"address","name":"newOwner","type":"address"}],"name":"transferOwnership","outputs":[],"stateMutability":"nonpayable","type":"function"},{"inputs":[{"internalType":"address payable","name":"to_","type":"address"}],"name":"withdrawManagementFee","outputs":[],"stateMutability":"nonpayable","type":"function"},{"stateMutability":"payable","type":"receive"}],"evm":{"bytecode":{"linkReferences":{},"object":"608060405234801561001057600080fd5b5061001a33610072565b60006005819055600655678ac7230489e8000060075567016345785d8a0000600855662386f26fc10000600955600280546001600160a01b03191673f5dca59461adfff5089be5068364ec10b86c2a881790556100c2565b600080546001600160a01b038381166001600160a01b0319831681178455604051919092169283917f8be0079c531659141344cd1fd0a4f28419497f9722a3daafe3b4186f6b6457e09190a35050565b61136a806100d16000396000f3fe6080604052600436106100f75760003560e01c806384fc62521161008a578063a70f7fc411610059578063a70f7fc414610263578063c5a5515214610278578063e4a2add514610298578063f2fde38b146102ad57600080fd5b806384fc6252146101f35780638da5cb5b146102065780639c239aad1461022e578063a3cb679d1461024e57600080fd5b806366bb9d43116100c657806366bb9d431461017e57806367fd81e71461019e578063703dbfe4146101be578063715018a6146101de57600080fd5b80630dc81e07146101035780633dcdb67214610125578063626e1ae71461013a57806365b94d4c1461015e57600080fd5b366100fe57005b600080fd5b34801561010f57600080fd5b5061012361011e36600461118f565b6102cd565b005b34801561013157600080fd5b506101236102da565b34801561014657600080fd5b506004545b6040519081526020015b60405180910390f35b34801561016a57600080fd5b5061012361017936600461118f565b6103c4565b34801561018a57600080fd5b5061012361019936600461118f565b6103d1565b3480156101aa57600080fd5b5061014b6101b93660046111bd565b6103de565b3480156101ca57600080fd5b506101236101d936600461118f565b610465565b3480156101ea57600080fd5b50610123610558565b6101236102013660046111da565b61056c565b34801561021257600080fd5b506000546040516001600160a01b039091168152602001610155565b34801561023a57600080fd5b506101236102493660046111bd565b610ade565b34801561025a57600080fd5b5060035461014b565b34801561026f57600080fd5b5060065461014b565b34801561028457600080fd5b5061012361029336600461120a565b610b68565b3480156102a457600080fd5b5060055461014b565b3480156102b957600080fd5b506101236102c83660046111bd565b611018565b6102d5611091565b600855565b6102e2611091565b6102ea6110eb565b6103345760405162461bcd60e51b815260206004820152601660248201527514d9585cdbdb881b9bdd081e595d081cdd185c9d195960521b60448201526064015b60405180910390fd5b60065442101561037d5760405162461bcd60e51b815260206004820152601460248201527314d9585cdbdb881b9bdd081e595d08195b99195960621b604482015260640161032b565b7f71b1ed1af5dc112f73a5ec9d0960e84a848b781220620ccc8fb91814ab3047be6006546040516103b091815260200190565b60405180910390a160006005819055600655565b6103cc611091565b600755565b6103d9611091565b600955565b600080805b6001600160a01b03841660009081526001602052604090205481101561045e576001600160a01b038416600090815260016020526040902080548290811061042d5761042d61127f565b9060005260206000209060030201600001548261044a91906112ab565b915080610456816112c3565b9150506103e3565b5092915050565b61046d611091565b6104756110eb565b156104bb5760405162461bcd60e51b815260206004820152601660248201527514d9585cdbdb88185b1c9958591e481cdd185c9d195960521b604482015260640161032b565b4281116105165760405162461bcd60e51b815260206004820152602360248201527f456e642074696d657374616d70206d75737420626520696e207468652066757460448201526275726560e81b606482015260840161032b565b42600581905560068290556040519081527fe2046d333900871694b2fb421975b907ac5d93052201a0e259fa0664d9dbdf1d906020015b60405180910390a150565b610560611091565b61056a6000611107565b565b6009548210156105ca5760405162461bcd60e51b815260206004820152602360248201527f42657420616d6f756e74206c6f776572207468616e2074686520656e7472792060448201526266656560e81b606482015260840161032b565b6008546009546105da90846112dc565b101561064e5760405162461bcd60e51b815260206004820152603e60248201527f42657420616d6f756e7420286d696e757320656e7472792066656529206c6f7760448201527f6572207468616e20746865206d696e696d756d2062657420616d6f756e740000606482015260840161032b565b60075460095461065e90846112dc565b11156106d25760405162461bcd60e51b815260206004820152603f60248201527f42657420616d6f756e7420286d696e757320656e74727920666565292068696760448201527f686572207468616e20746865206d6178696d756d2062657420616d6f756e7400606482015260840161032b565b6106da6110eb565b6107265760405162461bcd60e51b815260206004820152601a60248201527f536561736f6e20686173206e6f74207374617274656420796574000000000000604482015260640161032b565b61072e611157565b1561076e5760405162461bcd60e51b815260206004820152601060248201526f14d9585cdbdb881a185cc8195b99195960821b604482015260640161032b565b60095461077b90836112dc565b91506009546004600082825461079191906112ab565b92505081905550600042905060006107c663240c84006107c06003600554866107ba91906112dc565b90611170565b90611183565b6107d19060016112ab565b9050806000805b6001600160a01b0386166000908152600160205260409020548110156109fe576001600160a01b03861660009081526001602052604090208054339190839081106108255761082561127f565b60009182526020909120600160039092020101546001600160a01b0316036109ec5760006108538489611170565b6001600160a01b038816600090815260016020526040902080546108dd9190859081106108825761088261127f565b600091825260208083206003909202909101546001600160a01b038c168352600190915260409091208054869081106108bd576108bd61127f565b90600052602060002090600302016002015461117090919063ffffffff16565b6108e791906112ab565b905061094688600160008a6001600160a01b03166001600160a01b0316815260200190815260200160002084815481106109235761092361127f565b90600052602060002090600302016000015461093f91906112ab565b8290611183565b6001600160a01b03881660009081526001602052604090208054849081106109705761097061127f565b9060005260206000209060030201600201819055508760016000896001600160a01b03166001600160a01b0316815260200190815260200160002083815481106109bc576109bc61127f565b906000526020600020906003020160000160008282546109dc91906112ab565b90915550600193506109fe915050565b806109f6816112c3565b9150506107d8565b50801515600003610a7b57604080516060810182528781523360208083019182528284018681526001600160a01b038a8116600090815260018085529681208054808901825590825293902094516003909302909401918255915193810180546001600160a01b0319169490931693909317909155516002909101555b8560036000828254610a8d91906112ab565b909155505060408051878152602081018690526001600160a01b038716917faef4e091ec4a3800e3135934210edcf6949b208c449c51fe586e99d1700ba2c0910160405180910390a2505050505050565b610ae6611091565b6004546040516001600160a01b0383169180156108fc02916000818181858888f19350505050158015610b1d573d6000803e3d6000fd5b50600454604080513381526001600160a01b0384166020820152908101919091527f22f297e564c18c704898a0ed9e6e38f717d9b035aeb502b5855a5204d102faf29060600161054d565b610b70611091565b610b78611157565b1515600114610bc95760405162461bcd60e51b815260206004820152601860248201527f536561736f6e20686173206e6f7420656e646564207965740000000000000000604482015260640161032b565b80610c035760405162461bcd60e51b815260206004820152600a6024820152694e6f2077696e6e65727360b01b604482015260640161032b565b60008060005b83811015610df15760005b60016000878785818110610c2a57610c2a61127f565b9050602002016020810190610c3f91906111bd565b6001600160a01b03168152602081019190915260400160002054811015610dde57600060016000888886818110610c7857610c7861127f565b9050602002016020810190610c8d91906111bd565b6001600160a01b03166001600160a01b031681526020019081526020016000208281548110610cbe57610cbe61127f565b6000918252602091829020604080516060810182526003909302909101805480845260018201546001600160a01b031694840185905260029091015491830191909152909250610d0e90876112ab565b82516040840151919750610d229190611170565b610d2c90866112ab565b82516040519196506000916001600160a01b03841691908381818185875af1925050503d8060008114610d7b576040519150601f19603f3d011682016040523d82523d6000602084013e610d80565b606091505b5050905080610dc85760405162461bcd60e51b81526020600482015260146024820152732330b4b632b2103a379039b2b7321022ba3432b960611b604482015260640161032b565b5050508080610dd6906112c3565b915050610c14565b5080610de9816112c3565b915050610c09565b50600082600354610e0291906112dc565b905060005b84811015610fdd5760005b60016000888885818110610e2857610e2861127f565b9050602002016020810190610e3d91906111bd565b6001600160a01b03168152602081019190915260400160002054811015610fca57600060016000898986818110610e7657610e7661127f565b9050602002016020810190610e8b91906111bd565b6001600160a01b03166001600160a01b031681526020019081526020016000208281548110610ebc57610ebc61127f565b60009182526020808320604080516060810182526003909402909101805480855260018201546001600160a01b0316938501849052600290910154918401829052929450909291610f129189916107c091611170565b905060006001600160a01b038316610f2a8389611170565b604051600081818185875af1925050503d8060008114610f66576040519150601f19603f3d011682016040523d82523d6000602084013e610f6b565b606091505b5050905080610fb35760405162461bcd60e51b81526020600482015260146024820152732330b4b632b2103a379039b2b7321022ba3432b960611b604482015260640161032b565b505050508080610fc2906112c3565b915050610e12565b5080610fd5816112c3565b915050610e07565b506040518181527f159263e546a27ed7150662ad6422a52f7d9c8402c444a8e660367e46e1d719989060200160405180910390a15050505050565b611020611091565b6001600160a01b0381166110855760405162461bcd60e51b815260206004820152602660248201527f4f776e61626c653a206e6577206f776e657220697320746865207a65726f206160448201526564647265737360d01b606482015260840161032b565b61108e81611107565b50565b6000546001600160a01b0316331461056a5760405162461bcd60e51b815260206004820181905260248201527f4f776e61626c653a2063616c6c6572206973206e6f7420746865206f776e6572604482015260640161032b565b600060055460001415801561110257506005544210155b905090565b600080546001600160a01b038381166001600160a01b0319831681178455604051919092169283917f8be0079c531659141344cd1fd0a4f28419497f9722a3daafe3b4186f6b6457e09190a35050565b6000600654600014801561110257505060065442101590565b600061117c82846112f3565b9392505050565b600061117c8284611312565b6000602082840312156111a157600080fd5b5035919050565b6001600160a01b038116811461108e57600080fd5b6000602082840312156111cf57600080fd5b813561117c816111a8565b600080604083850312156111ed57600080fd5b8235915060208301356111ff816111a8565b809150509250929050565b6000806020838503121561121d57600080fd5b823567ffffffffffffffff8082111561123557600080fd5b818501915085601f83011261124957600080fd5b81358181111561125857600080fd5b8660208260051b850101111561126d57600080fd5b60209290920196919550909350505050565b634e487b7160e01b600052603260045260246000fd5b634e487b7160e01b600052601160045260246000fd5b600082198211156112be576112be611295565b500190565b6000600182016112d5576112d5611295565b5060010190565b6000828210156112ee576112ee611295565b500390565b600081600019048311821515161561130d5761130d611295565b500290565b60008261132f57634e487b7160e01b600052601260045260246000fd5b50049056fea2646970667358221220dffe3ac002cfec4eca95e29401232e31c924c3f1398df539b64bb9f1e657d43d64736f6c634300080d0033","opcodes":"PUSH1 0x80 PUSH1 0x40 MSTORE CALLVALUE DUP1 ISZERO PUSH2 0x10 JUMPI PUSH1 0x0 DUP1 REVERT JUMPDEST POP PUSH2 0x1A CALLER PUSH2 0x72 JUMP JUMPDEST PUSH1 0x0 PUSH1 0x5 DUP2 SWAP1 SSTORE PUSH1 0x6 SSTORE PUSH8 0x8AC7230489E80000 PUSH1 0x7 SSTORE PUSH8 0x16345785D8A0000 PUSH1 0x8 SSTORE PUSH7 0x2386F26FC10000 PUSH1 0x9 SSTORE PUSH1 0x2 DUP1 SLOAD PUSH1 0x1 PUSH1 0x1 PUSH1 0xA0 SHL SUB NOT AND PUSH20 0xF5DCA59461ADFFF5089BE5068364EC10B86C2A88 OR SWAP1 SSTORE PUSH2 0xC2 JUMP JUMPDEST PUSH1 0x0 DUP1 SLOAD PUSH1 0x1 PUSH1 0x1 PUSH1 0xA0 SHL SUB DUP4 DUP2 AND PUSH1 0x1 PUSH1 0x1 PUSH1 0xA0 SHL SUB NOT DUP4 AND DUP2 OR DUP5 SSTORE PUSH1 0x40 MLOAD SWAP2 SWAP1 SWAP3 AND SWAP3 DUP4 SWAP2 PUSH32 0x8BE0079C531659141344CD1FD0A4F28419497F9722A3DAAFE3B4186F6B6457E0 SWAP2 SWAP1 LOG3 POP POP JUMP JUMPDEST PUSH2 0x136A DUP1 PUSH2 0xD1 PUSH1 0x0 CODECOPY PUSH1 0x0 RETURN INVALID PUSH1 0x80 PUSH1 0x40 MSTORE PUSH1 0x4 CALLDATASIZE LT PUSH2 0xF7 JUMPI PUSH1 0x0 CALLDATALOAD PUSH1 0xE0 SHR DUP1 PUSH4 0x84FC6252 GT PUSH2 0x8A JUMPI DUP1 PUSH4 0xA70F7FC4 GT PUSH2 0x59 JUMPI DUP1 PUSH4 0xA70F7FC4 EQ PUSH2 0x263 JUMPI DUP1 PUSH4 0xC5A55152 EQ PUSH2 0x278 JUMPI DUP1 PUSH4 0xE4A2ADD5 EQ PUSH2 0x298 JUMPI DUP1 PUSH4 0xF2FDE38B EQ PUSH2 0x2AD JUMPI PUSH1 0x0 DUP1 REVERT JUMPDEST DUP1 PUSH4 0x84FC6252 EQ PUSH2 0x1F3 JUMPI DUP1 PUSH4 0x8DA5CB5B EQ PUSH2 0x206 JUMPI DUP1 PUSH4 0x9C239AAD EQ PUSH2 0x22E JUMPI DUP1 PUSH4 0xA3CB679D EQ PUSH2 0x24E JUMPI PUSH1 0x0 DUP1 REVERT JUMPDEST DUP1 PUSH4 0x66BB9D43 GT PUSH2 0xC6 JUMPI DUP1 PUSH4 0x66BB9D43 EQ PUSH2 0x17E JUMPI DUP1 PUSH4 0x67FD81E7 EQ PUSH2 0x19E JUMPI DUP1 PUSH4 0x703DBFE4 EQ PUSH2 0x1BE JUMPI DUP1 PUSH4 0x715018A6 EQ PUSH2 0x1DE JUMPI PUSH1 0x0 DUP1 REVERT JUMPDEST DUP1 PUSH4 0xDC81E07 EQ PUSH2 0x103 JUMPI DUP1 PUSH4 0x3DCDB672 EQ PUSH2 0x125 JUMPI DUP1 PUSH4 0x626E1AE7 EQ PUSH2 0x13A JUMPI DUP1 PUSH4 0x65B94D4C EQ PUSH2 0x15E JUMPI PUSH1 0x0 DUP1 REVERT JUMPDEST CALLDATASIZE PUSH2 0xFE JUMPI STOP JUMPDEST PUSH1 0x0 DUP1 REVERT JUMPDEST CALLVALUE DUP1 ISZERO PUSH2 0x10F JUMPI PUSH1 0x0 DUP1 REVERT JUMPDEST POP PUSH2 0x123 PUSH2 0x11E CALLDATASIZE PUSH1 0x4 PUSH2 0x118F JUMP JUMPDEST PUSH2 0x2CD JUMP JUMPDEST STOP JUMPDEST CALLVALUE DUP1 ISZERO PUSH2 0x131 JUMPI PUSH1 0x0 DUP1 REVERT JUMPDEST POP PUSH2 0x123 PUSH2 0x2DA JUMP JUMPDEST CALLVALUE DUP1 ISZERO PUSH2 0x146 JUMPI PUSH1 0x0 DUP1 REVERT JUMPDEST POP PUSH1 0x4 SLOAD JUMPDEST PUSH1 0x40 MLOAD SWAP1 DUP2 MSTORE PUSH1 0x20 ADD JUMPDEST PUSH1 0x40 MLOAD DUP1 SWAP2 SUB SWAP1 RETURN JUMPDEST CALLVALUE DUP1 ISZERO PUSH2 0x16A JUMPI PUSH1 0x0 DUP1 REVERT JUMPDEST POP PUSH2 0x123 PUSH2 0x179 CALLDATASIZE PUSH1 0x4 PUSH2 0x118F JUMP JUMPDEST PUSH2 0x3C4 JUMP JUMPDEST CALLVALUE DUP1 ISZERO PUSH2 0x18A JUMPI PUSH1 0x0 DUP1 REVERT JUMPDEST POP PUSH2 0x123 PUSH2 0x199 CALLDATASIZE PUSH1 0x4 PUSH2 0x118F JUMP JUMPDEST PUSH2 0x3D1 JUMP JUMPDEST CALLVALUE DUP1 ISZERO PUSH2 0x1AA JUMPI PUSH1 0x0 DUP1 REVERT JUMPDEST POP PUSH2 0x14B PUSH2 0x1B9 CALLDATASIZE PUSH1 0x4 PUSH2 0x11BD JUMP JUMPDEST PUSH2 0x3DE JUMP JUMPDEST CALLVALUE DUP1 ISZERO PUSH2 0x1CA JUMPI PUSH1 0x0 DUP1 REVERT JUMPDEST POP PUSH2 0x123 PUSH2 0x1D9 CALLDATASIZE PUSH1 0x4 PUSH2 0x118F JUMP JUMPDEST PUSH2 0x465 JUMP JUMPDEST CALLVALUE DUP1 ISZERO PUSH2 0x1EA JUMPI PUSH1 0x0 DUP1 REVERT JUMPDEST POP PUSH2 0x123 PUSH2 0x558 JUMP JUMPDEST PUSH2 0x123 PUSH2 0x201 CALLDATASIZE PUSH1 0x4 PUSH2 0x11DA JUMP JUMPDEST PUSH2 0x56C JUMP JUMPDEST CALLVALUE DUP1 ISZERO PUSH2 0x212 JUMPI PUSH1 0x0 DUP1 REVERT JUMPDEST POP PUSH1 0x0 SLOAD PUSH1 0x40 MLOAD PUSH1 0x1 PUSH1 0x1 PUSH1 0xA0 SHL SUB SWAP1 SWAP2 AND DUP2 MSTORE PUSH1 0x20 ADD PUSH2 0x155 JUMP JUMPDEST CALLVALUE DUP1 ISZERO PUSH2 0x23A JUMPI PUSH1 0x0 DUP1 REVERT JUMPDEST POP PUSH2 0x123 PUSH2 0x249 CALLDATASIZE PUSH1 0x4 PUSH2 0x11BD JUMP JUMPDEST PUSH2 0xADE JUMP JUMPDEST CALLVALUE DUP1 ISZERO PUSH2 0x25A JUMPI PUSH1 0x0 DUP1 REVERT JUMPDEST POP PUSH1 0x3 SLOAD PUSH2 0x14B JUMP JUMPDEST CALLVALUE DUP1 ISZERO PUSH2 0x26F JUMPI PUSH1 0x0 DUP1 REVERT JUMPDEST POP PUSH1 0x6 SLOAD PUSH2 0x14B JUMP JUMPDEST CALLVALUE DUP1 ISZERO PUSH2 0x284 JUMPI PUSH1 0x0 DUP1 REVERT JUMPDEST POP PUSH2 0x123 PUSH2 0x293 CALLDATASIZE PUSH1 0x4 PUSH2 0x120A JUMP JUMPDEST PUSH2 0xB68 JUMP JUMPDEST CALLVALUE DUP1 ISZERO PUSH2 0x2A4 JUMPI PUSH1 0x0 DUP1 REVERT JUMPDEST POP PUSH1 0x5 SLOAD PUSH2 0x14B JUMP JUMPDEST CALLVALUE DUP1 ISZERO PUSH2 0x2B9 JUMPI PUSH1 0x0 DUP1 REVERT JUMPDEST POP PUSH2 0x123 PUSH2 0x2C8 CALLDATASIZE PUSH1 0x4 PUSH2 0x11BD JUMP JUMPDEST PUSH2 0x1018 JUMP JUMPDEST PUSH2 0x2D5 PUSH2 0x1091 JUMP JUMPDEST PUSH1 0x8 SSTORE JUMP JUMPDEST PUSH2 0x2E2 PUSH2 0x1091 JUMP JUMPDEST PUSH2 0x2EA PUSH2 0x10EB JUMP JUMPDEST PUSH2 0x334 JUMPI PUSH1 0x40 MLOAD PUSH3 0x461BCD PUSH1 0xE5 SHL DUP2 MSTORE PUSH1 0x20 PUSH1 0x4 DUP3 ADD MSTORE PUSH1 0x16 PUSH1 0x24 DUP3 ADD MSTORE PUSH22 0x14D9585CDBDB881B9BDD081E595D081CDD185C9D1959 PUSH1 0x52 SHL PUSH1 0x44 DUP3 ADD MSTORE PUSH1 0x64 ADD JUMPDEST PUSH1 0x40 MLOAD DUP1 SWAP2 SUB SWAP1 REVERT JUMPDEST PUSH1 0x6 SLOAD TIMESTAMP LT ISZERO PUSH2 0x37D JUMPI PUSH1 0x40 MLOAD PUSH3 0x461BCD PUSH1 0xE5 SHL DUP2 MSTORE PUSH1 0x20 PUSH1 0x4 DUP3 ADD MSTORE PUSH1 0x14 PUSH1 0x24 DUP3 ADD MSTORE PUSH20 0x14D9585CDBDB881B9BDD081E595D08195B991959 PUSH1 0x62 SHL PUSH1 0x44 DUP3 ADD MSTORE PUSH1 0x64 ADD PUSH2 0x32B JUMP JUMPDEST PUSH32 0x71B1ED1AF5DC112F73A5EC9D0960E84A848B781220620CCC8FB91814AB3047BE PUSH1 0x6 SLOAD PUSH1 0x40 MLOAD PUSH2 0x3B0 SWAP2 DUP2 MSTORE PUSH1 0x20 ADD SWAP1 JUMP JUMPDEST PUSH1 0x40 MLOAD DUP1 SWAP2 SUB SWAP1 LOG1 PUSH1 0x0 PUSH1 0x5 DUP2 SWAP1 SSTORE PUSH1 0x6 SSTORE JUMP JUMPDEST PUSH2 0x3CC PUSH2 0x1091 JUMP JUMPDEST PUSH1 0x7 SSTORE JUMP JUMPDEST PUSH2 0x3D9 PUSH2 0x1091 JUMP JUMPDEST PUSH1 0x9 SSTORE JUMP JUMPDEST PUSH1 0x0 DUP1 DUP1 JUMPDEST PUSH1 0x1 PUSH1 0x1 PUSH1 0xA0 SHL SUB DUP5 AND PUSH1 0x0 SWAP1 DUP2 MSTORE PUSH1 0x1 PUSH1 0x20 MSTORE PUSH1 0x40 SWAP1 KECCAK256 SLOAD DUP2 LT ISZERO PUSH2 0x45E JUMPI PUSH1 0x1 PUSH1 0x1 PUSH1 0xA0 SHL SUB DUP5 AND PUSH1 0x0 SWAP1 DUP2 MSTORE PUSH1 0x1 PUSH1 0x20 MSTORE PUSH1 0x40 SWAP1 KECCAK256 DUP1 SLOAD DUP3 SWAP1 DUP2 LT PUSH2 0x42D JUMPI PUSH2 0x42D PUSH2 0x127F JUMP JUMPDEST SWAP1 PUSH1 0x0 MSTORE PUSH1 0x20 PUSH1 0x0 KECCAK256 SWAP1 PUSH1 0x3 MUL ADD PUSH1 0x0 ADD SLOAD DUP3 PUSH2 0x44A SWAP2 SWAP1 PUSH2 0x12AB JUMP JUMPDEST SWAP2 POP DUP1 PUSH2 0x456 DUP2 PUSH2 0x12C3 JUMP JUMPDEST SWAP2 POP POP PUSH2 0x3E3 JUMP JUMPDEST POP SWAP3 SWAP2 POP POP JUMP JUMPDEST PUSH2 0x46D PUSH2 0x1091 JUMP JUMPDEST PUSH2 0x475 PUSH2 0x10EB JUMP JUMPDEST ISZERO PUSH2 0x4BB JUMPI PUSH1 0x40 MLOAD PUSH3 0x461BCD PUSH1 0xE5 SHL DUP2 MSTORE PUSH1 0x20 PUSH1 0x4 DUP3 ADD MSTORE PUSH1 0x16 PUSH1 0x24 DUP3 ADD MSTORE PUSH22 0x14D9585CDBDB88185B1C9958591E481CDD185C9D1959 PUSH1 0x52 SHL PUSH1 0x44 DUP3 ADD MSTORE PUSH1 0x64 ADD PUSH2 0x32B JUMP JUMPDEST TIMESTAMP DUP2 GT PUSH2 0x516 JUMPI PUSH1 0x40 MLOAD PUSH3 0x461BCD PUSH1 0xE5 SHL DUP2 MSTORE PUSH1 0x20 PUSH1 0x4 DUP3 ADD MSTORE PUSH1 0x23 PUSH1 0x24 DUP3 ADD MSTORE PUSH32 0x456E642074696D657374616D70206D75737420626520696E2074686520667574 PUSH1 0x44 DUP3 ADD MSTORE PUSH3 0x757265 PUSH1 0xE8 SHL PUSH1 0x64 DUP3 ADD MSTORE PUSH1 0x84 ADD PUSH2 0x32B JUMP JUMPDEST TIMESTAMP PUSH1 0x5 DUP2 SWAP1 SSTORE PUSH1 0x6 DUP3 SWAP1 SSTORE PUSH1 0x40 MLOAD SWAP1 DUP2 MSTORE PUSH32 0xE2046D333900871694B2FB421975B907AC5D93052201A0E259FA0664D9DBDF1D SWAP1 PUSH1 0x20 ADD JUMPDEST PUSH1 0x40 MLOAD DUP1 SWAP2 SUB SWAP1 LOG1 POP JUMP JUMPDEST PUSH2 0x560 PUSH2 0x1091 JUMP JUMPDEST PUSH2 0x56A PUSH1 0x0 PUSH2 0x1107 JUMP JUMPDEST JUMP JUMPDEST PUSH1 0x9 SLOAD DUP3 LT ISZERO PUSH2 0x5CA JUMPI PUSH1 0x40 MLOAD PUSH3 0x461BCD PUSH1 0xE5 SHL DUP2 MSTORE PUSH1 0x20 PUSH1 0x4 DUP3 ADD MSTORE PUSH1 0x23 PUSH1 0x24 DUP3 ADD MSTORE PUSH32 0x42657420616D6F756E74206C6F776572207468616E2074686520656E74727920 PUSH1 0x44 DUP3 ADD MSTORE PUSH3 0x666565 PUSH1 0xE8 SHL PUSH1 0x64 DUP3 ADD MSTORE PUSH1 0x84 ADD PUSH2 0x32B JUMP JUMPDEST PUSH1 0x8 SLOAD PUSH1 0x9 SLOAD PUSH2 0x5DA SWAP1 DUP5 PUSH2 0x12DC JUMP JUMPDEST LT ISZERO PUSH2 0x64E JUMPI PUSH1 0x40 MLOAD PUSH3 0x461BCD PUSH1 0xE5 SHL DUP2 MSTORE PUSH1 0x20 PUSH1 0x4 DUP3 ADD MSTORE PUSH1 0x3E PUSH1 0x24 DUP3 ADD MSTORE PUSH32 0x42657420616D6F756E7420286D696E757320656E7472792066656529206C6F77 PUSH1 0x44 DUP3 ADD MSTORE PUSH32 0x6572207468616E20746865206D696E696D756D2062657420616D6F756E740000 PUSH1 0x64 DUP3 ADD MSTORE PUSH1 0x84 ADD PUSH2 0x32B JUMP JUMPDEST PUSH1 0x7 SLOAD PUSH1 0x9 SLOAD PUSH2 0x65E SWAP1 DUP5 PUSH2 0x12DC JUMP JUMPDEST GT ISZERO PUSH2 0x6D2 JUMPI PUSH1 0x40 MLOAD PUSH3 0x461BCD PUSH1 0xE5 SHL DUP2 MSTORE PUSH1 0x20 PUSH1 0x4 DUP3 ADD MSTORE PUSH1 0x3F PUSH1 0x24 DUP3 ADD MSTORE PUSH32 0x42657420616D6F756E7420286D696E757320656E747279206665652920686967 PUSH1 0x44 DUP3 ADD MSTORE PUSH32 0x686572207468616E20746865206D6178696D756D2062657420616D6F756E7400 PUSH1 0x64 DUP3 ADD MSTORE PUSH1 0x84 ADD PUSH2 0x32B JUMP JUMPDEST PUSH2 0x6DA PUSH2 0x10EB JUMP JUMPDEST PUSH2 0x726 JUMPI PUSH1 0x40 MLOAD PUSH3 0x461BCD PUSH1 0xE5 SHL DUP2 MSTORE PUSH1 0x20 PUSH1 0x4 DUP3 ADD MSTORE PUSH1 0x1A PUSH1 0x24 DUP3 ADD MSTORE PUSH32 0x536561736F6E20686173206E6F74207374617274656420796574000000000000 PUSH1 0x44 DUP3 ADD MSTORE PUSH1 0x64 ADD PUSH2 0x32B JUMP JUMPDEST PUSH2 0x72E PUSH2 0x1157 JUMP JUMPDEST ISZERO PUSH2 0x76E JUMPI PUSH1 0x40 MLOAD PUSH3 0x461BCD PUSH1 0xE5 SHL DUP2 MSTORE PUSH1 0x20 PUSH1 0x4 DUP3 ADD MSTORE PUSH1 0x10 PUSH1 0x24 DUP3 ADD MSTORE PUSH16 0x14D9585CDBDB881A185CC8195B991959 PUSH1 0x82 SHL PUSH1 0x44 DUP3 ADD MSTORE PUSH1 0x64 ADD PUSH2 0x32B JUMP JUMPDEST PUSH1 0x9 SLOAD PUSH2 0x77B SWAP1 DUP4 PUSH2 0x12DC JUMP JUMPDEST SWAP2 POP PUSH1 0x9 SLOAD PUSH1 0x4 PUSH1 0x0 DUP3 DUP3 SLOAD PUSH2 0x791 SWAP2 SWAP1 PUSH2 0x12AB JUMP JUMPDEST SWAP3 POP POP DUP2 SWAP1 SSTORE POP PUSH1 0x0 TIMESTAMP SWAP1 POP PUSH1 0x0 PUSH2 0x7C6 PUSH4 0x240C8400 PUSH2 0x7C0 PUSH1 0x3 PUSH1 0x5 SLOAD DUP7 PUSH2 0x7BA SWAP2 SWAP1 PUSH2 0x12DC JUMP JUMPDEST SWAP1 PUSH2 0x1170 JUMP JUMPDEST SWAP1 PUSH2 0x1183 JUMP JUMPDEST PUSH2 0x7D1 SWAP1 PUSH1 0x1 PUSH2 0x12AB JUMP JUMPDEST SWAP1 POP DUP1 PUSH1 0x0 DUP1 JUMPDEST PUSH1 0x1 PUSH1 0x1 PUSH1 0xA0 SHL SUB DUP7 AND PUSH1 0x0 SWAP1 DUP2 MSTORE PUSH1 0x1 PUSH1 0x20 MSTORE PUSH1 0x40 SWAP1 KECCAK256 SLOAD DUP2 LT ISZERO PUSH2 0x9FE JUMPI PUSH1 0x1 PUSH1 0x1 PUSH1 0xA0 SHL SUB DUP7 AND PUSH1 0x0 SWAP1 DUP2 MSTORE PUSH1 0x1 PUSH1 0x20 MSTORE PUSH1 0x40 SWAP1 KECCAK256 DUP1 SLOAD CALLER SWAP2 SWAP1 DUP4 SWAP1 DUP2 LT PUSH2 0x825 JUMPI PUSH2 0x825 PUSH2 0x127F JUMP JUMPDEST PUSH1 0x0 SWAP2 DUP3 MSTORE PUSH1 0x20 SWAP1 SWAP2 KECCAK256 PUSH1 0x1 PUSH1 0x3 SWAP1 SWAP3 MUL ADD ADD SLOAD PUSH1 0x1 PUSH1 0x1 PUSH1 0xA0 SHL SUB AND SUB PUSH2 0x9EC JUMPI PUSH1 0x0 PUSH2 0x853 DUP5 DUP10 PUSH2 0x1170 JUMP JUMPDEST PUSH1 0x1 PUSH1 0x1 PUSH1 0xA0 SHL SUB DUP9 AND PUSH1 0x0 SWAP1 DUP2 MSTORE PUSH1 0x1 PUSH1 0x20 MSTORE PUSH1 0x40 SWAP1 KECCAK256 DUP1 SLOAD PUSH2 0x8DD SWAP2 SWAP1 DUP6 SWAP1 DUP2 LT PUSH2 0x882 JUMPI PUSH2 0x882 PUSH2 0x127F JUMP JUMPDEST PUSH1 0x0 SWAP2 DUP3 MSTORE PUSH1 0x20 DUP1 DUP4 KECCAK256 PUSH1 0x3 SWAP1 SWAP3 MUL SWAP1 SWAP2 ADD SLOAD PUSH1 0x1 PUSH1 0x1 PUSH1 0xA0 SHL SUB DUP13 AND DUP4 MSTORE PUSH1 0x1 SWAP1 SWAP2 MSTORE PUSH1 0x40 SWAP1 SWAP2 KECCAK256 DUP1 SLOAD DUP7 SWAP1 DUP2 LT PUSH2 0x8BD JUMPI PUSH2 0x8BD PUSH2 0x127F JUMP JUMPDEST SWAP1 PUSH1 0x0 MSTORE PUSH1 0x20 PUSH1 0x0 KECCAK256 SWAP1 PUSH1 0x3 MUL ADD PUSH1 0x2 ADD SLOAD PUSH2 0x1170 SWAP1 SWAP2 SWAP1 PUSH4 0xFFFFFFFF AND JUMP JUMPDEST PUSH2 0x8E7 SWAP2 SWAP1 PUSH2 0x12AB JUMP JUMPDEST SWAP1 POP PUSH2 0x946 DUP9 PUSH1 0x1 PUSH1 0x0 DUP11 PUSH1 0x1 PUSH1 0x1 PUSH1 0xA0 SHL SUB AND PUSH1 0x1 PUSH1 0x1 PUSH1 0xA0 SHL SUB AND DUP2 MSTORE PUSH1 0x20 ADD SWAP1 DUP2 MSTORE PUSH1 0x20 ADD PUSH1 0x0 KECCAK256 DUP5 DUP2 SLOAD DUP2 LT PUSH2 0x923 JUMPI PUSH2 0x923 PUSH2 0x127F JUMP JUMPDEST SWAP1 PUSH1 0x0 MSTORE PUSH1 0x20 PUSH1 0x0 KECCAK256 SWAP1 PUSH1 0x3 MUL ADD PUSH1 0x0 ADD SLOAD PUSH2 0x93F SWAP2 SWAP1 PUSH2 0x12AB JUMP JUMPDEST DUP3 SWAP1 PUSH2 0x1183 JUMP JUMPDEST PUSH1 0x1 PUSH1 0x1 PUSH1 0xA0 SHL SUB DUP9 AND PUSH1 0x0 SWAP1 DUP2 MSTORE PUSH1 0x1 PUSH1 0x20 MSTORE PUSH1 0x40 SWAP1 KECCAK256 DUP1 SLOAD DUP5 SWAP1 DUP2 LT PUSH2 0x970 JUMPI PUSH2 0x970 PUSH2 0x127F JUMP JUMPDEST SWAP1 PUSH1 0x0 MSTORE PUSH1 0x20 PUSH1 0x0 KECCAK256 SWAP1 PUSH1 0x3 MUL ADD PUSH1 0x2 ADD DUP2 SWAP1 SSTORE POP DUP8 PUSH1 0x1 PUSH1 0x0 DUP10 PUSH1 0x1 PUSH1 0x1 PUSH1 0xA0 SHL SUB AND PUSH1 0x1 PUSH1 0x1 PUSH1 0xA0 SHL SUB AND DUP2 MSTORE PUSH1 0x20 ADD SWAP1 DUP2 MSTORE PUSH1 0x20 ADD PUSH1 0x0 KECCAK256 DUP4 DUP2 SLOAD DUP2 LT PUSH2 0x9BC JUMPI PUSH2 0x9BC PUSH2 0x127F JUMP JUMPDEST SWAP1 PUSH1 0x0 MSTORE PUSH1 0x20 PUSH1 0x0 KECCAK256 SWAP1 PUSH1 0x3 MUL ADD PUSH1 0x0 ADD PUSH1 0x0 DUP3 DUP3 SLOAD PUSH2 0x9DC SWAP2 SWAP1 PUSH2 0x12AB JUMP JUMPDEST SWAP1 SWAP2 SSTORE POP PUSH1 0x1 SWAP4 POP PUSH2 0x9FE SWAP2 POP POP JUMP JUMPDEST DUP1 PUSH2 0x9F6 DUP2 PUSH2 0x12C3 JUMP JUMPDEST SWAP2 POP POP PUSH2 0x7D8 JUMP JUMPDEST POP DUP1 ISZERO ISZERO PUSH1 0x0 SUB PUSH2 0xA7B JUMPI PUSH1 0x40 DUP1 MLOAD PUSH1 0x60 DUP2 ADD DUP3 MSTORE DUP8 DUP2 MSTORE CALLER PUSH1 0x20 DUP1 DUP4 ADD SWAP2 DUP3 MSTORE DUP3 DUP5 ADD DUP7 DUP2 MSTORE PUSH1 0x1 PUSH1 0x1 PUSH1 0xA0 SHL SUB DUP11 DUP2 AND PUSH1 0x0 SWAP1 DUP2 MSTORE PUSH1 0x1 DUP1 DUP6 MSTORE SWAP7 DUP2 KECCAK256 DUP1 SLOAD DUP1 DUP10 ADD DUP3 SSTORE SWAP1 DUP3 MSTORE SWAP4 SWAP1 KECCAK256 SWAP5 MLOAD PUSH1 0x3 SWAP1 SWAP4 MUL SWAP1 SWAP5 ADD SWAP2 DUP3 SSTORE SWAP2 MLOAD SWAP4 DUP2 ADD DUP1 SLOAD PUSH1 0x1 PUSH1 0x1 PUSH1 0xA0 SHL SUB NOT AND SWAP5 SWAP1 SWAP4 AND SWAP4 SWAP1 SWAP4 OR SWAP1 SWAP2 SSTORE MLOAD PUSH1 0x2 SWAP1 SWAP2 ADD SSTORE JUMPDEST DUP6 PUSH1 0x3 PUSH1 0x0 DUP3 DUP3 SLOAD PUSH2 0xA8D SWAP2 SWAP1 PUSH2 0x12AB JUMP JUMPDEST SWAP1 SWAP2 SSTORE POP POP PUSH1 0x40 DUP1 MLOAD DUP8 DUP2 MSTORE PUSH1 0x20 DUP2 ADD DUP7 SWAP1 MSTORE PUSH1 0x1 PUSH1 0x1 PUSH1 0xA0 SHL SUB DUP8 AND SWAP2 PUSH32 0xAEF4E091EC4A3800E3135934210EDCF6949B208C449C51FE586E99D1700BA2C0 SWAP2 ADD PUSH1 0x40 MLOAD DUP1 SWAP2 SUB SWAP1 LOG2 POP POP POP POP POP POP JUMP JUMPDEST PUSH2 0xAE6 PUSH2 0x1091 JUMP JUMPDEST PUSH1 0x4 SLOAD PUSH1 0x40 MLOAD PUSH1 0x1 PUSH1 0x1 PUSH1 0xA0 SHL SUB DUP4 AND SWAP2 DUP1 ISZERO PUSH2 0x8FC MUL SWAP2 PUSH1 0x0 DUP2 DUP2 DUP2 DUP6 DUP9 DUP9 CALL SWAP4 POP POP POP POP ISZERO DUP1 ISZERO PUSH2 0xB1D JUMPI RETURNDATASIZE PUSH1 0x0 DUP1 RETURNDATACOPY RETURNDATASIZE PUSH1 0x0 REVERT JUMPDEST POP PUSH1 0x4 SLOAD PUSH1 0x40 DUP1 MLOAD CALLER DUP2 MSTORE PUSH1 0x1 PUSH1 0x1 PUSH1 0xA0 SHL SUB DUP5 AND PUSH1 0x20 DUP3 ADD MSTORE SWAP1 DUP2 ADD SWAP2 SWAP1 SWAP2 MSTORE PUSH32 0x22F297E564C18C704898A0ED9E6E38F717D9B035AEB502B5855A5204D102FAF2 SWAP1 PUSH1 0x60 ADD PUSH2 0x54D JUMP JUMPDEST PUSH2 0xB70 PUSH2 0x1091 JUMP JUMPDEST PUSH2 0xB78 PUSH2 0x1157 JUMP JUMPDEST ISZERO ISZERO PUSH1 0x1 EQ PUSH2 0xBC9 JUMPI PUSH1 0x40 MLOAD PUSH3 0x461BCD PUSH1 0xE5 SHL DUP2 MSTORE PUSH1 0x20 PUSH1 0x4 DUP3 ADD MSTORE PUSH1 0x18 PUSH1 0x24 DUP3 ADD MSTORE PUSH32 0x536561736F6E20686173206E6F7420656E646564207965740000000000000000 PUSH1 0x44 DUP3 ADD MSTORE PUSH1 0x64 ADD PUSH2 0x32B JUMP JUMPDEST DUP1 PUSH2 0xC03 JUMPI PUSH1 0x40 MLOAD PUSH3 0x461BCD PUSH1 0xE5 SHL DUP2 MSTORE PUSH1 0x20 PUSH1 0x4 DUP3 ADD MSTORE PUSH1 0xA PUSH1 0x24 DUP3 ADD MSTORE PUSH10 0x4E6F2077696E6E657273 PUSH1 0xB0 SHL PUSH1 0x44 DUP3 ADD MSTORE PUSH1 0x64 ADD PUSH2 0x32B JUMP JUMPDEST PUSH1 0x0 DUP1 PUSH1 0x0 JUMPDEST DUP4 DUP2 LT ISZERO PUSH2 0xDF1 JUMPI PUSH1 0x0 JUMPDEST PUSH1 0x1 PUSH1 0x0 DUP8 DUP8 DUP6 DUP2 DUP2 LT PUSH2 0xC2A JUMPI PUSH2 0xC2A PUSH2 0x127F JUMP JUMPDEST SWAP1 POP PUSH1 0x20 MUL ADD PUSH1 0x20 DUP2 ADD SWAP1 PUSH2 0xC3F SWAP2 SWAP1 PUSH2 0x11BD JUMP JUMPDEST PUSH1 0x1 PUSH1 0x1 PUSH1 0xA0 SHL SUB AND DUP2 MSTORE PUSH1 0x20 DUP2 ADD SWAP2 SWAP1 SWAP2 MSTORE PUSH1 0x40 ADD PUSH1 0x0 KECCAK256 SLOAD DUP2 LT ISZERO PUSH2 0xDDE JUMPI PUSH1 0x0 PUSH1 0x1 PUSH1 0x0 DUP9 DUP9 DUP7 DUP2 DUP2 LT PUSH2 0xC78 JUMPI PUSH2 0xC78 PUSH2 0x127F JUMP JUMPDEST SWAP1 POP PUSH1 0x20 MUL ADD PUSH1 0x20 DUP2 ADD SWAP1 PUSH2 0xC8D SWAP2 SWAP1 PUSH2 0x11BD JUMP JUMPDEST PUSH1 0x1 PUSH1 0x1 PUSH1 0xA0 SHL SUB AND PUSH1 0x1 PUSH1 0x1 PUSH1 0xA0 SHL SUB AND DUP2 MSTORE PUSH1 0x20 ADD SWAP1 DUP2 MSTORE PUSH1 0x20 ADD PUSH1 0x0 KECCAK256 DUP3 DUP2 SLOAD DUP2 LT PUSH2 0xCBE JUMPI PUSH2 0xCBE PUSH2 0x127F JUMP JUMPDEST PUSH1 0x0 SWAP2 DUP3 MSTORE PUSH1 0x20 SWAP2 DUP3 SWAP1 KECCAK256 PUSH1 0x40 DUP1 MLOAD PUSH1 0x60 DUP2 ADD DUP3 MSTORE PUSH1 0x3 SWAP1 SWAP4 MUL SWAP1 SWAP2 ADD DUP1 SLOAD DUP1 DUP5 MSTORE PUSH1 0x1 DUP3 ADD SLOAD PUSH1 0x1 PUSH1 0x1 PUSH1 0xA0 SHL SUB AND SWAP5 DUP5 ADD DUP6 SWAP1 MSTORE PUSH1 0x2 SWAP1 SWAP2 ADD SLOAD SWAP2 DUP4 ADD SWAP2 SWAP1 SWAP2 MSTORE SWAP1 SWAP3 POP PUSH2 0xD0E SWAP1 DUP8 PUSH2 0x12AB JUMP JUMPDEST DUP3 MLOAD PUSH1 0x40 DUP5 ADD MLOAD SWAP2 SWAP8 POP PUSH2 0xD22 SWAP2 SWAP1 PUSH2 0x1170 JUMP JUMPDEST PUSH2 0xD2C SWAP1 DUP7 PUSH2 0x12AB JUMP JUMPDEST DUP3 MLOAD PUSH1 0x40 MLOAD SWAP2 SWAP7 POP PUSH1 0x0 SWAP2 PUSH1 0x1 PUSH1 0x1 PUSH1 0xA0 SHL SUB DUP5 AND SWAP2 SWAP1 DUP4 DUP2 DUP2 DUP2 DUP6 DUP8 GAS CALL SWAP3 POP POP POP RETURNDATASIZE DUP1 PUSH1 0x0 DUP2 EQ PUSH2 0xD7B JUMPI PUSH1 0x40 MLOAD SWAP2 POP PUSH1 0x1F NOT PUSH1 0x3F RETURNDATASIZE ADD AND DUP3 ADD PUSH1 0x40 MSTORE RETURNDATASIZE DUP3 MSTORE RETURNDATASIZE PUSH1 0x0 PUSH1 0x20 DUP5 ADD RETURNDATACOPY PUSH2 0xD80 JUMP JUMPDEST PUSH1 0x60 SWAP2 POP JUMPDEST POP POP SWAP1 POP DUP1 PUSH2 0xDC8 JUMPI PUSH1 0x40 MLOAD PUSH3 0x461BCD PUSH1 0xE5 SHL DUP2 MSTORE PUSH1 0x20 PUSH1 0x4 DUP3 ADD MSTORE PUSH1 0x14 PUSH1 0x24 DUP3 ADD MSTORE PUSH20 0x2330B4B632B2103A379039B2B7321022BA3432B9 PUSH1 0x61 SHL PUSH1 0x44 DUP3 ADD MSTORE PUSH1 0x64 ADD PUSH2 0x32B JUMP JUMPDEST POP POP POP DUP1 DUP1 PUSH2 0xDD6 SWAP1 PUSH2 0x12C3 JUMP JUMPDEST SWAP2 POP POP PUSH2 0xC14 JUMP JUMPDEST POP DUP1 PUSH2 0xDE9 DUP2 PUSH2 0x12C3 JUMP JUMPDEST SWAP2 POP POP PUSH2 0xC09 JUMP JUMPDEST POP PUSH1 0x0 DUP3 PUSH1 0x3 SLOAD PUSH2 0xE02 SWAP2 SWAP1 PUSH2 0x12DC JUMP JUMPDEST SWAP1 POP PUSH1 0x0 JUMPDEST DUP5 DUP2 LT ISZERO PUSH2 0xFDD JUMPI PUSH1 0x0 JUMPDEST PUSH1 0x1 PUSH1 0x0 DUP9 DUP9 DUP6 DUP2 DUP2 LT PUSH2 0xE28 JUMPI PUSH2 0xE28 PUSH2 0x127F JUMP JUMPDEST SWAP1 POP PUSH1 0x20 MUL ADD PUSH1 0x20 DUP2 ADD SWAP1 PUSH2 0xE3D SWAP2 SWAP1 PUSH2 0x11BD JUMP JUMPDEST PUSH1 0x1 PUSH1 0x1 PUSH1 0xA0 SHL SUB AND DUP2 MSTORE PUSH1 0x20 DUP2 ADD SWAP2 SWAP1 SWAP2 MSTORE PUSH1 0x40 ADD PUSH1 0x0 KECCAK256 SLOAD DUP2 LT ISZERO PUSH2 0xFCA JUMPI PUSH1 0x0 PUSH1 0x1 PUSH1 0x0 DUP10 DUP10 DUP7 DUP2 DUP2 LT PUSH2 0xE76 JUMPI PUSH2 0xE76 PUSH2 0x127F JUMP JUMPDEST SWAP1 POP PUSH1 0x20 MUL ADD PUSH1 0x20 DUP2 ADD SWAP1 PUSH2 0xE8B SWAP2 SWAP1 PUSH2 0x11BD JUMP JUMPDEST PUSH1 0x1 PUSH1 0x1 PUSH1 0xA0 SHL SUB AND PUSH1 0x1 PUSH1 0x1 PUSH1 0xA0 SHL SUB AND DUP2 MSTORE PUSH1 0x20 ADD SWAP1 DUP2 MSTORE PUSH1 0x20 ADD PUSH1 0x0 KECCAK256 DUP3 DUP2 SLOAD DUP2 LT PUSH2 0xEBC JUMPI PUSH2 0xEBC PUSH2 0x127F JUMP JUMPDEST PUSH1 0x0 SWAP2 DUP3 MSTORE PUSH1 0x20 DUP1 DUP4 KECCAK256 PUSH1 0x40 DUP1 MLOAD PUSH1 0x60 DUP2 ADD DUP3 MSTORE PUSH1 0x3 SWAP1 SWAP5 MUL SWAP1 SWAP2 ADD DUP1 SLOAD DUP1 DUP6 MSTORE PUSH1 0x1 DUP3 ADD SLOAD PUSH1 0x1 PUSH1 0x1 PUSH1 0xA0 SHL SUB AND SWAP4 DUP6 ADD DUP5 SWAP1 MSTORE PUSH1 0x2 SWAP1 SWAP2 ADD SLOAD SWAP2 DUP5 ADD DUP3 SWAP1 MSTORE SWAP3 SWAP5 POP SWAP1 SWAP3 SWAP2 PUSH2 0xF12 SWAP2 DUP10 SWAP2 PUSH2 0x7C0 SWAP2 PUSH2 0x1170 JUMP JUMPDEST SWAP1 POP PUSH1 0x0 PUSH1 0x1 PUSH1 0x1 PUSH1 0xA0 SHL SUB DUP4 AND PUSH2 0xF2A DUP4 DUP10 PUSH2 0x1170 JUMP JUMPDEST PUSH1 0x40 MLOAD PUSH1 0x0 DUP2 DUP2 DUP2 DUP6 DUP8 GAS CALL SWAP3 POP POP POP RETURNDATASIZE DUP1 PUSH1 0x0 DUP2 EQ PUSH2 0xF66 JUMPI PUSH1 0x40 MLOAD SWAP2 POP PUSH1 0x1F NOT PUSH1 0x3F RETURNDATASIZE ADD AND DUP3 ADD PUSH1 0x40 MSTORE RETURNDATASIZE DUP3 MSTORE RETURNDATASIZE PUSH1 0x0 PUSH1 0x20 DUP5 ADD RETURNDATACOPY PUSH2 0xF6B JUMP JUMPDEST PUSH1 0x60 SWAP2 POP JUMPDEST POP POP SWAP1 POP DUP1 PUSH2 0xFB3 JUMPI PUSH1 0x40 MLOAD PUSH3 0x461BCD PUSH1 0xE5 SHL DUP2 MSTORE PUSH1 0x20 PUSH1 0x4 DUP3 ADD MSTORE PUSH1 0x14 PUSH1 0x24 DUP3 ADD MSTORE PUSH20 0x2330B4B632B2103A379039B2B7321022BA3432B9 PUSH1 0x61 SHL PUSH1 0x44 DUP3 ADD MSTORE PUSH1 0x64 ADD PUSH2 0x32B JUMP JUMPDEST POP POP POP POP DUP1 DUP1 PUSH2 0xFC2 SWAP1 PUSH2 0x12C3 JUMP JUMPDEST SWAP2 POP POP PUSH2 0xE12 JUMP JUMPDEST POP DUP1 PUSH2 0xFD5 DUP2 PUSH2 0x12C3 JUMP JUMPDEST SWAP2 POP POP PUSH2 0xE07 JUMP JUMPDEST POP PUSH1 0x40 MLOAD DUP2 DUP2 MSTORE PUSH32 0x159263E546A27ED7150662AD6422A52F7D9C8402C444A8E660367E46E1D71998 SWAP1 PUSH1 0x20 ADD PUSH1 0x40 MLOAD DUP1 SWAP2 SUB SWAP1 LOG1 POP POP POP POP POP JUMP JUMPDEST PUSH2 0x1020 PUSH2 0x1091 JUMP JUMPDEST PUSH1 0x1 PUSH1 0x1 PUSH1 0xA0 SHL SUB DUP2 AND PUSH2 0x1085 JUMPI PUSH1 0x40 MLOAD PUSH3 0x461BCD PUSH1 0xE5 SHL DUP2 MSTORE PUSH1 0x20 PUSH1 0x4 DUP3 ADD MSTORE PUSH1 0x26 PUSH1 0x24 DUP3 ADD MSTORE PUSH32 0x4F776E61626C653A206E6577206F776E657220697320746865207A65726F2061 PUSH1 0x44 DUP3 ADD MSTORE PUSH6 0x646472657373 PUSH1 0xD0 SHL PUSH1 0x64 DUP3 ADD MSTORE PUSH1 0x84 ADD PUSH2 0x32B JUMP JUMPDEST PUSH2 0x108E DUP2 PUSH2 0x1107 JUMP JUMPDEST POP JUMP JUMPDEST PUSH1 0x0 SLOAD PUSH1 0x1 PUSH1 0x1 PUSH1 0xA0 SHL SUB AND CALLER EQ PUSH2 0x56A JUMPI PUSH1 0x40 MLOAD PUSH3 0x461BCD PUSH1 0xE5 SHL DUP2 MSTORE PUSH1 0x20 PUSH1 0x4 DUP3 ADD DUP2 SWAP1 MSTORE PUSH1 0x24 DUP3 ADD MSTORE PUSH32 0x4F776E61626C653A2063616C6C6572206973206E6F7420746865206F776E6572 PUSH1 0x44 DUP3 ADD MSTORE PUSH1 0x64 ADD PUSH2 0x32B JUMP JUMPDEST PUSH1 0x0 PUSH1 0x5 SLOAD PUSH1 0x0 EQ ISZERO DUP1 ISZERO PUSH2 0x1102 JUMPI POP PUSH1 0x5 SLOAD TIMESTAMP LT ISZERO JUMPDEST SWAP1 POP SWAP1 JUMP JUMPDEST PUSH1 0x0 DUP1 SLOAD PUSH1 0x1 PUSH1 0x1 PUSH1 0xA0 SHL SUB DUP4 DUP2 AND PUSH1 0x1 PUSH1 0x1 PUSH1 0xA0 SHL SUB NOT DUP4 AND DUP2 OR DUP5 SSTORE PUSH1 0x40 MLOAD SWAP2 SWAP1 SWAP3 AND SWAP3 DUP4 SWAP2 PUSH32 0x8BE0079C531659141344CD1FD0A4F28419497F9722A3DAAFE3B4186F6B6457E0 SWAP2 SWAP1 LOG3 POP POP JUMP JUMPDEST PUSH1 0x0 PUSH1 0x6 SLOAD PUSH1 0x0 EQ DUP1 ISZERO PUSH2 0x1102 JUMPI POP POP PUSH1 0x6 SLOAD TIMESTAMP LT ISZERO SWAP1 JUMP JUMPDEST PUSH1 0x0 PUSH2 0x117C DUP3 DUP5 PUSH2 0x12F3 JUMP JUMPDEST SWAP4 SWAP3 POP POP POP JUMP JUMPDEST PUSH1 0x0 PUSH2 0x117C DUP3 DUP5 PUSH2 0x1312 JUMP JUMPDEST PUSH1 0x0 PUSH1 0x20 DUP3 DUP5 SUB SLT ISZERO PUSH2 0x11A1 JUMPI PUSH1 0x0 DUP1 REVERT JUMPDEST POP CALLDATALOAD SWAP2 SWAP1 POP JUMP JUMPDEST PUSH1 0x1 PUSH1 0x1 PUSH1 0xA0 SHL SUB DUP2 AND DUP2 EQ PUSH2 0x108E JUMPI PUSH1 0x0 DUP1 REVERT JUMPDEST PUSH1 0x0 PUSH1 0x20 DUP3 DUP5 SUB SLT ISZERO PUSH2 0x11CF JUMPI PUSH1 0x0 DUP1 REVERT JUMPDEST DUP2 CALLDATALOAD PUSH2 0x117C DUP2 PUSH2 0x11A8 JUMP JUMPDEST PUSH1 0x0 DUP1 PUSH1 0x40 DUP4 DUP6 SUB SLT ISZERO PUSH2 0x11ED JUMPI PUSH1 0x0 DUP1 REVERT JUMPDEST DUP3 CALLDATALOAD SWAP2 POP PUSH1 0x20 DUP4 ADD CALLDATALOAD PUSH2 0x11FF DUP2 PUSH2 0x11A8 JUMP JUMPDEST DUP1 SWAP2 POP POP SWAP3 POP SWAP3 SWAP1 POP JUMP JUMPDEST PUSH1 0x0 DUP1 PUSH1 0x20 DUP4 DUP6 SUB SLT ISZERO PUSH2 0x121D JUMPI PUSH1 0x0 DUP1 REVERT JUMPDEST DUP3 CALLDATALOAD PUSH8 0xFFFFFFFFFFFFFFFF DUP1 DUP3 GT ISZERO PUSH2 0x1235 JUMPI PUSH1 0x0 DUP1 REVERT JUMPDEST DUP2 DUP6 ADD SWAP2 POP DUP6 PUSH1 0x1F DUP4 ADD SLT PUSH2 0x1249 JUMPI PUSH1 0x0 DUP1 REVERT JUMPDEST DUP2 CALLDATALOAD DUP2 DUP2 GT ISZERO PUSH2 0x1258 JUMPI PUSH1 0x0 DUP1 REVERT JUMPDEST DUP7 PUSH1 0x20 DUP3 PUSH1 0x5 SHL DUP6 ADD ADD GT ISZERO PUSH2 0x126D JUMPI PUSH1 0x0 DUP1 REVERT JUMPDEST PUSH1 0x20 SWAP3 SWAP1 SWAP3 ADD SWAP7 SWAP2 SWAP6 POP SWAP1 SWAP4 POP POP POP POP JUMP JUMPDEST PUSH4 0x4E487B71 PUSH1 0xE0 SHL PUSH1 0x0 MSTORE PUSH1 0x32 PUSH1 0x4 MSTORE PUSH1 0x24 PUSH1 0x0 REVERT JUMPDEST PUSH4 0x4E487B71 PUSH1 0xE0 SHL PUSH1 0x0 MSTORE PUSH1 0x11 PUSH1 0x4 MSTORE PUSH1 0x24 PUSH1 0x0 REVERT JUMPDEST PUSH1 0x0 DUP3 NOT DUP3 GT ISZERO PUSH2 0x12BE JUMPI PUSH2 0x12BE PUSH2 0x1295 JUMP JUMPDEST POP ADD SWAP1 JUMP JUMPDEST PUSH1 0x0 PUSH1 0x1 DUP3 ADD PUSH2 0x12D5 JUMPI PUSH2 0x12D5 PUSH2 0x1295 JUMP JUMPDEST POP PUSH1 0x1 ADD SWAP1 JUMP JUMPDEST PUSH1 0x0 DUP3 DUP3 LT ISZERO PUSH2 0x12EE JUMPI PUSH2 0x12EE PUSH2 0x1295 JUMP JUMPDEST POP SUB SWAP1 JUMP JUMPDEST PUSH1 0x0 DUP2 PUSH1 0x0 NOT DIV DUP4 GT DUP3 ISZERO ISZERO AND ISZERO PUSH2 0x130D JUMPI PUSH2 0x130D PUSH2 0x1295 JUMP JUMPDEST POP MUL SWAP1 JUMP JUMPDEST PUSH1 0x0 DUP3 PUSH2 0x132F JUMPI PUSH4 0x4E487B71 PUSH1 0xE0 SHL PUSH1 0x0 MSTORE PUSH1 0x12 PUSH1 0x4 MSTORE PUSH1 0x24 PUSH1 0x0 REVERT JUMPDEST POP DIV SWAP1 JUMP INVALID LOG2 PUSH5 0x6970667358 0x22 SLT KECCAK256 0xDF INVALID GASPRICE 0xC0 MUL 0xCF 0xEC 0x4E 0xCA SWAP6 0xE2 SWAP5 ADD 0x23 0x2E BALANCE 0xC9 0x24 0xC3 CALL CODECOPY DUP14 CREATE2 CODECOPY 0xB6 0x4B 0xB9 CALL 0xE6 JUMPI 0xD4 RETURNDATASIZE PUSH5 0x736F6C6343 STOP ADDMOD 0xD STOP CALLER "},"methodIdentifiers":{"distributeRewards(address[])":"c5a55152","endSeason()":"3dcdb672","getTotalBets()":"a3cb679d","getTotalBetsforPlayer(address)":"67fd81e7","getTotalFees()":"626e1ae7","getseasonEndTimestamp()":"a70f7fc4","getseasonStartTimestamp()":"e4a2add5","makeBets(uint256,address)":"84fc6252","owner()":"8da5cb5b","renounceOwnership()":"715018a6","resetEntryFee(uint256)":"66bb9d43","resetMaxiumBetAmount(uint256)":"65b94d4c","resetMinimumBetAmount(uint256)":"0dc81e07","startSeason(uint256)":"703dbfe4","transferOwnership(address)":"f2fde38b","withdrawManagementFee(address)":"9c239aad"}}}}}