{
  "_format": "hh-sol-artifact-1",
  "contractName": "bettingMarket",
  "sourceName": "contracts/bettingMarket.sol",
  "abi": [
    {
      "inputs": [],
      "stateMutability": "nonpayable",
      "type": "constructor"
    },
    {
      "anonymous": false,
      "inputs": [
        {
          "indexed": true,
          "internalType": "address",
          "name": "player",
          "type": "address"
        },
        {
          "indexed": false,
          "internalType": "uint256",
          "name": "betAmount",
          "type": "uint256"
        },
        {
          "indexed": false,
          "internalType": "uint256",
          "name": "buyPrice",
          "type": "uint256"
        }
      ],
      "name": "BetBought",
      "type": "event"
    },
    {
      "anonymous": false,
      "inputs": [
        {
          "indexed": true,
          "internalType": "address",
          "name": "player",
          "type": "address"
        },
        {
          "indexed": false,
          "internalType": "uint256",
          "name": "betAmount",
          "type": "uint256"
        },
        {
          "indexed": false,
          "internalType": "uint256",
          "name": "betTimeStamp",
          "type": "uint256"
        }
      ],
      "name": "BetMade",
      "type": "event"
    },
    {
      "anonymous": false,
      "inputs": [
        {
          "indexed": true,
          "internalType": "address",
          "name": "player",
          "type": "address"
        },
        {
          "indexed": false,
          "internalType": "uint256",
          "name": "betAmount",
          "type": "uint256"
        },
        {
          "indexed": false,
          "internalType": "uint256",
          "name": "sellPrice",
          "type": "uint256"
        }
      ],
      "name": "BetSold",
      "type": "event"
    },
    {
      "anonymous": false,
      "inputs": [
        {
          "indexed": false,
          "internalType": "address",
          "name": "withdrawer",
          "type": "address"
        },
        {
          "indexed": false,
          "internalType": "address",
          "name": "to",
          "type": "address"
        },
        {
          "indexed": false,
          "internalType": "uint256",
          "name": "amount",
          "type": "uint256"
        }
      ],
      "name": "ManagementFeeWithdrawn",
      "type": "event"
    },
    {
      "anonymous": false,
      "inputs": [
        {
          "indexed": true,
          "internalType": "address",
          "name": "previousOwner",
          "type": "address"
        },
        {
          "indexed": true,
          "internalType": "address",
          "name": "newOwner",
          "type": "address"
        }
      ],
      "name": "OwnershipTransferred",
      "type": "event"
    },
    {
      "anonymous": false,
      "inputs": [
        {
          "indexed": false,
          "internalType": "uint256",
          "name": "totalBetsonLosers",
          "type": "uint256"
        }
      ],
      "name": "PrizePoolDistributed",
      "type": "event"
    },
    {
      "anonymous": false,
      "inputs": [
        {
          "indexed": false,
          "internalType": "uint256",
          "name": "seasonEndTimestamp",
          "type": "uint256"
        }
      ],
      "name": "SeasonEnded",
      "type": "event"
    },
    {
      "anonymous": false,
      "inputs": [
        {
          "indexed": false,
          "internalType": "uint256",
          "name": "seasonStartTimestamp",
          "type": "uint256"
        }
      ],
      "name": "SeasonStarted",
      "type": "event"
    },
    {
      "inputs": [
        {
          "internalType": "address payable[]",
          "name": "winnerPlayers",
          "type": "address[]"
        }
      ],
      "name": "distributeRewards",
      "outputs": [],
      "stateMutability": "nonpayable",
      "type": "function"
    },
    {
      "inputs": [],
      "name": "endSeason",
      "outputs": [],
      "stateMutability": "nonpayable",
      "type": "function"
    },
    {
      "inputs": [],
      "name": "getTotalBets",
      "outputs": [
        {
          "internalType": "uint256",
          "name": "",
          "type": "uint256"
        }
      ],
      "stateMutability": "view",
      "type": "function"
    },
    {
      "inputs": [
        {
          "internalType": "address",
          "name": "player",
          "type": "address"
        }
      ],
      "name": "getTotalBetsforPlayer",
      "outputs": [
        {
          "internalType": "uint256",
          "name": "",
          "type": "uint256"
        }
      ],
      "stateMutability": "view",
      "type": "function"
    },
    {
      "inputs": [],
      "name": "getTotalFees",
      "outputs": [
        {
          "internalType": "uint256",
          "name": "",
          "type": "uint256"
        }
      ],
      "stateMutability": "view",
      "type": "function"
    },
    {
      "inputs": [],
      "name": "getseasonEndTimestamp",
      "outputs": [
        {
          "internalType": "uint256",
          "name": "",
          "type": "uint256"
        }
      ],
      "stateMutability": "view",
      "type": "function"
    },
    {
      "inputs": [],
      "name": "getseasonStartTimestamp",
      "outputs": [
        {
          "internalType": "uint256",
          "name": "",
          "type": "uint256"
        }
      ],
      "stateMutability": "view",
      "type": "function"
    },
    {
      "inputs": [
        {
          "internalType": "uint256",
          "name": "amount",
          "type": "uint256"
        },
        {
          "internalType": "address",
          "name": "player",
          "type": "address"
        }
      ],
      "name": "makeBets",
      "outputs": [],
      "stateMutability": "payable",
      "type": "function"
    },
    {
      "inputs": [],
      "name": "owner",
      "outputs": [
        {
          "internalType": "address",
          "name": "",
          "type": "address"
        }
      ],
      "stateMutability": "view",
      "type": "function"
    },
    {
      "inputs": [],
      "name": "renounceOwnership",
      "outputs": [],
      "stateMutability": "nonpayable",
      "type": "function"
    },
    {
      "inputs": [
        {
          "internalType": "uint256",
          "name": "_entryFee",
          "type": "uint256"
        }
      ],
      "name": "resetEntryFee",
      "outputs": [],
      "stateMutability": "nonpayable",
      "type": "function"
    },
    {
      "inputs": [
        {
          "internalType": "uint256",
          "name": "_maxBetAmount",
          "type": "uint256"
        }
      ],
      "name": "resetMaxiumBetAmount",
      "outputs": [],
      "stateMutability": "nonpayable",
      "type": "function"
    },
    {
      "inputs": [
        {
          "internalType": "uint256",
          "name": "_minBetAmount",
          "type": "uint256"
        }
      ],
      "name": "resetMinimumBetAmount",
      "outputs": [],
      "stateMutability": "nonpayable",
      "type": "function"
    },
    {
      "inputs": [
        {
          "internalType": "uint256",
          "name": "_seasonEndTimestamp",
          "type": "uint256"
        }
      ],
      "name": "startSeason",
      "outputs": [],
      "stateMutability": "nonpayable",
      "type": "function"
    },
    {
      "inputs": [
        {
          "internalType": "address",
          "name": "newOwner",
          "type": "address"
        }
      ],
      "name": "transferOwnership",
      "outputs": [],
      "stateMutability": "nonpayable",
      "type": "function"
    },
    {
      "inputs": [
        {
          "internalType": "address payable",
          "name": "to_",
          "type": "address"
        }
      ],
      "name": "withdrawManagementFee",
      "outputs": [],
      "stateMutability": "nonpayable",
      "type": "function"
    },
    {
      "stateMutability": "payable",
      "type": "receive"
    }
  ],
  "bytecode": "0x608060405234801561001057600080fd5b5061001a33610072565b60006005819055600655678ac7230489e8000060075567016345785d8a0000600855662386f26fc10000600955600280546001600160a01b03191673f5dca59461adfff5089be5068364ec10b86c2a881790556100c2565b600080546001600160a01b038381166001600160a01b0319831681178455604051919092169283917f8be0079c531659141344cd1fd0a4f28419497f9722a3daafe3b4186f6b6457e09190a35050565b61136a806100d16000396000f3fe6080604052600436106100f75760003560e01c806384fc62521161008a578063a70f7fc411610059578063a70f7fc414610263578063c5a5515214610278578063e4a2add514610298578063f2fde38b146102ad57600080fd5b806384fc6252146101f35780638da5cb5b146102065780639c239aad1461022e578063a3cb679d1461024e57600080fd5b806366bb9d43116100c657806366bb9d431461017e57806367fd81e71461019e578063703dbfe4146101be578063715018a6146101de57600080fd5b80630dc81e07146101035780633dcdb67214610125578063626e1ae71461013a57806365b94d4c1461015e57600080fd5b366100fe57005b600080fd5b34801561010f57600080fd5b5061012361011e36600461118f565b6102cd565b005b34801561013157600080fd5b506101236102da565b34801561014657600080fd5b506004545b6040519081526020015b60405180910390f35b34801561016a57600080fd5b5061012361017936600461118f565b6103c4565b34801561018a57600080fd5b5061012361019936600461118f565b6103d1565b3480156101aa57600080fd5b5061014b6101b93660046111bd565b6103de565b3480156101ca57600080fd5b506101236101d936600461118f565b610465565b3480156101ea57600080fd5b50610123610558565b6101236102013660046111da565b61056c565b34801561021257600080fd5b506000546040516001600160a01b039091168152602001610155565b34801561023a57600080fd5b506101236102493660046111bd565b610ade565b34801561025a57600080fd5b5060035461014b565b34801561026f57600080fd5b5060065461014b565b34801561028457600080fd5b5061012361029336600461120a565b610b68565b3480156102a457600080fd5b5060055461014b565b3480156102b957600080fd5b506101236102c83660046111bd565b611018565b6102d5611091565b600855565b6102e2611091565b6102ea6110eb565b6103345760405162461bcd60e51b815260206004820152601660248201527514d9585cdbdb881b9bdd081e595d081cdd185c9d195960521b60448201526064015b60405180910390fd5b60065442101561037d5760405162461bcd60e51b815260206004820152601460248201527314d9585cdbdb881b9bdd081e595d08195b99195960621b604482015260640161032b565b7f71b1ed1af5dc112f73a5ec9d0960e84a848b781220620ccc8fb91814ab3047be6006546040516103b091815260200190565b60405180910390a160006005819055600655565b6103cc611091565b600755565b6103d9611091565b600955565b600080805b6001600160a01b03841660009081526001602052604090205481101561045e576001600160a01b038416600090815260016020526040902080548290811061042d5761042d61127f565b9060005260206000209060030201600001548261044a91906112ab565b915080610456816112c3565b9150506103e3565b5092915050565b61046d611091565b6104756110eb565b156104bb5760405162461bcd60e51b815260206004820152601660248201527514d9585cdbdb88185b1c9958591e481cdd185c9d195960521b604482015260640161032b565b4281116105165760405162461bcd60e51b815260206004820152602360248201527f456e642074696d657374616d70206d75737420626520696e207468652066757460448201526275726560e81b606482015260840161032b565b42600581905560068290556040519081527fe2046d333900871694b2fb421975b907ac5d93052201a0e259fa0664d9dbdf1d906020015b60405180910390a150565b610560611091565b61056a6000611107565b565b6009548210156105ca5760405162461bcd60e51b815260206004820152602360248201527f42657420616d6f756e74206c6f776572207468616e2074686520656e7472792060448201526266656560e81b606482015260840161032b565b6008546009546105da90846112dc565b101561064e5760405162461bcd60e51b815260206004820152603e60248201527f42657420616d6f756e7420286d696e757320656e7472792066656529206c6f7760448201527f6572207468616e20746865206d696e696d756d2062657420616d6f756e740000606482015260840161032b565b60075460095461065e90846112dc565b11156106d25760405162461bcd60e51b815260206004820152603f60248201527f42657420616d6f756e7420286d696e757320656e74727920666565292068696760448201527f686572207468616e20746865206d6178696d756d2062657420616d6f756e7400606482015260840161032b565b6106da6110eb565b6107265760405162461bcd60e51b815260206004820152601a60248201527f536561736f6e20686173206e6f74207374617274656420796574000000000000604482015260640161032b565b61072e611157565b1561076e5760405162461bcd60e51b815260206004820152601060248201526f14d9585cdbdb881a185cc8195b99195960821b604482015260640161032b565b60095461077b90836112dc565b91506009546004600082825461079191906112ab565b92505081905550600042905060006107c663240c84006107c06003600554866107ba91906112dc565b90611170565b90611183565b6107d19060016112ab565b9050806000805b6001600160a01b0386166000908152600160205260409020548110156109fe576001600160a01b03861660009081526001602052604090208054339190839081106108255761082561127f565b60009182526020909120600160039092020101546001600160a01b0316036109ec5760006108538489611170565b6001600160a01b038816600090815260016020526040902080546108dd9190859081106108825761088261127f565b600091825260208083206003909202909101546001600160a01b038c168352600190915260409091208054869081106108bd576108bd61127f565b90600052602060002090600302016002015461117090919063ffffffff16565b6108e791906112ab565b905061094688600160008a6001600160a01b03166001600160a01b0316815260200190815260200160002084815481106109235761092361127f565b90600052602060002090600302016000015461093f91906112ab565b8290611183565b6001600160a01b03881660009081526001602052604090208054849081106109705761097061127f565b9060005260206000209060030201600201819055508760016000896001600160a01b03166001600160a01b0316815260200190815260200160002083815481106109bc576109bc61127f565b906000526020600020906003020160000160008282546109dc91906112ab565b90915550600193506109fe915050565b806109f6816112c3565b9150506107d8565b50801515600003610a7b57604080516060810182528781523360208083019182528284018681526001600160a01b038a8116600090815260018085529681208054808901825590825293902094516003909302909401918255915193810180546001600160a01b0319169490931693909317909155516002909101555b8560036000828254610a8d91906112ab565b909155505060408051878152602081018690526001600160a01b038716917faef4e091ec4a3800e3135934210edcf6949b208c449c51fe586e99d1700ba2c0910160405180910390a2505050505050565b610ae6611091565b6004546040516001600160a01b0383169180156108fc02916000818181858888f19350505050158015610b1d573d6000803e3d6000fd5b50600454604080513381526001600160a01b0384166020820152908101919091527f22f297e564c18c704898a0ed9e6e38f717d9b035aeb502b5855a5204d102faf29060600161054d565b610b70611091565b610b78611157565b1515600114610bc95760405162461bcd60e51b815260206004820152601860248201527f536561736f6e20686173206e6f7420656e646564207965740000000000000000604482015260640161032b565b80610c035760405162461bcd60e51b815260206004820152600a6024820152694e6f2077696e6e65727360b01b604482015260640161032b565b60008060005b83811015610df15760005b60016000878785818110610c2a57610c2a61127f565b9050602002016020810190610c3f91906111bd565b6001600160a01b03168152602081019190915260400160002054811015610dde57600060016000888886818110610c7857610c7861127f565b9050602002016020810190610c8d91906111bd565b6001600160a01b03166001600160a01b031681526020019081526020016000208281548110610cbe57610cbe61127f565b6000918252602091829020604080516060810182526003909302909101805480845260018201546001600160a01b031694840185905260029091015491830191909152909250610d0e90876112ab565b82516040840151919750610d229190611170565b610d2c90866112ab565b82516040519196506000916001600160a01b03841691908381818185875af1925050503d8060008114610d7b576040519150601f19603f3d011682016040523d82523d6000602084013e610d80565b606091505b5050905080610dc85760405162461bcd60e51b81526020600482015260146024820152732330b4b632b2103a379039b2b7321022ba3432b960611b604482015260640161032b565b5050508080610dd6906112c3565b915050610c14565b5080610de9816112c3565b915050610c09565b50600082600354610e0291906112dc565b905060005b84811015610fdd5760005b60016000888885818110610e2857610e2861127f565b9050602002016020810190610e3d91906111bd565b6001600160a01b03168152602081019190915260400160002054811015610fca57600060016000898986818110610e7657610e7661127f565b9050602002016020810190610e8b91906111bd565b6001600160a01b03166001600160a01b031681526020019081526020016000208281548110610ebc57610ebc61127f565b60009182526020808320604080516060810182526003909402909101805480855260018201546001600160a01b0316938501849052600290910154918401829052929450909291610f129189916107c091611170565b905060006001600160a01b038316610f2a8389611170565b604051600081818185875af1925050503d8060008114610f66576040519150601f19603f3d011682016040523d82523d6000602084013e610f6b565b606091505b5050905080610fb35760405162461bcd60e51b81526020600482015260146024820152732330b4b632b2103a379039b2b7321022ba3432b960611b604482015260640161032b565b505050508080610fc2906112c3565b915050610e12565b5080610fd5816112c3565b915050610e07565b506040518181527f159263e546a27ed7150662ad6422a52f7d9c8402c444a8e660367e46e1d719989060200160405180910390a15050505050565b611020611091565b6001600160a01b0381166110855760405162461bcd60e51b815260206004820152602660248201527f4f776e61626c653a206e6577206f776e657220697320746865207a65726f206160448201526564647265737360d01b606482015260840161032b565b61108e81611107565b50565b6000546001600160a01b0316331461056a5760405162461bcd60e51b815260206004820181905260248201527f4f776e61626c653a2063616c6c6572206973206e6f7420746865206f776e6572604482015260640161032b565b600060055460001415801561110257506005544210155b905090565b600080546001600160a01b038381166001600160a01b0319831681178455604051919092169283917f8be0079c531659141344cd1fd0a4f28419497f9722a3daafe3b4186f6b6457e09190a35050565b6000600654600014801561110257505060065442101590565b600061117c82846112f3565b9392505050565b600061117c8284611312565b6000602082840312156111a157600080fd5b5035919050565b6001600160a01b038116811461108e57600080fd5b6000602082840312156111cf57600080fd5b813561117c816111a8565b600080604083850312156111ed57600080fd5b8235915060208301356111ff816111a8565b809150509250929050565b6000806020838503121561121d57600080fd5b823567ffffffffffffffff8082111561123557600080fd5b818501915085601f83011261124957600080fd5b81358181111561125857600080fd5b8660208260051b850101111561126d57600080fd5b60209290920196919550909350505050565b634e487b7160e01b600052603260045260246000fd5b634e487b7160e01b600052601160045260246000fd5b600082198211156112be576112be611295565b500190565b6000600182016112d5576112d5611295565b5060010190565b6000828210156112ee576112ee611295565b500390565b600081600019048311821515161561130d5761130d611295565b500290565b60008261132f57634e487b7160e01b600052601260045260246000fd5b50049056fea2646970667358221220dffe3ac002cfec4eca95e29401232e31c924c3f1398df539b64bb9f1e657d43d64736f6c634300080d0033",
  "linkReferences": {},
  "deployedLinkReferences": {}
}