{
  "_format": "hh-sol-artifact-1",
  "contractName": "bettingMarket",
  "sourceName": "contracts/bettingMarket.sol",
  "abi": [
    {
      "inputs": [],
      "stateMutability": "nonpayable",
      "type": "constructor"
    },
    {
      "anonymous": false,
      "inputs": [
        {
          "indexed": true,
          "internalType": "address",
          "name": "player",
          "type": "address"
        },
        {
          "indexed": false,
          "internalType": "uint256",
          "name": "betAmount",
          "type": "uint256"
        },
        {
          "indexed": false,
          "internalType": "uint256",
          "name": "buyPrice",
          "type": "uint256"
        }
      ],
      "name": "BetBought",
      "type": "event"
    },
    {
      "anonymous": false,
      "inputs": [
        {
          "indexed": true,
          "internalType": "address",
          "name": "player",
          "type": "address"
        },
        {
          "indexed": false,
          "internalType": "uint256",
          "name": "betAmount",
          "type": "uint256"
        },
        {
          "indexed": false,
          "internalType": "uint256",
          "name": "betTimeStamp",
          "type": "uint256"
        }
      ],
      "name": "BetMade",
      "type": "event"
    },
    {
      "anonymous": false,
      "inputs": [
        {
          "indexed": true,
          "internalType": "address",
          "name": "player",
          "type": "address"
        },
        {
          "indexed": false,
          "internalType": "uint256",
          "name": "betAmount",
          "type": "uint256"
        },
        {
          "indexed": false,
          "internalType": "uint256",
          "name": "sellPrice",
          "type": "uint256"
        }
      ],
      "name": "BetSold",
      "type": "event"
    },
    {
      "anonymous": false,
      "inputs": [
        {
          "indexed": false,
          "internalType": "address",
          "name": "withdrawer",
          "type": "address"
        },
        {
          "indexed": false,
          "internalType": "address",
          "name": "to",
          "type": "address"
        },
        {
          "indexed": false,
          "internalType": "uint256",
          "name": "amount",
          "type": "uint256"
        }
      ],
      "name": "ManagementFeeWithdrawn",
      "type": "event"
    },
    {
      "anonymous": false,
      "inputs": [
        {
          "indexed": true,
          "internalType": "address",
          "name": "previousOwner",
          "type": "address"
        },
        {
          "indexed": true,
          "internalType": "address",
          "name": "newOwner",
          "type": "address"
        }
      ],
      "name": "OwnershipTransferred",
      "type": "event"
    },
    {
      "anonymous": false,
      "inputs": [
        {
          "indexed": false,
          "internalType": "uint256",
          "name": "totalBetsonLosers",
          "type": "uint256"
        }
      ],
      "name": "PrizePoolDistributed",
      "type": "event"
    },
    {
      "anonymous": false,
      "inputs": [
        {
          "indexed": false,
          "internalType": "uint256",
          "name": "seasonEndTimestamp",
          "type": "uint256"
        }
      ],
      "name": "SeasonEnded",
      "type": "event"
    },
    {
      "anonymous": false,
      "inputs": [
        {
          "indexed": false,
          "internalType": "uint256",
          "name": "seasonStartTimestamp",
          "type": "uint256"
        }
      ],
      "name": "SeasonStarted",
      "type": "event"
    },
    {
      "inputs": [
        {
          "internalType": "address payable[]",
          "name": "winnerPlayers",
          "type": "address[]"
        }
      ],
      "name": "distributeRewards",
      "outputs": [],
      "stateMutability": "nonpayable",
      "type": "function"
    },
    {
      "inputs": [],
      "name": "endSeason",
      "outputs": [],
      "stateMutability": "nonpayable",
      "type": "function"
    },
    {
      "inputs": [],
      "name": "getTotalBets",
      "outputs": [
        {
          "internalType": "uint256",
          "name": "",
          "type": "uint256"
        }
      ],
      "stateMutability": "view",
      "type": "function"
    },
    {
      "inputs": [
        {
          "internalType": "address",
          "name": "player",
          "type": "address"
        }
      ],
      "name": "getTotalBetsforPlayer",
      "outputs": [
        {
          "internalType": "uint256",
          "name": "",
          "type": "uint256"
        }
      ],
      "stateMutability": "view",
      "type": "function"
    },
    {
      "inputs": [],
      "name": "getTotalFees",
      "outputs": [
        {
          "internalType": "uint256",
          "name": "",
          "type": "uint256"
        }
      ],
      "stateMutability": "view",
      "type": "function"
    },
    {
      "inputs": [],
      "name": "getseasonEndTimestamp",
      "outputs": [
        {
          "internalType": "uint256",
          "name": "",
          "type": "uint256"
        }
      ],
      "stateMutability": "view",
      "type": "function"
    },
    {
      "inputs": [],
      "name": "getseasonStartTimestamp",
      "outputs": [
        {
          "internalType": "uint256",
          "name": "",
          "type": "uint256"
        }
      ],
      "stateMutability": "view",
      "type": "function"
    },
    {
      "inputs": [
        {
          "internalType": "uint256",
          "name": "amount",
          "type": "uint256"
        },
        {
          "internalType": "address",
          "name": "player",
          "type": "address"
        },
        {
          "internalType": "bytes32[]",
          "name": "proof",
          "type": "bytes32[]"
        }
      ],
      "name": "makeBets",
      "outputs": [],
      "stateMutability": "payable",
      "type": "function"
    },
    {
      "inputs": [],
      "name": "owner",
      "outputs": [
        {
          "internalType": "address",
          "name": "",
          "type": "address"
        }
      ],
      "stateMutability": "view",
      "type": "function"
    },
    {
      "inputs": [],
      "name": "renounceOwnership",
      "outputs": [],
      "stateMutability": "nonpayable",
      "type": "function"
    },
    {
      "inputs": [
        {
          "internalType": "uint256",
          "name": "_entryFee",
          "type": "uint256"
        }
      ],
      "name": "resetEntryFee",
      "outputs": [],
      "stateMutability": "nonpayable",
      "type": "function"
    },
    {
      "inputs": [
        {
          "internalType": "uint256",
          "name": "_maxBetAmount",
          "type": "uint256"
        }
      ],
      "name": "resetMaxiumBetAmount",
      "outputs": [],
      "stateMutability": "nonpayable",
      "type": "function"
    },
    {
      "inputs": [
        {
          "internalType": "uint256",
          "name": "_minBetAmount",
          "type": "uint256"
        }
      ],
      "name": "resetMinimumBetAmount",
      "outputs": [],
      "stateMutability": "nonpayable",
      "type": "function"
    },
    {
      "inputs": [
        {
          "internalType": "uint256",
          "name": "_seasonEndTimestamp",
          "type": "uint256"
        }
      ],
      "name": "startSeason",
      "outputs": [],
      "stateMutability": "nonpayable",
      "type": "function"
    },
    {
      "inputs": [
        {
          "internalType": "address",
          "name": "newOwner",
          "type": "address"
        }
      ],
      "name": "transferOwnership",
      "outputs": [],
      "stateMutability": "nonpayable",
      "type": "function"
    },
    {
      "inputs": [
        {
          "internalType": "address payable",
          "name": "to_",
          "type": "address"
        }
      ],
      "name": "withdrawManagementFee",
      "outputs": [],
      "stateMutability": "nonpayable",
      "type": "function"
    },
    {
      "stateMutability": "payable",
      "type": "receive"
    }
  ],
  "bytecode": "0x608060405234801561001057600080fd5b5061001a33610072565b60006005819055600655678ac7230489e8000060075567016345785d8a0000600855662386f26fc10000600955600280546001600160a01b03191673f5dca59461adfff5089be5068364ec10b86c2a881790556100c2565b600080546001600160a01b038381166001600160a01b0319831681178455604051919092169283917f8be0079c531659141344cd1fd0a4f28419497f9722a3daafe3b4186f6b6457e09190a35050565b611697806100d16000396000f3fe6080604052600436106100f75760003560e01c80638da5cb5b1161008a578063c5a5515211610059578063c5a5515214610265578063c65b1fb014610285578063e4a2add514610298578063f2fde38b146102ad57600080fd5b80638da5cb5b146101f35780639c239aad1461021b578063a3cb679d1461023b578063a70f7fc41461025057600080fd5b806366bb9d43116100c657806366bb9d431461017e57806367fd81e71461019e578063703dbfe4146101be578063715018a6146101de57600080fd5b80630dc81e07146101035780633dcdb67214610125578063626e1ae71461013a57806365b94d4c1461015e57600080fd5b366100fe57005b600080fd5b34801561010f57600080fd5b5061012361011e36600461130f565b6102cd565b005b34801561013157600080fd5b506101236102da565b34801561014657600080fd5b506004545b6040519081526020015b60405180910390f35b34801561016a57600080fd5b5061012361017936600461130f565b6103c4565b34801561018a57600080fd5b5061012361019936600461130f565b6103d1565b3480156101aa57600080fd5b5061014b6101b936600461133d565b6103de565b3480156101ca57600080fd5b506101236101d936600461130f565b610465565b3480156101ea57600080fd5b50610123610558565b3480156101ff57600080fd5b506000546040516001600160a01b039091168152602001610155565b34801561022757600080fd5b5061012361023636600461133d565b61056c565b34801561024757600080fd5b5060035461014b565b34801561025c57600080fd5b5060065461014b565b34801561027157600080fd5b5061012361028036600461135a565b6105f6565b6101236102933660046113e5565b610b23565b3480156102a457600080fd5b5060055461014b565b3480156102b957600080fd5b506101236102c836600461133d565b61112b565b6102d56111a4565b600855565b6102e26111a4565b6102ea6111fe565b6103345760405162461bcd60e51b815260206004820152601660248201527514d9585cdbdb881b9bdd081e595d081cdd185c9d195960521b60448201526064015b60405180910390fd5b60065442101561037d5760405162461bcd60e51b815260206004820152601460248201527314d9585cdbdb881b9bdd081e595d08195b99195960621b604482015260640161032b565b7f71b1ed1af5dc112f73a5ec9d0960e84a848b781220620ccc8fb91814ab3047be6006546040516103b091815260200190565b60405180910390a160006005819055600655565b6103cc6111a4565b600755565b6103d96111a4565b600955565b600080805b6001600160a01b03841660009081526001602052604090205481101561045e576001600160a01b038416600090815260016020526040902080548290811061042d5761042d6114c1565b9060005260206000209060030201600001548261044a91906114ed565b91508061045681611505565b9150506103e3565b5092915050565b61046d6111a4565b6104756111fe565b156104bb5760405162461bcd60e51b815260206004820152601660248201527514d9585cdbdb88185b1c9958591e481cdd185c9d195960521b604482015260640161032b565b4281116105165760405162461bcd60e51b815260206004820152602360248201527f456e642074696d657374616d70206d75737420626520696e207468652066757460448201526275726560e81b606482015260840161032b565b42600581905560068290556040519081527fe2046d333900871694b2fb421975b907ac5d93052201a0e259fa0664d9dbdf1d906020015b60405180910390a150565b6105606111a4565b61056a600061121a565b565b6105746111a4565b6004546040516001600160a01b0383169180156108fc02916000818181858888f193505050501580156105ab573d6000803e3d6000fd5b50600454604080513381526001600160a01b0384166020820152908101919091527f22f297e564c18c704898a0ed9e6e38f717d9b035aeb502b5855a5204d102faf29060600161054d565b6105fe6111a4565b61060661126a565b15156001146106575760405162461bcd60e51b815260206004820152601860248201527f536561736f6e20686173206e6f7420656e646564207965740000000000000000604482015260640161032b565b806106915760405162461bcd60e51b815260206004820152600a6024820152694e6f2077696e6e65727360b01b604482015260640161032b565b60008060005b838110156108b45760005b600160008787858181106106b8576106b86114c1565b90506020020160208101906106cd919061133d565b6001600160a01b031681526020810191909152604001600020548110156108a157600060016000888886818110610706576107066114c1565b905060200201602081019061071b919061133d565b6001600160a01b03166001600160a01b03168152602001908152602001600020828154811061074c5761074c6114c1565b6000918252602091829020604080516060810182526003909302909101805480845260018201546001600160a01b03169484018590526002909101549183019190915290925061079c90876114ed565b825160408401519197506107b09190611283565b6107ba90866114ed565b94506107f36040518060400160405280601081526020016f53656e64696e6720257320746f20257360801b815250836000015183611296565b81516040516000916001600160a01b038416918381818185875af1925050503d806000811461083e576040519150601f19603f3d011682016040523d82523d6000602084013e610843565b606091505b505090508061088b5760405162461bcd60e51b81526020600482015260146024820152732330b4b632b2103a379039b2b7321022ba3432b960611b604482015260640161032b565b505050808061089990611505565b9150506106a2565b50806108ac81611505565b915050610697565b506000826003546108c5919061151e565b905060005b84811015610ae85760005b600160008888858181106108eb576108eb6114c1565b9050602002016020810190610900919061133d565b6001600160a01b03168152602081019190915260400160002054811015610ad557600060016000898986818110610939576109396114c1565b905060200201602081019061094e919061133d565b6001600160a01b03166001600160a01b03168152602001908152602001600020828154811061097f5761097f6114c1565b60009182526020808320604080516060810182526003909402909101805480855260018201546001600160a01b03169385018490526002909101549184018290529294509092916109db9189916109d591611283565b906112e2565b9050610a146040518060400160405280601081526020016f53656e64696e6720257320746f20257360801b815250846000015184611296565b60006001600160a01b038316610a35610a2e896001611535565b8490611283565b604051600081818185875af1925050503d8060008114610a71576040519150601f19603f3d011682016040523d82523d6000602084013e610a76565b606091505b5050905080610abe5760405162461bcd60e51b81526020600482015260146024820152732330b4b632b2103a379039b2b7321022ba3432b960611b604482015260640161032b565b505050508080610acd90611505565b9150506108d5565b5080610ae081611505565b9150506108ca565b506040518181527f159263e546a27ed7150662ad6422a52f7d9c8402c444a8e660367e46e1d719989060200160405180910390a15050505050565b600954831015610b815760405162461bcd60e51b815260206004820152602360248201527f42657420616d6f756e74206c6f776572207468616e2074686520656e7472792060448201526266656560e81b606482015260840161032b565b600854600954610b91908561151e565b1015610c055760405162461bcd60e51b815260206004820152603e60248201527f42657420616d6f756e7420286d696e757320656e7472792066656529206c6f7760448201527f6572207468616e20746865206d696e696d756d2062657420616d6f756e740000606482015260840161032b565b600754600954610c15908561151e565b1115610c895760405162461bcd60e51b815260206004820152603f60248201527f42657420616d6f756e7420286d696e757320656e74727920666565292068696760448201527f686572207468616e20746865206d6178696d756d2062657420616d6f756e7400606482015260840161032b565b610c916111fe565b610cdd5760405162461bcd60e51b815260206004820152601a60248201527f536561736f6e20686173206e6f74207374617274656420796574000000000000604482015260640161032b565b610ce561126a565b15610d255760405162461bcd60e51b815260206004820152601060248201526f14d9585cdbdb881a185cc8195b99195960821b604482015260640161032b565b6002546040516001600160a01b0390911690638c346a5d90610d4b908490602001611554565b6040516020818303038152906040526040518263ffffffff1660e01b8152600401610d7691906115d7565b602060405180830381865afa158015610d93573d6000803e3d6000fd5b505050506040513d601f19601f82011682018060405250810190610db791906115ea565b610dc057600080fd5b600954610dcd908461151e565b925060095460046000828254610de391906114ed565b9250508190555060004290506000610e1263240c84006109d5600360055486610e0c919061151e565b90611283565b610e1d9060016114ed565b9050806000805b6001600160a01b03871660009081526001602052604090205481101561104a576001600160a01b0387166000908152600160205260409020805433919083908110610e7157610e716114c1565b60009182526020909120600160039092020101546001600160a01b031603611038576000610e9f848a611283565b6001600160a01b03891660009081526001602052604090208054610f29919085908110610ece57610ece6114c1565b600091825260208083206003909202909101546001600160a01b038d16835260019091526040909120805486908110610f0957610f096114c1565b90600052602060002090600302016002015461128390919063ffffffff16565b610f3391906114ed565b9050610f9289600160008b6001600160a01b03166001600160a01b031681526020019081526020016000208481548110610f6f57610f6f6114c1565b906000526020600020906003020160000154610f8b91906114ed565b82906112e2565b6001600160a01b0389166000908152600160205260409020805484908110610fbc57610fbc6114c1565b90600052602060002090600302016002018190555088600160008a6001600160a01b03166001600160a01b031681526020019081526020016000208381548110611008576110086114c1565b9060005260206000209060030201600001600082825461102891906114ed565b909155506001935061104a915050565b8061104281611505565b915050610e24565b508015156000036110c757604080516060810182528881523360208083019182528284018681526001600160a01b038b8116600090815260018085529681208054808901825590825293902094516003909302909401918255915193810180546001600160a01b0319169490931693909317909155516002909101555b86600360008282546110d991906114ed565b909155505060408051888152602081018690526001600160a01b038816917faef4e091ec4a3800e3135934210edcf6949b208c449c51fe586e99d1700ba2c0910160405180910390a250505050505050565b6111336111a4565b6001600160a01b0381166111985760405162461bcd60e51b815260206004820152602660248201527f4f776e61626c653a206e6577206f776e657220697320746865207a65726f206160448201526564647265737360d01b606482015260840161032b565b6111a18161121a565b50565b6000546001600160a01b0316331461056a5760405162461bcd60e51b815260206004820181905260248201527f4f776e61626c653a2063616c6c6572206973206e6f7420746865206f776e6572604482015260640161032b565b600060055460001415801561121557506005544210155b905090565b600080546001600160a01b038381166001600160a01b0319831681178455604051919092169283917f8be0079c531659141344cd1fd0a4f28419497f9722a3daafe3b4186f6b6457e09190a35050565b6000600654600014801561121557505060065442101590565b600061128f8284611535565b9392505050565b6112dd8383836040516024016112ae9392919061160c565b60408051601f198184030181529190526020810180516001600160e01b031663038fd88960e31b1790526112ee565b505050565b600061128f828461163f565b80516a636f6e736f6c652e6c6f67602083016000808483855afa5050505050565b60006020828403121561132157600080fd5b5035919050565b6001600160a01b03811681146111a157600080fd5b60006020828403121561134f57600080fd5b813561128f81611328565b6000806020838503121561136d57600080fd5b823567ffffffffffffffff8082111561138557600080fd5b818501915085601f83011261139957600080fd5b8135818111156113a857600080fd5b8660208260051b85010111156113bd57600080fd5b60209290920196919550909350505050565b634e487b7160e01b600052604160045260246000fd5b6000806000606084860312156113fa57600080fd5b8335925060208085013561140d81611328565b9250604085013567ffffffffffffffff8082111561142a57600080fd5b818701915087601f83011261143e57600080fd5b813581811115611450576114506113cf565b8060051b604051601f19603f83011681018181108582111715611475576114756113cf565b60405291825284820192508381018501918a83111561149357600080fd5b938501935b828510156114b157843584529385019392850192611498565b8096505050505050509250925092565b634e487b7160e01b600052603260045260246000fd5b634e487b7160e01b600052601160045260246000fd5b60008219821115611500576115006114d7565b500190565b600060018201611517576115176114d7565b5060010190565b600082821015611530576115306114d7565b500390565b600081600019048311821515161561154f5761154f6114d7565b500290565b815160009082906020808601845b8381101561157e57815185529382019390820190600101611562565b50929695505050505050565b6000815180845260005b818110156115b057602081850181015186830182015201611594565b818111156115c2576000602083870101525b50601f01601f19169290920160200192915050565b60208152600061128f602083018461158a565b6000602082840312156115fc57600080fd5b8151801515811461128f57600080fd5b60608152600061161f606083018661158a565b6020830194909452506001600160a01b0391909116604090910152919050565b60008261165c57634e487b7160e01b600052601260045260246000fd5b50049056fea264697066735822122057f133db590bce31183b5ca749eb55397ec9b5f529d11a08e2dc3e49ab83999264736f6c634300080d0033",
  "linkReferences": {},
  "deployedLinkReferences": {}
}